{"abi":[{"type":"constructor","inputs":[{"name":"usdcAddress","type":"address","internalType":"address"}],"stateMutability":"nonpayable"},{"type":"function","name":"creditBridgeDeposit","inputs":[{"name":"user","type":"address","internalType":"address"},{"name":"keyHash","type":"bytes32","internalType":"bytes32"},{"name":"amount","type":"uint256","internalType":"uint256"}],"outputs":[],"stateMutability":"nonpayable"},{"type":"function","name":"deposit","inputs":[{"name":"keyHash","type":"bytes32","internalType":"bytes32"},{"name":"amount","type":"uint256","internalType":"uint256"}],"outputs":[],"stateMutability":"nonpayable"},{"type":"function","name":"getBalance","inputs":[{"name":"user","type":"address","internalType":"address"},{"name":"keyHash","type":"bytes32","internalType":"bytes32"}],"outputs":[{"name":"","type":"uint256","internalType":"uint256"}],"stateMutability":"view"},{"type":"function","name":"owner","inputs":[],"outputs":[{"name":"","type":"address","internalType":"address"}],"stateMutability":"view"},{"type":"function","name":"transferOwnership","inputs":[{"name":"newOwner","type":"address","internalType":"address"}],"outputs":[],"stateMutability":"nonpayable"},{"type":"function","name":"usdc","inputs":[],"outputs":[{"name":"","type":"address","internalType":"contract IERC20"}],"stateMutability":"view"},{"type":"function","name":"vaultUSDCBalance","inputs":[],"outputs":[{"name":"","type":"uint256","internalType":"uint256"}],"stateMutability":"view"},{"type":"function","name":"withdraw","inputs":[{"name":"keyHash","type":"bytes32","internalType":"bytes32"},{"name":"amount","type":"uint256","internalType":"uint256"}],"outputs":[],"stateMutability":"nonpayable"},{"type":"event","name":"BridgeCredit","inputs":[{"name":"user","type":"address","indexed":true,"internalType":"address"},{"name":"keyHash","type":"bytes32","indexed":true,"internalType":"bytes32"},{"name":"amount","type":"uint256","indexed":false,"internalType":"uint256"}],"anonymous":false},{"type":"event","name":"Deposit","inputs":[{"name":"user","type":"address","indexed":true,"internalType":"address"},{"name":"keyHash","type":"bytes32","indexed":true,"internalType":"bytes32"},{"name":"amount","type":"uint256","indexed":false,"internalType":"uint256"}],"anonymous":false},{"type":"event","name":"Withdraw","inputs":[{"name":"user","type":"address","indexed":true,"internalType":"address"},{"name":"keyHash","type":"bytes32","indexed":true,"internalType":"bytes32"},{"name":"amount","type":"uint256","indexed":false,"internalType":"uint256"}],"anonymous":false}],"bytecode":{"object":"0x60a060405234801561000f575f80fd5b5060405161088e38038061088e83398101604081905261002e91610050565b6001600160a01b03166080525f80546001600160a01b0319163317905561007d565b5f60208284031215610060575f80fd5b81516001600160a01b0381168114610076575f80fd5b9392505050565b6080516107e56100a95f395f818160b60152818161022801528181610355015261055e01526107e55ff3fe608060405234801561000f575f80fd5b5060043610610085575f3560e01c80638da5cb5b116100585780638da5cb5b14610108578063bc34e6da1461011a578063c79d5ec514610130578063f2fde38b14610143575f80fd5b8063040cf020146100895780631de26e161461009e5780633e413bee146100b15780635e056d37146100f5575b5f80fd5b61009c610097366004610664565b610156565b005b61009c6100ac366004610664565b610314565b6100d87f000000000000000000000000000000000000000000000000000000000000000081565b6040516001600160a01b0390911681526020015b60405180910390f35b61009c61010336600461069f565b610467565b5f546100d8906001600160a01b031681565b610122610547565b6040519081526020016100ec565b61012261013e3660046106cf565b6105d4565b61009c6101513660046106f7565b6105fe565b5f811161017e5760405162461bcd60e51b815260040161017590610717565b60405180910390fd5b335f9081526001602090815260408083208584529091529020548111156101de5760405162461bcd60e51b8152602060048201526014602482015273696e73756666696369656e742062616c616e636560601b6044820152606401610175565b335f90815260016020908152604080832085845290915281208054839290610207908490610753565b909155505060405163a9059cbb60e01b8152336004820152602481018290527f00000000000000000000000000000000000000000000000000000000000000006001600160a01b03169063a9059cbb906044016020604051808303815f875af1158015610276573d5f803e3d5ffd5b505050506040513d601f19601f8201168201806040525081019061029a9190610766565b6102d85760405162461bcd60e51b815260206004820152600f60248201526e1dda5d1a191c985dc819985a5b1959608a1b6044820152606401610175565b604051818152829033907fc3ded2be7db21b1af963f267d27750e4a15f174547d88b886b9bda43e2c6fa32906020015b60405180910390a35050565b5f81116103335760405162461bcd60e51b815260040161017590610717565b6040516323b872dd60e01b8152336004820152306024820152604481018290527f00000000000000000000000000000000000000000000000000000000000000006001600160a01b0316906323b872dd906064016020604051808303815f875af11580156103a3573d5f803e3d5ffd5b505050506040513d601f19601f820116820180604052508101906103c79190610766565b6104055760405162461bcd60e51b815260206004820152600f60248201526e1d1c985b9cd9995c8819985a5b1959608a1b6044820152606401610175565b335f9081526001602090815260408083208584529091528120805483929061042e908490610785565b9091555050604051818152829033907f19dacbf83c5de6658e14cbf7bcae5c15eca2eedecf1c66fbca928e4d351bea0f90602001610308565b5f546001600160a01b031633146104ac5760405162461bcd60e51b81526020600482015260096024820152683737ba1037bbb732b960b91b6044820152606401610175565b5f81116104cb5760405162461bcd60e51b815260040161017590610717565b6001600160a01b0383165f908152600160209081526040808320858452909152812080548392906104fd908490610785565b909155505060405181815282906001600160a01b038516907f01e47590781755793ba32ed0c6dc037353f451039d31d455912f4661f1101f889060200160405180910390a3505050565b6040516370a0823160e01b81523060048201525f907f00000000000000000000000000000000000000000000000000000000000000006001600160a01b0316906370a0823190602401602060405180830381865afa1580156105ab573d5f803e3d5ffd5b505050506040513d601f19601f820116820180604052508101906105cf9190610798565b905090565b6001600160a01b0382165f9081526001602090815260408083208484529091529020545b92915050565b5f546001600160a01b031633146106435760405162461bcd60e51b81526020600482015260096024820152683737ba1037bbb732b960b91b6044820152606401610175565b5f80546001600160a01b0319166001600160a01b0392909216919091179055565b5f8060408385031215610675575f80fd5b50508035926020909101359150565b80356001600160a01b038116811461069a575f80fd5b919050565b5f805f606084860312156106b1575f80fd5b6106ba84610684565b95602085013595506040909401359392505050565b5f80604083850312156106e0575f80fd5b6106e983610684565b946020939093013593505050565b5f60208284031215610707575f80fd5b61071082610684565b9392505050565b6020808252600e908201526d1a5b9d985b1a5908185b5bdd5b9d60921b604082015260600190565b634e487b7160e01b5f52601160045260245ffd5b818103818111156105f8576105f861073f565b5f60208284031215610776575f80fd5b81518015158114610710575f80fd5b808201808211156105f8576105f861073f565b5f602082840312156107a8575f80fd5b505191905056fea26469706673582212200ec229b62043d8c43889e83428025e8f1e8921b26062fa996342829a963d0da264736f6c63430008180033","linkReferences":{}},"methodIdentifiers":{"creditBridgeDeposit(address,bytes32,uint256)":"5e056d37","deposit(bytes32,uint256)":"1de26e16","getBalance(address,bytes32)":"c79d5ec5","owner()":"8da5cb5b","transferOwnership(address)":"f2fde38b","usdc()":"3e413bee","vaultUSDCBalance()":"bc34e6da","withdraw(bytes32,uint256)":"040cf020"},"id":0}