{"abi":[{"type":"constructor","inputs":[{"name":"usdcAddress","type":"address","internalType":"address"}],"stateMutability":"nonpayable"},{"type":"function","name":"availableLiquidity","inputs":[],"outputs":[{"name":"","type":"uint256","internalType":"uint256"}],"stateMutability":"view"},{"type":"function","name":"createTicket","inputs":[{"name":"keyHash","type":"bytes32","internalType":"bytes32"},{"name":"amount","type":"uint256","internalType":"uint256"}],"outputs":[],"stateMutability":"nonpayable"},{"type":"function","name":"creditBridgeDeposit","inputs":[{"name":"keyHash","type":"bytes32","internalType":"bytes32"},{"name":"amount","type":"uint256","internalType":"uint256"}],"outputs":[],"stateMutability":"nonpayable"},{"type":"function","name":"deposit","inputs":[{"name":"keyHash","type":"bytes32","internalType":"bytes32"},{"name":"amount","type":"uint256","internalType":"uint256"}],"outputs":[],"stateMutability":"nonpayable"},{"type":"function","name":"getBalance","inputs":[{"name":"keyHash","type":"bytes32","internalType":"bytes32"}],"outputs":[{"name":"","type":"uint256","internalType":"uint256"}],"stateMutability":"view"},{"type":"function","name":"owner","inputs":[],"outputs":[{"name":"","type":"address","internalType":"address"}],"stateMutability":"view"},{"type":"function","name":"ticketBalance","inputs":[{"name":"keyHash","type":"bytes32","internalType":"bytes32"}],"outputs":[{"name":"","type":"uint256","internalType":"uint256"}],"stateMutability":"view"},{"type":"function","name":"totalAllocated","inputs":[],"outputs":[{"name":"","type":"uint256","internalType":"uint256"}],"stateMutability":"view"},{"type":"function","name":"transferOwnership","inputs":[{"name":"newOwner","type":"address","internalType":"address"}],"outputs":[],"stateMutability":"nonpayable"},{"type":"function","name":"usdc","inputs":[],"outputs":[{"name":"","type":"address","internalType":"contract IERC20"}],"stateMutability":"view"},{"type":"function","name":"vaultUSDCBalance","inputs":[],"outputs":[{"name":"","type":"uint256","internalType":"uint256"}],"stateMutability":"view"},{"type":"function","name":"withdraw","inputs":[{"name":"secret","type":"string","internalType":"string"},{"name":"amount","type":"uint256","internalType":"uint256"},{"name":"recipient","type":"address","internalType":"address"}],"outputs":[],"stateMutability":"nonpayable"},{"type":"event","name":"BridgeCredit","inputs":[{"name":"keyHash","type":"bytes32","indexed":true,"internalType":"bytes32"},{"name":"amount","type":"uint256","indexed":false,"internalType":"uint256"}],"anonymous":false},{"type":"event","name":"Deposit","inputs":[{"name":"keyHash","type":"bytes32","indexed":true,"internalType":"bytes32"},{"name":"amount","type":"uint256","indexed":false,"internalType":"uint256"}],"anonymous":false},{"type":"event","name":"TicketCreated","inputs":[{"name":"keyHash","type":"bytes32","indexed":true,"internalType":"bytes32"},{"name":"amount","type":"uint256","indexed":false,"internalType":"uint256"}],"anonymous":false},{"type":"event","name":"Withdraw","inputs":[{"name":"keyHash","type":"bytes32","indexed":true,"internalType":"bytes32"},{"name":"recipient","type":"address","indexed":true,"internalType":"address"},{"name":"amount","type":"uint256","indexed":false,"internalType":"uint256"}],"anonymous":false}],"bytecode":{"object":"0x60a060405234801561000f575f80fd5b50604051610c9e380380610c9e83398101604081905261002e91610050565b6001600160a01b03166080525f80546001600160a01b0319163317905561007d565b5f60208284031215610060575f80fd5b81516001600160a01b0381168114610076575f80fd5b9392505050565b608051610be06100be5f395f818160cf015281816101fc01528181610355015281816104ab0152818161062f0152818161078d01526108e60152610be05ff3fe608060405234801561000f575f80fd5b50600436106100b1575f3560e01c80638da5cb5b1161006e5780638da5cb5b146101535780638e73946114610165578063b0bf1e6514610184578063bc34e6da14610197578063dd222b4714610165578063f2fde38b1461019f575f80fd5b80631de26e16146100b55780633e413bee146100ca57806345f7f2491461010e57806352d8f49f1461012557806374375359146101385780637804e70714610140575b5f80fd5b6100c86100c33660046109e6565b6101b2565b005b6100f17f000000000000000000000000000000000000000000000000000000000000000081565b6040516001600160a01b0390911681526020015b60405180910390f35b61011760025481565b604051908152602001610105565b6100c86101333660046109e6565b6102ea565b610117610488565b6100c861014e366004610a21565b610523565b5f546100f1906001600160a01b031681565b610117610173366004610aa3565b5f9081526001602052604090205490565b6100c86101923660046109e6565b610722565b6101176108cf565b6100c86101ad366004610aba565b610957565b5f81116101da5760405162461bcd60e51b81526004016101d190610ada565b60405180910390fd5b6040516323b872dd60e01b8152336004820152306024820152604481018290527f00000000000000000000000000000000000000000000000000000000000000006001600160a01b0316906323b872dd906064016020604051808303815f875af115801561024a573d5f803e3d5ffd5b505050506040513d601f19601f8201168201806040525081019061026e9190610b02565b6102ac5760405162461bcd60e51b815260206004820152600f60248201526e1d1c985b9cd9995c8819985a5b1959608a1b60448201526064016101d1565b817f98e783c3864bbf744a057ef605a2a61701c3b62b5ed68b3745b99094497daf1f826040516102de91815260200190565b60405180910390a25050565b5f546001600160a01b031633146103135760405162461bcd60e51b81526004016101d190610b21565b5f81116103325760405162461bcd60e51b81526004016101d190610ada565b6002546040516370a0823160e01b81523060048201525f91906001600160a01b037f000000000000000000000000000000000000000000000000000000000000000016906370a0823190602401602060405180830381865afa15801561039a573d5f803e3d5ffd5b505050506040513d601f19601f820116820180604052508101906103be9190610b44565b6103c89190610b6f565b9050818110156104135760405162461bcd60e51b8152602060048201526016602482015275696e73756666696369656e74206c697175696469747960501b60448201526064016101d1565b5f8381526001602052604081208054849290610430908490610b88565b925050819055508160025f8282546104489190610b88565b909155505060405182815283907f2b600021df416a21ca7dbe0c57701bdf960c1c82f102b7314bd01d85f05e60c0906020015b60405180910390a2505050565b6002546040516370a0823160e01b81523060048201525f91906001600160a01b037f000000000000000000000000000000000000000000000000000000000000000016906370a0823190602401602060405180830381865afa1580156104f0573d5f803e3d5ffd5b505050506040513d601f19601f820116820180604052508101906105149190610b44565b61051e9190610b6f565b905090565b5f82116105425760405162461bcd60e51b81526004016101d190610ada565b5f8484604051602001610556929190610b9b565b6040516020818303038152906040528051906020012090508260015f8381526020019081526020015f205410156105cf5760405162461bcd60e51b815260206004820152601b60248201527f696e73756666696369656e74207469636b65742062616c616e6365000000000060448201526064016101d1565b5f81815260016020526040812080548592906105ec908490610b6f565b925050819055508260025f8282546106049190610b6f565b909155505060405163a9059cbb60e01b81526001600160a01b038381166004830152602482018590527f0000000000000000000000000000000000000000000000000000000000000000169063a9059cbb906044016020604051808303815f875af1158015610675573d5f803e3d5ffd5b505050506040513d601f19601f820116820180604052508101906106999190610b02565b6106d75760405162461bcd60e51b815260206004820152600f60248201526e1dda5d1a191c985dc819985a5b1959608a1b60448201526064016101d1565b816001600160a01b0316817fe7284ffe0c70ad2f3b0aa15cde1cfe95f736935651a138725b21fd168edc5d6a8560405161071391815260200190565b60405180910390a35050505050565b5f546001600160a01b0316331461074b5760405162461bcd60e51b81526004016101d190610b21565b5f811161076a5760405162461bcd60e51b81526004016101d190610ada565b6002546040516370a0823160e01b81523060048201525f91906001600160a01b037f000000000000000000000000000000000000000000000000000000000000000016906370a0823190602401602060405180830381865afa1580156107d2573d5f803e3d5ffd5b505050506040513d601f19601f820116820180604052508101906107f69190610b44565b6108009190610b6f565b90508181101561084b5760405162461bcd60e51b8152602060048201526016602482015275696e73756666696369656e74206c697175696469747960501b60448201526064016101d1565b5f8381526001602052604081208054849290610868908490610b88565b925050819055508160025f8282546108809190610b88565b925050819055508160025f8282546108989190610b6f565b909155505060405182815283907f8b1d6777928f63751025c630105db7e6a74d7527b1474e6fb143e17b12da40189060200161047b565b6040516370a0823160e01b81523060048201525f907f00000000000000000000000000000000000000000000000000000000000000006001600160a01b0316906370a0823190602401602060405180830381865afa158015610933573d5f803e3d5ffd5b505050506040513d601f19601f8201168201806040525081019061051e9190610b44565b5f546001600160a01b031633146109805760405162461bcd60e51b81526004016101d190610b21565b6001600160a01b0381166109c55760405162461bcd60e51b815260206004820152600c60248201526b7a65726f206164647265737360a01b60448201526064016101d1565b5f80546001600160a01b0319166001600160a01b0392909216919091179055565b5f80604083850312156109f7575f80fd5b50508035926020909101359150565b80356001600160a01b0381168114610a1c575f80fd5b919050565b5f805f8060608587031215610a34575f80fd5b843567ffffffffffffffff80821115610a4b575f80fd5b818701915087601f830112610a5e575f80fd5b813581811115610a6c575f80fd5b886020828501011115610a7d575f80fd5b602092830196509450508501359150610a9860408601610a06565b905092959194509250565b5f60208284031215610ab3575f80fd5b5035919050565b5f60208284031215610aca575f80fd5b610ad382610a06565b9392505050565b6020808252600e908201526d1a5b9d985b1a5908185b5bdd5b9d60921b604082015260600190565b5f60208284031215610b12575f80fd5b81518015158114610ad3575f80fd5b6020808252600990820152683737ba1037bbb732b960b91b604082015260600190565b5f60208284031215610b54575f80fd5b5051919050565b634e487b7160e01b5f52601160045260245ffd5b81810381811115610b8257610b82610b5b565b92915050565b80820180821115610b8257610b82610b5b565b818382375f910190815291905056fea264697066735822122065ba97f5c0b736b0e5eba9e8c06d0d351c8c38e734055775af572e05480da81064736f6c63430008180033","linkReferences":{}},"methodIdentifiers":{"availableLiquidity()":"74375359","createTicket(bytes32,uint256)":"52d8f49f","creditBridgeDeposit(bytes32,uint256)":"b0bf1e65","deposit(bytes32,uint256)":"1de26e16","getBalance(bytes32)":"8e739461","owner()":"8da5cb5b","ticketBalance(bytes32)":"dd222b47","totalAllocated()":"45f7f249","transferOwnership(address)":"f2fde38b","usdc()":"3e413bee","vaultUSDCBalance()":"bc34e6da","withdraw(string,uint256,address)":"7804e707"},"id":0}