{"abi":[{"type":"constructor","inputs":[{"name":"usdcAddress","type":"address","internalType":"address"}],"stateMutability":"nonpayable"},{"type":"function","name":"allocatedBalance","inputs":[{"name":"","type":"address","internalType":"address"}],"outputs":[{"name":"","type":"uint256","internalType":"uint256"}],"stateMutability":"view"},{"type":"function","name":"availableLiquidity","inputs":[],"outputs":[{"name":"","type":"uint256","internalType":"uint256"}],"stateMutability":"view"},{"type":"function","name":"availableUserLiquidity","inputs":[{"name":"user","type":"address","internalType":"address"}],"outputs":[{"name":"","type":"uint256","internalType":"uint256"}],"stateMutability":"view"},{"type":"function","name":"createTicket","inputs":[{"name":"keyHash","type":"bytes32","internalType":"bytes32"},{"name":"amount","type":"uint256","internalType":"uint256"},{"name":"creator","type":"address","internalType":"address"}],"outputs":[],"stateMutability":"nonpayable"},{"type":"function","name":"creditBridgeDeposit","inputs":[{"name":"user","type":"address","internalType":"address"},{"name":"keyHash","type":"bytes32","internalType":"bytes32"},{"name":"amount","type":"uint256","internalType":"uint256"}],"outputs":[],"stateMutability":"nonpayable"},{"type":"function","name":"deposit","inputs":[{"name":"keyHash","type":"bytes32","internalType":"bytes32"},{"name":"amount","type":"uint256","internalType":"uint256"}],"outputs":[],"stateMutability":"nonpayable"},{"type":"function","name":"getBalance","inputs":[{"name":"keyHash","type":"bytes32","internalType":"bytes32"}],"outputs":[{"name":"","type":"uint256","internalType":"uint256"}],"stateMutability":"view"},{"type":"function","name":"owner","inputs":[],"outputs":[{"name":"","type":"address","internalType":"address"}],"stateMutability":"view"},{"type":"function","name":"ticketBalance","inputs":[{"name":"keyHash","type":"bytes32","internalType":"bytes32"}],"outputs":[{"name":"","type":"uint256","internalType":"uint256"}],"stateMutability":"view"},{"type":"function","name":"ticketCreator","inputs":[{"name":"","type":"bytes32","internalType":"bytes32"}],"outputs":[{"name":"","type":"address","internalType":"address"}],"stateMutability":"view"},{"type":"function","name":"transferOwnership","inputs":[{"name":"newOwner","type":"address","internalType":"address"}],"outputs":[],"stateMutability":"nonpayable"},{"type":"function","name":"usdc","inputs":[],"outputs":[{"name":"","type":"address","internalType":"contract IERC20"}],"stateMutability":"view"},{"type":"function","name":"vaultBalance","inputs":[{"name":"","type":"address","internalType":"address"}],"outputs":[{"name":"","type":"uint256","internalType":"uint256"}],"stateMutability":"view"},{"type":"function","name":"vaultUSDCBalance","inputs":[],"outputs":[{"name":"","type":"uint256","internalType":"uint256"}],"stateMutability":"view"},{"type":"function","name":"withdraw","inputs":[{"name":"secret","type":"string","internalType":"string"},{"name":"amount","type":"uint256","internalType":"uint256"},{"name":"recipient","type":"address","internalType":"address"}],"outputs":[],"stateMutability":"nonpayable"},{"type":"event","name":"BridgeCredit","inputs":[{"name":"user","type":"address","indexed":true,"internalType":"address"},{"name":"keyHash","type":"bytes32","indexed":true,"internalType":"bytes32"},{"name":"amount","type":"uint256","indexed":false,"internalType":"uint256"}],"anonymous":false},{"type":"event","name":"Deposit","inputs":[{"name":"depositor","type":"address","indexed":true,"internalType":"address"},{"name":"keyHash","type":"bytes32","indexed":true,"internalType":"bytes32"},{"name":"amount","type":"uint256","indexed":false,"internalType":"uint256"}],"anonymous":false},{"type":"event","name":"TicketCreated","inputs":[{"name":"creator","type":"address","indexed":true,"internalType":"address"},{"name":"keyHash","type":"bytes32","indexed":true,"internalType":"bytes32"},{"name":"amount","type":"uint256","indexed":false,"internalType":"uint256"}],"anonymous":false},{"type":"event","name":"Withdraw","inputs":[{"name":"caller","type":"address","indexed":true,"internalType":"address"},{"name":"keyHash","type":"bytes32","indexed":true,"internalType":"bytes32"},{"name":"recipient","type":"address","indexed":true,"internalType":"address"},{"name":"amount","type":"uint256","indexed":false,"internalType":"uint256"}],"anonymous":false}],"bytecode":{"object":"0x60a060405234801561000f575f80fd5b50604051610e07380380610e0783398101604081905261002e91610050565b6001600160a01b03166080525f80546001600160a01b0319163317905561007d565b5f60208284031215610060575f80fd5b81516001600160a01b0381168114610076575f80fd5b9392505050565b608051610d566100b15f395f818161010e015281816102ab015281816104c6015281816106e10152610a000152610d565ff3fe608060405234801561000f575f80fd5b50600436106100f0575f3560e01c80638da5cb5b11610093578063d8942e5e11610063578063d8942e5e14610207578063dd222b47146101cd578063ed0fe4161461022f578063f2fde38b1461024e575f80fd5b80638da5cb5b146101bb5780638e739461146101cd578063b0abaa6c146101ec578063bc34e6da146101ff575f80fd5b806374375359116100ce57806374375359146101605780637804e707146101765780637f0e7fbf146101895780638142c62e1461019c575f80fd5b80631de26e16146100f45780633e413bee146101095780635e056d371461014d575b5f80fd5b610107610102366004610b00565b610261565b005b6101307f000000000000000000000000000000000000000000000000000000000000000081565b6040516001600160a01b0390911681526020015b60405180910390f35b61010761015b366004610b3b565b610396565b610168610494565b604051908152602001610144565b610107610184366004610b6b565b61053e565b610107610197366004610bed565b6107df565b6101686101aa366004610c1f565b60046020525f908152604090205481565b5f54610130906001600160a01b031681565b6101686101db366004610c3f565b5f9081526001602052604090205490565b6101686101fa366004610c1f565b6109b6565b6101686109e9565b610130610215366004610c3f565b60026020525f90815260409020546001600160a01b031681565b61016861023d366004610c1f565b60036020525f908152604090205481565b61010761025c366004610c1f565b610a71565b5f81116102895760405162461bcd60e51b815260040161028090610c56565b60405180910390fd5b6040516323b872dd60e01b8152336004820152306024820152604481018290527f00000000000000000000000000000000000000000000000000000000000000006001600160a01b0316906323b872dd906064016020604051808303815f875af11580156102f9573d5f803e3d5ffd5b505050506040513d601f19601f8201168201806040525081019061031d9190610c7e565b61035b5760405162461bcd60e51b815260206004820152600f60248201526e1d1c985b9cd9995c8819985a5b1959608a1b6044820152606401610280565b604051818152829033907f19dacbf83c5de6658e14cbf7bcae5c15eca2eedecf1c66fbca928e4d351bea0f9060200160405180910390a35050565b5f546001600160a01b031633146103bf5760405162461bcd60e51b815260040161028090610c9d565b6001600160a01b0383166104045760405162461bcd60e51b815260206004820152600c60248201526b34b73b30b634b2103ab9b2b960a11b6044820152606401610280565b5f81116104235760405162461bcd60e51b815260040161028090610c56565b6001600160a01b0383165f908152600360205260408120805483929061044a908490610cd4565b909155505060405181815282906001600160a01b038516907f01e47590781755793ba32ed0c6dc037353f451039d31d455912f4661f1101f889060200160405180910390a3505050565b305f8181526004602081905260408083205490516370a0823160e01b8152918201939093529091906001600160a01b037f000000000000000000000000000000000000000000000000000000000000000016906370a0823190602401602060405180830381865afa15801561050b573d5f803e3d5ffd5b505050506040513d601f19601f8201168201806040525081019061052f9190610ce7565b6105399190610cfe565b905090565b5f821161055d5760405162461bcd60e51b815260040161028090610c56565b5f8484604051602001610571929190610d11565b6040516020818303038152906040528051906020012090508260015f8381526020019081526020015f205410156105ea5760405162461bcd60e51b815260206004820152601b60248201527f696e73756666696369656e74207469636b65742062616c616e636500000000006044820152606401610280565b5f818152600260205260409020546001600160a01b0316806106415760405162461bcd60e51b815260206004820152601060248201526f1d1a58dad95d081b9bdd08199bdd5b9960821b6044820152606401610280565b5f828152600160205260408120805486929061065e908490610cfe565b90915550506001600160a01b0381165f908152600460205260408120805486929061068a908490610cfe565b90915550506001600160a01b0381165f90815260036020526040812080548692906106b6908490610cfe565b909155505060405163a9059cbb60e01b81526001600160a01b038481166004830152602482018690527f0000000000000000000000000000000000000000000000000000000000000000169063a9059cbb906044016020604051808303815f875af1158015610727573d5f803e3d5ffd5b505050506040513d601f19601f8201168201806040525081019061074b9190610c7e565b6107895760405162461bcd60e51b815260206004820152600f60248201526e1dda5d1a191c985dc819985a5b1959608a1b6044820152606401610280565b826001600160a01b031682336001600160a01b03167ff0656f6cddefe9a7eff525fff23aff019ff0f2d2d2a51a133f094222caef3034876040516107cf91815260200190565b60405180910390a4505050505050565b5f546001600160a01b031633146108085760405162461bcd60e51b815260040161028090610c9d565b5f82116108275760405162461bcd60e51b815260040161028090610c56565b6001600160a01b0381165f9081526004602090815260408083205460039092528220546108549190610cfe565b9050828110156108a65760405162461bcd60e51b815260206004820152601b60248201527f696e73756666696369656e742075736572206c697175696469747900000000006044820152606401610280565b5f848152600260205260409020546001600160a01b03166108df575f84815260026020526040902080546001600160a01b031916331790555b5f84815260026020908152604080832080546001600160a01b0319166001600160a01b03871617905560019091528120805485929061091f908490610cd4565b90915550506001600160a01b0382165f908152600460205260408120805485929061094b908490610cd4565b90915550505f8481526002602090815260409182902080546001600160a01b0319166001600160a01b03861690811790915591518581528692917f9ca9de929b6225d4c603e11058d310c394868ced77931878a30505d6b35d5de6910160405180910390a350505050565b6001600160a01b0381165f9081526004602090815260408083205460039092528220546109e39190610cfe565b92915050565b6040516370a0823160e01b81523060048201525f907f00000000000000000000000000000000000000000000000000000000000000006001600160a01b0316906370a0823190602401602060405180830381865afa158015610a4d573d5f803e3d5ffd5b505050506040513d601f19601f820116820180604052508101906105399190610ce7565b5f546001600160a01b03163314610a9a5760405162461bcd60e51b815260040161028090610c9d565b6001600160a01b038116610adf5760405162461bcd60e51b815260206004820152600c60248201526b7a65726f206164647265737360a01b6044820152606401610280565b5f80546001600160a01b0319166001600160a01b0392909216919091179055565b5f8060408385031215610b11575f80fd5b50508035926020909101359150565b80356001600160a01b0381168114610b36575f80fd5b919050565b5f805f60608486031215610b4d575f80fd5b610b5684610b20565b95602085013595506040909401359392505050565b5f805f8060608587031215610b7e575f80fd5b843567ffffffffffffffff80821115610b95575f80fd5b818701915087601f830112610ba8575f80fd5b813581811115610bb6575f80fd5b886020828501011115610bc7575f80fd5b602092830196509450508501359150610be260408601610b20565b905092959194509250565b5f805f60608486031215610bff575f80fd5b8335925060208401359150610c1660408501610b20565b90509250925092565b5f60208284031215610c2f575f80fd5b610c3882610b20565b9392505050565b5f60208284031215610c4f575f80fd5b5035919050565b6020808252600e908201526d1a5b9d985b1a5908185b5bdd5b9d60921b604082015260600190565b5f60208284031215610c8e575f80fd5b81518015158114610c38575f80fd5b6020808252600990820152683737ba1037bbb732b960b91b604082015260600190565b634e487b7160e01b5f52601160045260245ffd5b808201808211156109e3576109e3610cc0565b5f60208284031215610cf7575f80fd5b5051919050565b818103818111156109e3576109e3610cc0565b818382375f910190815291905056fea264697066735822122088a556e627e43e301f4f703b93e6a87679fe96883cafb8bde435b3a1d95ed93764736f6c63430008180033","linkReferences":{}},"methodIdentifiers":{"allocatedBalance(address)":"8142c62e","availableLiquidity()":"74375359","availableUserLiquidity(address)":"b0abaa6c","createTicket(bytes32,uint256,address)":"7f0e7fbf","creditBridgeDeposit(address,bytes32,uint256)":"5e056d37","deposit(bytes32,uint256)":"1de26e16","getBalance(bytes32)":"8e739461","owner()":"8da5cb5b","ticketBalance(bytes32)":"dd222b47","ticketCreator(bytes32)":"d8942e5e","transferOwnership(address)":"f2fde38b","usdc()":"3e413bee","vaultBalance(address)":"ed0fe416","vaultUSDCBalance()":"bc34e6da","withdraw(string,uint256,address)":"7804e707"},"id":0}