{"abi":[{"type":"constructor","inputs":[{"name":"usdcAddress","type":"address","internalType":"address"}],"stateMutability":"nonpayable"},{"type":"function","name":"availableLiquidity","inputs":[],"outputs":[{"name":"","type":"uint256","internalType":"uint256"}],"stateMutability":"view"},{"type":"function","name":"createTicket","inputs":[{"name":"keyHash","type":"bytes32","internalType":"bytes32"},{"name":"amount","type":"uint256","internalType":"uint256"}],"outputs":[],"stateMutability":"nonpayable"},{"type":"function","name":"creditBridgeDeposit","inputs":[{"name":"keyHash","type":"bytes32","internalType":"bytes32"},{"name":"amount","type":"uint256","internalType":"uint256"}],"outputs":[],"stateMutability":"nonpayable"},{"type":"function","name":"deposit","inputs":[{"name":"keyHash","type":"bytes32","internalType":"bytes32"},{"name":"amount","type":"uint256","internalType":"uint256"}],"outputs":[],"stateMutability":"nonpayable"},{"type":"function","name":"getBalance","inputs":[{"name":"keyHash","type":"bytes32","internalType":"bytes32"}],"outputs":[{"name":"","type":"uint256","internalType":"uint256"}],"stateMutability":"view"},{"type":"function","name":"owner","inputs":[],"outputs":[{"name":"","type":"address","internalType":"address"}],"stateMutability":"view"},{"type":"function","name":"totalAllocated","inputs":[],"outputs":[{"name":"","type":"uint256","internalType":"uint256"}],"stateMutability":"view"},{"type":"function","name":"transferOwnership","inputs":[{"name":"newOwner","type":"address","internalType":"address"}],"outputs":[],"stateMutability":"nonpayable"},{"type":"function","name":"usdc","inputs":[],"outputs":[{"name":"","type":"address","internalType":"contract IERC20"}],"stateMutability":"view"},{"type":"function","name":"vaultUSDCBalance","inputs":[],"outputs":[{"name":"","type":"uint256","internalType":"uint256"}],"stateMutability":"view"},{"type":"function","name":"withdraw","inputs":[{"name":"secret","type":"string","internalType":"string"},{"name":"amount","type":"uint256","internalType":"uint256"},{"name":"recipient","type":"address","internalType":"address"}],"outputs":[],"stateMutability":"nonpayable"},{"type":"event","name":"BridgeCredit","inputs":[{"name":"keyHash","type":"bytes32","indexed":true,"internalType":"bytes32"},{"name":"amount","type":"uint256","indexed":false,"internalType":"uint256"}],"anonymous":false},{"type":"event","name":"Deposit","inputs":[{"name":"keyHash","type":"bytes32","indexed":true,"internalType":"bytes32"},{"name":"amount","type":"uint256","indexed":false,"internalType":"uint256"}],"anonymous":false},{"type":"event","name":"TicketCreated","inputs":[{"name":"keyHash","type":"bytes32","indexed":true,"internalType":"bytes32"},{"name":"amount","type":"uint256","indexed":false,"internalType":"uint256"}],"anonymous":false},{"type":"event","name":"Withdraw","inputs":[{"name":"keyHash","type":"bytes32","indexed":true,"internalType":"bytes32"},{"name":"recipient","type":"address","indexed":true,"internalType":"address"},{"name":"amount","type":"uint256","indexed":false,"internalType":"uint256"}],"anonymous":false}],"bytecode":{"object":"0x60a060405234801561000f575f80fd5b50604051610c7b380380610c7b83398101604081905261002e91610050565b6001600160a01b03166080525f80546001600160a01b0319163317905561007d565b5f60208284031215610060575f80fd5b81516001600160a01b0381168114610076575f80fd5b9392505050565b608051610bbd6100be5f395f818160c4015281816101f10152818161034a015281816104a0015281816106240152818161078201526108c30152610bbd5ff3fe608060405234801561000f575f80fd5b50600436106100a6575f3560e01c80637804e7071161006e5780637804e707146101355780638da5cb5b146101485780638e7394611461015a578063b0bf1e6514610179578063bc34e6da1461018c578063f2fde38b14610194575f80fd5b80631de26e16146100aa5780633e413bee146100bf57806345f7f2491461010357806352d8f49f1461011a578063743753591461012d575b5f80fd5b6100bd6100b83660046109c3565b6101a7565b005b6100e67f000000000000000000000000000000000000000000000000000000000000000081565b6040516001600160a01b0390911681526020015b60405180910390f35b61010c60025481565b6040519081526020016100fa565b6100bd6101283660046109c3565b6102df565b61010c61047d565b6100bd6101433660046109fe565b610518565b5f546100e6906001600160a01b031681565b61010c610168366004610a80565b5f9081526001602052604090205490565b6100bd6101873660046109c3565b610717565b61010c6108ac565b6100bd6101a2366004610a97565b610934565b5f81116101cf5760405162461bcd60e51b81526004016101c690610ab7565b60405180910390fd5b6040516323b872dd60e01b8152336004820152306024820152604481018290527f00000000000000000000000000000000000000000000000000000000000000006001600160a01b0316906323b872dd906064016020604051808303815f875af115801561023f573d5f803e3d5ffd5b505050506040513d601f19601f820116820180604052508101906102639190610adf565b6102a15760405162461bcd60e51b815260206004820152600f60248201526e1d1c985b9cd9995c8819985a5b1959608a1b60448201526064016101c6565b817f98e783c3864bbf744a057ef605a2a61701c3b62b5ed68b3745b99094497daf1f826040516102d391815260200190565b60405180910390a25050565b5f546001600160a01b031633146103085760405162461bcd60e51b81526004016101c690610afe565b5f81116103275760405162461bcd60e51b81526004016101c690610ab7565b6002546040516370a0823160e01b81523060048201525f91906001600160a01b037f000000000000000000000000000000000000000000000000000000000000000016906370a0823190602401602060405180830381865afa15801561038f573d5f803e3d5ffd5b505050506040513d601f19601f820116820180604052508101906103b39190610b21565b6103bd9190610b4c565b9050818110156104085760405162461bcd60e51b8152602060048201526016602482015275696e73756666696369656e74206c697175696469747960501b60448201526064016101c6565b5f8381526001602052604081208054849290610425908490610b65565b925050819055508160025f82825461043d9190610b65565b909155505060405182815283907f2b600021df416a21ca7dbe0c57701bdf960c1c82f102b7314bd01d85f05e60c0906020015b60405180910390a2505050565b6002546040516370a0823160e01b81523060048201525f91906001600160a01b037f000000000000000000000000000000000000000000000000000000000000000016906370a0823190602401602060405180830381865afa1580156104e5573d5f803e3d5ffd5b505050506040513d601f19601f820116820180604052508101906105099190610b21565b6105139190610b4c565b905090565b5f82116105375760405162461bcd60e51b81526004016101c690610ab7565b5f848460405160200161054b929190610b78565b6040516020818303038152906040528051906020012090508260015f8381526020019081526020015f205410156105c45760405162461bcd60e51b815260206004820152601b60248201527f696e73756666696369656e74207469636b65742062616c616e6365000000000060448201526064016101c6565b5f81815260016020526040812080548592906105e1908490610b4c565b925050819055508260025f8282546105f99190610b4c565b909155505060405163a9059cbb60e01b81526001600160a01b038381166004830152602482018590527f0000000000000000000000000000000000000000000000000000000000000000169063a9059cbb906044016020604051808303815f875af115801561066a573d5f803e3d5ffd5b505050506040513d601f19601f8201168201806040525081019061068e9190610adf565b6106cc5760405162461bcd60e51b815260206004820152600f60248201526e1dda5d1a191c985dc819985a5b1959608a1b60448201526064016101c6565b816001600160a01b0316817fe7284ffe0c70ad2f3b0aa15cde1cfe95f736935651a138725b21fd168edc5d6a8560405161070891815260200190565b60405180910390a35050505050565b5f546001600160a01b031633146107405760405162461bcd60e51b81526004016101c690610afe565b5f811161075f5760405162461bcd60e51b81526004016101c690610ab7565b6002546040516370a0823160e01b81523060048201525f91906001600160a01b037f000000000000000000000000000000000000000000000000000000000000000016906370a0823190602401602060405180830381865afa1580156107c7573d5f803e3d5ffd5b505050506040513d601f19601f820116820180604052508101906107eb9190610b21565b6107f59190610b4c565b9050818110156108405760405162461bcd60e51b8152602060048201526016602482015275696e73756666696369656e74206c697175696469747960501b60448201526064016101c6565b5f838152600160205260408120805484929061085d908490610b65565b925050819055508160025f8282546108759190610b65565b909155505060405182815283907f8b1d6777928f63751025c630105db7e6a74d7527b1474e6fb143e17b12da401890602001610470565b6040516370a0823160e01b81523060048201525f907f00000000000000000000000000000000000000000000000000000000000000006001600160a01b0316906370a0823190602401602060405180830381865afa158015610910573d5f803e3d5ffd5b505050506040513d601f19601f820116820180604052508101906105139190610b21565b5f546001600160a01b0316331461095d5760405162461bcd60e51b81526004016101c690610afe565b6001600160a01b0381166109a25760405162461bcd60e51b815260206004820152600c60248201526b7a65726f206164647265737360a01b60448201526064016101c6565b5f80546001600160a01b0319166001600160a01b0392909216919091179055565b5f80604083850312156109d4575f80fd5b50508035926020909101359150565b80356001600160a01b03811681146109f9575f80fd5b919050565b5f805f8060608587031215610a11575f80fd5b843567ffffffffffffffff80821115610a28575f80fd5b818701915087601f830112610a3b575f80fd5b813581811115610a49575f80fd5b886020828501011115610a5a575f80fd5b602092830196509450508501359150610a75604086016109e3565b905092959194509250565b5f60208284031215610a90575f80fd5b5035919050565b5f60208284031215610aa7575f80fd5b610ab0826109e3565b9392505050565b6020808252600e908201526d1a5b9d985b1a5908185b5bdd5b9d60921b604082015260600190565b5f60208284031215610aef575f80fd5b81518015158114610ab0575f80fd5b6020808252600990820152683737ba1037bbb732b960b91b604082015260600190565b5f60208284031215610b31575f80fd5b5051919050565b634e487b7160e01b5f52601160045260245ffd5b81810381811115610b5f57610b5f610b38565b92915050565b80820180821115610b5f57610b5f610b38565b818382375f910190815291905056fea26469706673582212202768689e175757593743127dfefc8bf2f6cfbef8e64ca154e15e8021c2f6f67964736f6c63430008180033","linkReferences":{}},"methodIdentifiers":{"availableLiquidity()":"74375359","createTicket(bytes32,uint256)":"52d8f49f","creditBridgeDeposit(bytes32,uint256)":"b0bf1e65","deposit(bytes32,uint256)":"1de26e16","getBalance(bytes32)":"8e739461","owner()":"8da5cb5b","totalAllocated()":"45f7f249","transferOwnership(address)":"f2fde38b","usdc()":"3e413bee","vaultUSDCBalance()":"bc34e6da","withdraw(string,uint256,address)":"7804e707"},"id":0}