{
  "_format": "hh-sol-artifact-1",
  "contractName": "CrowdfundingFactory",
  "sourceName": "contracts/CrowdfundingFactory.sol",
  "abi": [
    {
      "inputs": [
        {
          "internalType": "address",
          "name": "_implementation",
          "type": "address"
        },
        {
          "internalType": "address",
          "name": "_usdc",
          "type": "address"
        },
        {
          "internalType": "address",
          "name": "_treasury",
          "type": "address"
        },
        {
          "internalType": "uint256",
          "name": "_creationFee",
          "type": "uint256"
        }
      ],
      "stateMutability": "nonpayable",
      "type": "constructor"
    },
    {
      "inputs": [],
      "name": "FailedDeployment",
      "type": "error"
    },
    {
      "inputs": [
        {
          "internalType": "uint256",
          "name": "balance",
          "type": "uint256"
        },
        {
          "internalType": "uint256",
          "name": "needed",
          "type": "uint256"
        }
      ],
      "name": "InsufficientBalance",
      "type": "error"
    },
    {
      "anonymous": false,
      "inputs": [
        {
          "indexed": true,
          "internalType": "address",
          "name": "creator",
          "type": "address"
        },
        {
          "indexed": false,
          "internalType": "address",
          "name": "campaign",
          "type": "address"
        },
        {
          "indexed": false,
          "internalType": "uint256",
          "name": "createdAt",
          "type": "uint256"
        }
      ],
      "name": "CampaignCreated",
      "type": "event"
    },
    {
      "inputs": [
        {
          "internalType": "uint256",
          "name": "",
          "type": "uint256"
        }
      ],
      "name": "campaigns",
      "outputs": [
        {
          "internalType": "address",
          "name": "",
          "type": "address"
        }
      ],
      "stateMutability": "view",
      "type": "function"
    },
    {
      "inputs": [
        {
          "internalType": "address",
          "name": "",
          "type": "address"
        },
        {
          "internalType": "uint256",
          "name": "",
          "type": "uint256"
        }
      ],
      "name": "campaignsByCreator",
      "outputs": [
        {
          "internalType": "address",
          "name": "",
          "type": "address"
        }
      ],
      "stateMutability": "view",
      "type": "function"
    },
    {
      "inputs": [
        {
          "internalType": "address",
          "name": "payer",
          "type": "address"
        }
      ],
      "name": "collectCreationFee",
      "outputs": [],
      "stateMutability": "nonpayable",
      "type": "function"
    },
    {
      "inputs": [
        {
          "internalType": "address",
          "name": "creator",
          "type": "address"
        },
        {
          "internalType": "uint256",
          "name": "targetAmount",
          "type": "uint256"
        },
        {
          "internalType": "uint256",
          "name": "deadline",
          "type": "uint256"
        },
        {
          "internalType": "string",
          "name": "title",
          "type": "string"
        },
        {
          "internalType": "string",
          "name": "description",
          "type": "string"
        }
      ],
      "name": "createCampaignFor",
      "outputs": [
        {
          "internalType": "address",
          "name": "",
          "type": "address"
        }
      ],
      "stateMutability": "nonpayable",
      "type": "function"
    },
    {
      "inputs": [],
      "name": "creationFee",
      "outputs": [
        {
          "internalType": "uint256",
          "name": "",
          "type": "uint256"
        }
      ],
      "stateMutability": "view",
      "type": "function"
    },
    {
      "inputs": [],
      "name": "getCampaigns",
      "outputs": [
        {
          "internalType": "address[]",
          "name": "",
          "type": "address[]"
        }
      ],
      "stateMutability": "view",
      "type": "function"
    },
    {
      "inputs": [
        {
          "internalType": "address",
          "name": "creator",
          "type": "address"
        }
      ],
      "name": "getCampaignsByCreator",
      "outputs": [
        {
          "internalType": "address[]",
          "name": "",
          "type": "address[]"
        }
      ],
      "stateMutability": "view",
      "type": "function"
    },
    {
      "inputs": [],
      "name": "implementation",
      "outputs": [
        {
          "internalType": "address",
          "name": "",
          "type": "address"
        }
      ],
      "stateMutability": "view",
      "type": "function"
    },
    {
      "inputs": [],
      "name": "owner",
      "outputs": [
        {
          "internalType": "address",
          "name": "",
          "type": "address"
        }
      ],
      "stateMutability": "view",
      "type": "function"
    },
    {
      "inputs": [],
      "name": "treasury",
      "outputs": [
        {
          "internalType": "address",
          "name": "",
          "type": "address"
        }
      ],
      "stateMutability": "view",
      "type": "function"
    },
    {
      "inputs": [],
      "name": "usdc",
      "outputs": [
        {
          "internalType": "contract IERC20",
          "name": "",
          "type": "address"
        }
      ],
      "stateMutability": "view",
      "type": "function"
    }
  ],
  "bytecode": "0x60806040523480156200001157600080fd5b5060405162001386380380620013868339818101604052810190620000379190620001f0565b336000806101000a81548173ffffffffffffffffffffffffffffffffffffffff021916908373ffffffffffffffffffffffffffffffffffffffff16021790555081600160006101000a81548173ffffffffffffffffffffffffffffffffffffffff021916908373ffffffffffffffffffffffffffffffffffffffff16021790555083600260006101000a81548173ffffffffffffffffffffffffffffffffffffffff021916908373ffffffffffffffffffffffffffffffffffffffff16021790555082600360006101000a81548173ffffffffffffffffffffffffffffffffffffffff021916908373ffffffffffffffffffffffffffffffffffffffff160217905550806004819055505050505062000262565b600080fd5b600073ffffffffffffffffffffffffffffffffffffffff82169050919050565b60006200017d8262000150565b9050919050565b6200018f8162000170565b81146200019b57600080fd5b50565b600081519050620001af8162000184565b92915050565b6000819050919050565b620001ca81620001b5565b8114620001d657600080fd5b50565b600081519050620001ea81620001bf565b92915050565b600080600080608085870312156200020d576200020c6200014b565b5b60006200021d878288016200019e565b945050602062000230878288016200019e565b935050604062000243878288016200019e565b92505060606200025687828801620001d9565b91505092959194509250565b61111480620002726000396000f3fe608060405234801561001057600080fd5b50600436106100a95760003560e01c8063a6b0363311610071578063a6b0363314610156578063ba4ea4ae14610174578063bff78481146101a4578063d3914306146101d4578063d5b8d84a146101f0578063dce0b4e414610220576100a9565b8063141961bc146100ae5780633e413bee146100de5780635c60da1b146100fc57806361d027b31461011a5780638da5cb5b14610138575b600080fd5b6100c860048036038101906100c39190610a80565b61023e565b6040516100d59190610aee565b60405180910390f35b6100e661027d565b6040516100f39190610b68565b60405180910390f35b6101046102a3565b6040516101119190610aee565b60405180910390f35b6101226102c9565b60405161012f9190610aee565b60405180910390f35b6101406102ef565b60405161014d9190610aee565b60405180910390f35b61015e610313565b60405161016b9190610c41565b60405180910390f35b61018e60048036038101906101899190610cf4565b6103a1565b60405161019b9190610aee565b60405180910390f35b6101be60048036038101906101b99190610db0565b610675565b6040516101cb9190610aee565b60405180910390f35b6101ee60048036038101906101e99190610df0565b6106c3565b005b61020a60048036038101906102059190610df0565b610861565b6040516102179190610c41565b60405180910390f35b61022861092e565b6040516102359190610e2c565b60405180910390f35b6005818154811061024e57600080fd5b906000526020600020016000915054906101000a900473ffffffffffffffffffffffffffffffffffffffff1681565b600360009054906101000a900473ffffffffffffffffffffffffffffffffffffffff1681565b600260009054906101000a900473ffffffffffffffffffffffffffffffffffffffff1681565b600160009054906101000a900473ffffffffffffffffffffffffffffffffffffffff1681565b60008054906101000a900473ffffffffffffffffffffffffffffffffffffffff1681565b6060600580548060200260200160405190810160405280929190818152602001828054801561039757602002820191906000526020600020905b8160009054906101000a900473ffffffffffffffffffffffffffffffffffffffff1673ffffffffffffffffffffffffffffffffffffffff168152602001906001019080831161034d575b5050505050905090565b6000600160009054906101000a900473ffffffffffffffffffffffffffffffffffffffff1673ffffffffffffffffffffffffffffffffffffffff163373ffffffffffffffffffffffffffffffffffffffff1614610433576040517f08c379a000000000000000000000000000000000000000000000000000000000815260040161042a90610ea4565b60405180910390fd5b6000610476600260009054906101000a900473ffffffffffffffffffffffffffffffffffffffff1673ffffffffffffffffffffffffffffffffffffffff16610934565b90508073ffffffffffffffffffffffffffffffffffffffff1663e001ff528a600360009054906101000a900473ffffffffffffffffffffffffffffffffffffffff168b8b8b8b8b8b6040518963ffffffff1660e01b81526004016104e1989796959493929190610f11565b600060405180830381600087803b1580156104fb57600080fd5b505af115801561050f573d6000803e3d6000fd5b505050506005819080600181540180825580915050600190039060005260206000200160009091909190916101000a81548173ffffffffffffffffffffffffffffffffffffffff021916908373ffffffffffffffffffffffffffffffffffffffff160217905550600660008a73ffffffffffffffffffffffffffffffffffffffff1673ffffffffffffffffffffffffffffffffffffffff168152602001908152602001600020819080600181540180825580915050600190039060005260206000200160009091909190916101000a81548173ffffffffffffffffffffffffffffffffffffffff021916908373ffffffffffffffffffffffffffffffffffffffff1602179055508873ffffffffffffffffffffffffffffffffffffffff167fc5099b671a0e7e75b6a5d731232dc609f91567fd0a1fb5921f49ee14d60a13b9824260405161065e929190610f84565b60405180910390a280915050979650505050505050565b6006602052816000526040600020818154811061069157600080fd5b906000526020600020016000915091509054906101000a900473ffffffffffffffffffffffffffffffffffffffff1681565b600160009054906101000a900473ffffffffffffffffffffffffffffffffffffffff1673ffffffffffffffffffffffffffffffffffffffff163373ffffffffffffffffffffffffffffffffffffffff1614610753576040517f08c379a000000000000000000000000000000000000000000000000000000000815260040161074a90610ea4565b60405180910390fd5b6000600360009054906101000a900473ffffffffffffffffffffffffffffffffffffffff1673ffffffffffffffffffffffffffffffffffffffff166323b872dd83600160009054906101000a900473ffffffffffffffffffffffffffffffffffffffff166004546040518463ffffffff1660e01b81526004016107d893929190610fad565b6020604051808303816000875af11580156107f7573d6000803e3d6000fd5b505050506040513d601f19601f8201168201806040525081019061081b919061101c565b90508061085d576040517f08c379a000000000000000000000000000000000000000000000000000000000815260040161085490611095565b60405180910390fd5b5050565b6060600660008373ffffffffffffffffffffffffffffffffffffffff1673ffffffffffffffffffffffffffffffffffffffff16815260200190815260200160002080548060200260200160405190810160405280929190818152602001828054801561092257602002820191906000526020600020905b8160009054906101000a900473ffffffffffffffffffffffffffffffffffffffff1673ffffffffffffffffffffffffffffffffffffffff16815260200190600101908083116108d8575b50505050509050919050565b60045481565b6000610941826000610948565b9050919050565b6000814710156109915747826040517fcf4791810000000000000000000000000000000000000000000000000000000081526004016109889291906110b5565b60405180910390fd5b763d602d80600a3d3981f3363d3d373d3d3d363d730000008360601b60e81c176000526e5af43d82803e903d91602b57fd5bf38360781b176020526037600983f09050600073ffffffffffffffffffffffffffffffffffffffff168173ffffffffffffffffffffffffffffffffffffffff1603610a3a576040517fb06ebf3d00000000000000000000000000000000000000000000000000000000815260040160405180910390fd5b92915050565b600080fd5b600080fd5b6000819050919050565b610a5d81610a4a565b8114610a6857600080fd5b50565b600081359050610a7a81610a54565b92915050565b600060208284031215610a9657610a95610a40565b5b6000610aa484828501610a6b565b91505092915050565b600073ffffffffffffffffffffffffffffffffffffffff82169050919050565b6000610ad882610aad565b9050919050565b610ae881610acd565b82525050565b6000602082019050610b036000830184610adf565b92915050565b6000819050919050565b6000610b2e610b29610b2484610aad565b610b09565b610aad565b9050919050565b6000610b4082610b13565b9050919050565b6000610b5282610b35565b9050919050565b610b6281610b47565b82525050565b6000602082019050610b7d6000830184610b59565b92915050565b600081519050919050565b600082825260208201905092915050565b6000819050602082019050919050565b610bb881610acd565b82525050565b6000610bca8383610baf565b60208301905092915050565b6000602082019050919050565b6000610bee82610b83565b610bf88185610b8e565b9350610c0383610b9f565b8060005b83811015610c34578151610c1b8882610bbe565b9750610c2683610bd6565b925050600181019050610c07565b5085935050505092915050565b60006020820190508181036000830152610c5b8184610be3565b905092915050565b610c6c81610acd565b8114610c7757600080fd5b50565b600081359050610c8981610c63565b92915050565b600080fd5b600080fd5b600080fd5b60008083601f840112610cb457610cb3610c8f565b5b8235905067ffffffffffffffff811115610cd157610cd0610c94565b5b602083019150836001820283011115610ced57610cec610c99565b5b9250929050565b600080600080600080600060a0888a031215610d1357610d12610a40565b5b6000610d218a828b01610c7a565b9750506020610d328a828b01610a6b565b9650506040610d438a828b01610a6b565b955050606088013567ffffffffffffffff811115610d6457610d63610a45565b5b610d708a828b01610c9e565b9450945050608088013567ffffffffffffffff811115610d9357610d92610a45565b5b610d9f8a828b01610c9e565b925092505092959891949750929550565b60008060408385031215610dc757610dc6610a40565b5b6000610dd585828601610c7a565b9250506020610de685828601610a6b565b9150509250929050565b600060208284031215610e0657610e05610a40565b5b6000610e1484828501610c7a565b91505092915050565b610e2681610a4a565b82525050565b6000602082019050610e416000830184610e1d565b92915050565b600082825260208201905092915050565b7f5472656173757279206f6e6c7900000000000000000000000000000000000000600082015250565b6000610e8e600d83610e47565b9150610e9982610e58565b602082019050919050565b60006020820190508181036000830152610ebd81610e81565b9050919050565b82818337600083830152505050565b6000601f19601f8301169050919050565b6000610ef08385610e47565b9350610efd838584610ec4565b610f0683610ed3565b840190509392505050565b600060c082019050610f26600083018b610adf565b610f33602083018a610adf565b610f406040830189610e1d565b610f4d6060830188610e1d565b8181036080830152610f60818688610ee4565b905081810360a0830152610f75818486610ee4565b90509998505050505050505050565b6000604082019050610f996000830185610adf565b610fa66020830184610e1d565b9392505050565b6000606082019050610fc26000830186610adf565b610fcf6020830185610adf565b610fdc6040830184610e1d565b949350505050565b60008115159050919050565b610ff981610fe4565b811461100457600080fd5b50565b60008151905061101681610ff0565b92915050565b60006020828403121561103257611031610a40565b5b600061104084828501611007565b91505092915050565b7f466565206661696c656400000000000000000000000000000000000000000000600082015250565b600061107f600a83610e47565b915061108a82611049565b602082019050919050565b600060208201905081810360008301526110ae81611072565b9050919050565b60006040820190506110ca6000830185610e1d565b6110d76020830184610e1d565b939250505056fea2646970667358221220511a3a2883b79fd235e384d3aaf9018c1dc7c2679dcdd8ac30e848fcfa90eee764736f6c63430008180033",
  "linkReferences": {},
  "deployedLinkReferences": {}
}