{
  "_format": "hh-sol-artifact-1",
  "contractName": "CrowdfundingFactory",
  "sourceName": "contracts/CrowdfundingFactory.sol",
  "abi": [
    {
      "inputs": [
        {
          "internalType": "address",
          "name": "_implementation",
          "type": "address"
        },
        {
          "internalType": "address",
          "name": "_usdc",
          "type": "address"
        },
        {
          "internalType": "address",
          "name": "_treasury",
          "type": "address"
        },
        {
          "internalType": "uint256",
          "name": "_creationFee",
          "type": "uint256"
        }
      ],
      "stateMutability": "nonpayable",
      "type": "constructor"
    },
    {
      "inputs": [],
      "name": "FailedDeployment",
      "type": "error"
    },
    {
      "inputs": [
        {
          "internalType": "uint256",
          "name": "balance",
          "type": "uint256"
        },
        {
          "internalType": "uint256",
          "name": "needed",
          "type": "uint256"
        }
      ],
      "name": "InsufficientBalance",
      "type": "error"
    },
    {
      "anonymous": false,
      "inputs": [
        {
          "indexed": true,
          "internalType": "address",
          "name": "creator",
          "type": "address"
        },
        {
          "indexed": false,
          "internalType": "address",
          "name": "campaign",
          "type": "address"
        },
        {
          "indexed": false,
          "internalType": "uint256",
          "name": "createdAt",
          "type": "uint256"
        }
      ],
      "name": "CampaignCreated",
      "type": "event"
    },
    {
      "inputs": [
        {
          "internalType": "uint256",
          "name": "",
          "type": "uint256"
        }
      ],
      "name": "campaigns",
      "outputs": [
        {
          "internalType": "address",
          "name": "",
          "type": "address"
        }
      ],
      "stateMutability": "view",
      "type": "function"
    },
    {
      "inputs": [
        {
          "internalType": "address",
          "name": "",
          "type": "address"
        },
        {
          "internalType": "uint256",
          "name": "",
          "type": "uint256"
        }
      ],
      "name": "campaignsByCreator",
      "outputs": [
        {
          "internalType": "address",
          "name": "",
          "type": "address"
        }
      ],
      "stateMutability": "view",
      "type": "function"
    },
    {
      "inputs": [
        {
          "internalType": "address",
          "name": "payer",
          "type": "address"
        }
      ],
      "name": "collectCreationFee",
      "outputs": [],
      "stateMutability": "nonpayable",
      "type": "function"
    },
    {
      "inputs": [
        {
          "internalType": "address",
          "name": "creator",
          "type": "address"
        },
        {
          "internalType": "uint256",
          "name": "targetAmount",
          "type": "uint256"
        },
        {
          "internalType": "uint256",
          "name": "deadline",
          "type": "uint256"
        },
        {
          "internalType": "string",
          "name": "title",
          "type": "string"
        },
        {
          "internalType": "string",
          "name": "description",
          "type": "string"
        },
        {
          "internalType": "string",
          "name": "category",
          "type": "string"
        }
      ],
      "name": "createCampaignFor",
      "outputs": [
        {
          "internalType": "address",
          "name": "",
          "type": "address"
        }
      ],
      "stateMutability": "nonpayable",
      "type": "function"
    },
    {
      "inputs": [],
      "name": "creationFee",
      "outputs": [
        {
          "internalType": "uint256",
          "name": "",
          "type": "uint256"
        }
      ],
      "stateMutability": "view",
      "type": "function"
    },
    {
      "inputs": [],
      "name": "getCampaigns",
      "outputs": [
        {
          "internalType": "address[]",
          "name": "",
          "type": "address[]"
        }
      ],
      "stateMutability": "view",
      "type": "function"
    },
    {
      "inputs": [
        {
          "internalType": "address",
          "name": "creator",
          "type": "address"
        }
      ],
      "name": "getCampaignsByCreator",
      "outputs": [
        {
          "internalType": "address[]",
          "name": "",
          "type": "address[]"
        }
      ],
      "stateMutability": "view",
      "type": "function"
    },
    {
      "inputs": [],
      "name": "implementation",
      "outputs": [
        {
          "internalType": "address",
          "name": "",
          "type": "address"
        }
      ],
      "stateMutability": "view",
      "type": "function"
    },
    {
      "inputs": [],
      "name": "owner",
      "outputs": [
        {
          "internalType": "address",
          "name": "",
          "type": "address"
        }
      ],
      "stateMutability": "view",
      "type": "function"
    },
    {
      "inputs": [],
      "name": "treasury",
      "outputs": [
        {
          "internalType": "address",
          "name": "",
          "type": "address"
        }
      ],
      "stateMutability": "view",
      "type": "function"
    },
    {
      "inputs": [
        {
          "internalType": "address",
          "name": "newImplementation",
          "type": "address"
        }
      ],
      "name": "updateImplementation",
      "outputs": [],
      "stateMutability": "nonpayable",
      "type": "function"
    },
    {
      "inputs": [],
      "name": "usdc",
      "outputs": [
        {
          "internalType": "contract IERC20",
          "name": "",
          "type": "address"
        }
      ],
      "stateMutability": "view",
      "type": "function"
    }
  ],
  "bytecode": "0x60806040523480156200001157600080fd5b506040516200156e3803806200156e8339818101604052810190620000379190620001f0565b336000806101000a81548173ffffffffffffffffffffffffffffffffffffffff021916908373ffffffffffffffffffffffffffffffffffffffff16021790555081600160006101000a81548173ffffffffffffffffffffffffffffffffffffffff021916908373ffffffffffffffffffffffffffffffffffffffff16021790555083600260006101000a81548173ffffffffffffffffffffffffffffffffffffffff021916908373ffffffffffffffffffffffffffffffffffffffff16021790555082600360006101000a81548173ffffffffffffffffffffffffffffffffffffffff021916908373ffffffffffffffffffffffffffffffffffffffff160217905550806004819055505050505062000262565b600080fd5b600073ffffffffffffffffffffffffffffffffffffffff82169050919050565b60006200017d8262000150565b9050919050565b6200018f8162000170565b81146200019b57600080fd5b50565b600081519050620001af8162000184565b92915050565b6000819050919050565b620001ca81620001b5565b8114620001d657600080fd5b50565b600081519050620001ea81620001bf565b92915050565b600080600080608085870312156200020d576200020c6200014b565b5b60006200021d878288016200019e565b945050602062000230878288016200019e565b935050604062000243878288016200019e565b92505060606200025687828801620001d9565b91505092959194509250565b6112fc80620002726000396000f3fe608060405234801561001057600080fd5b50600436106100b45760003560e01c80638da5cb5b116100715780638da5cb5b1461018f578063a6b03633146101ad578063bff78481146101cb578063d3914306146101fb578063d5b8d84a14610217578063dce0b4e414610247576100b4565b8063025b22bc146100b9578063141961bc146100d55780633ca23cfe146101055780633e413bee146101355780635c60da1b1461015357806361d027b314610171575b600080fd5b6100d360048036038101906100ce9190610bcb565b610265565b005b6100ef60048036038101906100ea9190610c2e565b610337565b6040516100fc9190610c6a565b60405180910390f35b61011f600480360381019061011a9190610cea565b610376565b60405161012c9190610c6a565b60405180910390f35b61013d610674565b60405161014a9190610e38565b60405180910390f35b61015b61069a565b6040516101689190610c6a565b60405180910390f35b6101796106c0565b6040516101869190610c6a565b60405180910390f35b6101976106e6565b6040516101a49190610c6a565b60405180910390f35b6101b561070a565b6040516101c29190610f11565b60405180910390f35b6101e560048036038101906101e09190610f33565b610798565b6040516101f29190610c6a565b60405180910390f35b61021560048036038101906102109190610bcb565b6107e6565b005b610231600480360381019061022c9190610bcb565b610984565b60405161023e9190610f11565b60405180910390f35b61024f610a51565b60405161025c9190610f82565b60405180910390f35b60008054906101000a900473ffffffffffffffffffffffffffffffffffffffff1673ffffffffffffffffffffffffffffffffffffffff163373ffffffffffffffffffffffffffffffffffffffff16146102f3576040517f08c379a00000000000000000000000000000000000000000000000000000000081526004016102ea90610ffa565b60405180910390fd5b80600260006101000a81548173ffffffffffffffffffffffffffffffffffffffff021916908373ffffffffffffffffffffffffffffffffffffffff16021790555050565b6005818154811061034757600080fd5b906000526020600020016000915054906101000a900473ffffffffffffffffffffffffffffffffffffffff1681565b6000600160009054906101000a900473ffffffffffffffffffffffffffffffffffffffff1673ffffffffffffffffffffffffffffffffffffffff163373ffffffffffffffffffffffffffffffffffffffff1614610408576040517f08c379a00000000000000000000000000000000000000000000000000000000081526004016103ff90611066565b60405180910390fd5b600061044b600260009054906101000a900473ffffffffffffffffffffffffffffffffffffffff1673ffffffffffffffffffffffffffffffffffffffff16610a57565b90508073ffffffffffffffffffffffffffffffffffffffff1663bbe142cd8c600160009054906101000a900473ffffffffffffffffffffffffffffffffffffffff16600360009054906101000a900473ffffffffffffffffffffffffffffffffffffffff168e8e8e8e8e8e8e8e6040518c63ffffffff1660e01b81526004016104de9b9a999897969594939291906110d3565b600060405180830381600087803b1580156104f857600080fd5b505af115801561050c573d6000803e3d6000fd5b505050506005819080600181540180825580915050600190039060005260206000200160009091909190916101000a81548173ffffffffffffffffffffffffffffffffffffffff021916908373ffffffffffffffffffffffffffffffffffffffff160217905550600660008c73ffffffffffffffffffffffffffffffffffffffff1673ffffffffffffffffffffffffffffffffffffffff168152602001908152602001600020819080600181540180825580915050600190039060005260206000200160009091909190916101000a81548173ffffffffffffffffffffffffffffffffffffffff021916908373ffffffffffffffffffffffffffffffffffffffff1602179055508a73ffffffffffffffffffffffffffffffffffffffff167fc5099b671a0e7e75b6a5d731232dc609f91567fd0a1fb5921f49ee14d60a13b9824260405161065b92919061116c565b60405180910390a2809150509998505050505050505050565b600360009054906101000a900473ffffffffffffffffffffffffffffffffffffffff1681565b600260009054906101000a900473ffffffffffffffffffffffffffffffffffffffff1681565b600160009054906101000a900473ffffffffffffffffffffffffffffffffffffffff1681565b60008054906101000a900473ffffffffffffffffffffffffffffffffffffffff1681565b6060600580548060200260200160405190810160405280929190818152602001828054801561078e57602002820191906000526020600020905b8160009054906101000a900473ffffffffffffffffffffffffffffffffffffffff1673ffffffffffffffffffffffffffffffffffffffff1681526020019060010190808311610744575b5050505050905090565b600660205281600052604060002081815481106107b457600080fd5b906000526020600020016000915091509054906101000a900473ffffffffffffffffffffffffffffffffffffffff1681565b600160009054906101000a900473ffffffffffffffffffffffffffffffffffffffff1673ffffffffffffffffffffffffffffffffffffffff163373ffffffffffffffffffffffffffffffffffffffff1614610876576040517f08c379a000000000000000000000000000000000000000000000000000000000815260040161086d90611066565b60405180910390fd5b6000600360009054906101000a900473ffffffffffffffffffffffffffffffffffffffff1673ffffffffffffffffffffffffffffffffffffffff166323b872dd83600160009054906101000a900473ffffffffffffffffffffffffffffffffffffffff166004546040518463ffffffff1660e01b81526004016108fb93929190611195565b6020604051808303816000875af115801561091a573d6000803e3d6000fd5b505050506040513d601f19601f8201168201806040525081019061093e9190611204565b905080610980576040517f08c379a00000000000000000000000000000000000000000000000000000000081526004016109779061127d565b60405180910390fd5b5050565b6060600660008373ffffffffffffffffffffffffffffffffffffffff1673ffffffffffffffffffffffffffffffffffffffff168152602001908152602001600020805480602002602001604051908101604052809291908181526020018280548015610a4557602002820191906000526020600020905b8160009054906101000a900473ffffffffffffffffffffffffffffffffffffffff1673ffffffffffffffffffffffffffffffffffffffff16815260200190600101908083116109fb575b50505050509050919050565b60045481565b6000610a64826000610a6b565b9050919050565b600081471015610ab45747826040517fcf479181000000000000000000000000000000000000000000000000000000008152600401610aab92919061129d565b60405180910390fd5b763d602d80600a3d3981f3363d3d373d3d3d363d730000008360601b60e81c176000526e5af43d82803e903d91602b57fd5bf38360781b176020526037600983f09050600073ffffffffffffffffffffffffffffffffffffffff168173ffffffffffffffffffffffffffffffffffffffff1603610b5d576040517fb06ebf3d00000000000000000000000000000000000000000000000000000000815260040160405180910390fd5b92915050565b600080fd5b600080fd5b600073ffffffffffffffffffffffffffffffffffffffff82169050919050565b6000610b9882610b6d565b9050919050565b610ba881610b8d565b8114610bb357600080fd5b50565b600081359050610bc581610b9f565b92915050565b600060208284031215610be157610be0610b63565b5b6000610bef84828501610bb6565b91505092915050565b6000819050919050565b610c0b81610bf8565b8114610c1657600080fd5b50565b600081359050610c2881610c02565b92915050565b600060208284031215610c4457610c43610b63565b5b6000610c5284828501610c19565b91505092915050565b610c6481610b8d565b82525050565b6000602082019050610c7f6000830184610c5b565b92915050565b600080fd5b600080fd5b600080fd5b60008083601f840112610caa57610ca9610c85565b5b8235905067ffffffffffffffff811115610cc757610cc6610c8a565b5b602083019150836001820283011115610ce357610ce2610c8f565b5b9250929050565b600080600080600080600080600060c08a8c031215610d0c57610d0b610b63565b5b6000610d1a8c828d01610bb6565b9950506020610d2b8c828d01610c19565b9850506040610d3c8c828d01610c19565b97505060608a013567ffffffffffffffff811115610d5d57610d5c610b68565b5b610d698c828d01610c94565b965096505060808a013567ffffffffffffffff811115610d8c57610d8b610b68565b5b610d988c828d01610c94565b945094505060a08a013567ffffffffffffffff811115610dbb57610dba610b68565b5b610dc78c828d01610c94565b92509250509295985092959850929598565b6000819050919050565b6000610dfe610df9610df484610b6d565b610dd9565b610b6d565b9050919050565b6000610e1082610de3565b9050919050565b6000610e2282610e05565b9050919050565b610e3281610e17565b82525050565b6000602082019050610e4d6000830184610e29565b92915050565b600081519050919050565b600082825260208201905092915050565b6000819050602082019050919050565b610e8881610b8d565b82525050565b6000610e9a8383610e7f565b60208301905092915050565b6000602082019050919050565b6000610ebe82610e53565b610ec88185610e5e565b9350610ed383610e6f565b8060005b83811015610f04578151610eeb8882610e8e565b9750610ef683610ea6565b925050600181019050610ed7565b5085935050505092915050565b60006020820190508181036000830152610f2b8184610eb3565b905092915050565b60008060408385031215610f4a57610f49610b63565b5b6000610f5885828601610bb6565b9250506020610f6985828601610c19565b9150509250929050565b610f7c81610bf8565b82525050565b6000602082019050610f976000830184610f73565b92915050565b600082825260208201905092915050565b7f4f776e6572206f6e6c7900000000000000000000000000000000000000000000600082015250565b6000610fe4600a83610f9d565b9150610fef82610fae565b602082019050919050565b6000602082019050818103600083015261101381610fd7565b9050919050565b7f5472656173757279206f6e6c7900000000000000000000000000000000000000600082015250565b6000611050600d83610f9d565b915061105b8261101a565b602082019050919050565b6000602082019050818103600083015261107f81611043565b9050919050565b82818337600083830152505050565b6000601f19601f8301169050919050565b60006110b28385610f9d565b93506110bf838584611086565b6110c883611095565b840190509392505050565b6000610100820190506110e9600083018e610c5b565b6110f6602083018d610c5b565b611103604083018c610c5b565b611110606083018b610f73565b61111d608083018a610f73565b81810360a083015261113081888a6110a6565b905081810360c08301526111458186886110a6565b905081810360e083015261115a8184866110a6565b90509c9b505050505050505050505050565b60006040820190506111816000830185610c5b565b61118e6020830184610f73565b9392505050565b60006060820190506111aa6000830186610c5b565b6111b76020830185610c5b565b6111c46040830184610f73565b949350505050565b60008115159050919050565b6111e1816111cc565b81146111ec57600080fd5b50565b6000815190506111fe816111d8565b92915050565b60006020828403121561121a57611219610b63565b5b6000611228848285016111ef565b91505092915050565b7f466565206661696c656400000000000000000000000000000000000000000000600082015250565b6000611267600a83610f9d565b915061127282611231565b602082019050919050565b600060208201905081810360008301526112968161125a565b9050919050565b60006040820190506112b26000830185610f73565b6112bf6020830184610f73565b939250505056fea264697066735822122050b3a36d43da277d27a39e4f89a277ccedebf013f55dc5e4070a759ed50a13af64736f6c63430008180033",
  "linkReferences": {},
  "deployedLinkReferences": {}
}