{
  "_format": "hh-sol-artifact-1",
  "contractName": "CrowdfundingFactory",
  "sourceName": "contracts/CrowdfundingFactory.sol",
  "abi": [
    {
      "inputs": [
        {
          "internalType": "address",
          "name": "_implementation",
          "type": "address"
        },
        {
          "internalType": "address",
          "name": "_usdc",
          "type": "address"
        },
        {
          "internalType": "address",
          "name": "_treasury",
          "type": "address"
        },
        {
          "internalType": "uint256",
          "name": "_creationFee",
          "type": "uint256"
        }
      ],
      "stateMutability": "nonpayable",
      "type": "constructor"
    },
    {
      "inputs": [],
      "name": "FailedDeployment",
      "type": "error"
    },
    {
      "inputs": [
        {
          "internalType": "uint256",
          "name": "balance",
          "type": "uint256"
        },
        {
          "internalType": "uint256",
          "name": "needed",
          "type": "uint256"
        }
      ],
      "name": "InsufficientBalance",
      "type": "error"
    },
    {
      "anonymous": false,
      "inputs": [
        {
          "indexed": true,
          "internalType": "address",
          "name": "creator",
          "type": "address"
        },
        {
          "indexed": false,
          "internalType": "address",
          "name": "campaign",
          "type": "address"
        },
        {
          "indexed": false,
          "internalType": "uint256",
          "name": "createdAt",
          "type": "uint256"
        }
      ],
      "name": "CampaignCreated",
      "type": "event"
    },
    {
      "inputs": [
        {
          "internalType": "uint256",
          "name": "",
          "type": "uint256"
        }
      ],
      "name": "campaigns",
      "outputs": [
        {
          "internalType": "address",
          "name": "",
          "type": "address"
        }
      ],
      "stateMutability": "view",
      "type": "function"
    },
    {
      "inputs": [
        {
          "internalType": "address",
          "name": "",
          "type": "address"
        },
        {
          "internalType": "uint256",
          "name": "",
          "type": "uint256"
        }
      ],
      "name": "campaignsByCreator",
      "outputs": [
        {
          "internalType": "address",
          "name": "",
          "type": "address"
        }
      ],
      "stateMutability": "view",
      "type": "function"
    },
    {
      "inputs": [
        {
          "internalType": "address",
          "name": "payer",
          "type": "address"
        }
      ],
      "name": "collectCreationFee",
      "outputs": [],
      "stateMutability": "nonpayable",
      "type": "function"
    },
    {
      "inputs": [
        {
          "internalType": "address",
          "name": "creator",
          "type": "address"
        },
        {
          "internalType": "uint256",
          "name": "targetAmount",
          "type": "uint256"
        },
        {
          "internalType": "uint256",
          "name": "deadline",
          "type": "uint256"
        },
        {
          "internalType": "string",
          "name": "title",
          "type": "string"
        },
        {
          "internalType": "string",
          "name": "description",
          "type": "string"
        }
      ],
      "name": "createCampaignFor",
      "outputs": [
        {
          "internalType": "address",
          "name": "",
          "type": "address"
        }
      ],
      "stateMutability": "nonpayable",
      "type": "function"
    },
    {
      "inputs": [],
      "name": "creationFee",
      "outputs": [
        {
          "internalType": "uint256",
          "name": "",
          "type": "uint256"
        }
      ],
      "stateMutability": "view",
      "type": "function"
    },
    {
      "inputs": [],
      "name": "getCampaigns",
      "outputs": [
        {
          "internalType": "address[]",
          "name": "",
          "type": "address[]"
        }
      ],
      "stateMutability": "view",
      "type": "function"
    },
    {
      "inputs": [
        {
          "internalType": "address",
          "name": "creator",
          "type": "address"
        }
      ],
      "name": "getCampaignsByCreator",
      "outputs": [
        {
          "internalType": "address[]",
          "name": "",
          "type": "address[]"
        }
      ],
      "stateMutability": "view",
      "type": "function"
    },
    {
      "inputs": [],
      "name": "implementation",
      "outputs": [
        {
          "internalType": "address",
          "name": "",
          "type": "address"
        }
      ],
      "stateMutability": "view",
      "type": "function"
    },
    {
      "inputs": [],
      "name": "owner",
      "outputs": [
        {
          "internalType": "address",
          "name": "",
          "type": "address"
        }
      ],
      "stateMutability": "view",
      "type": "function"
    },
    {
      "inputs": [],
      "name": "treasury",
      "outputs": [
        {
          "internalType": "address",
          "name": "",
          "type": "address"
        }
      ],
      "stateMutability": "view",
      "type": "function"
    },
    {
      "inputs": [
        {
          "internalType": "address",
          "name": "newImplementation",
          "type": "address"
        }
      ],
      "name": "updateImplementation",
      "outputs": [],
      "stateMutability": "nonpayable",
      "type": "function"
    },
    {
      "inputs": [],
      "name": "usdc",
      "outputs": [
        {
          "internalType": "contract IERC20",
          "name": "",
          "type": "address"
        }
      ],
      "stateMutability": "view",
      "type": "function"
    }
  ],
  "bytecode": "0x60806040523480156200001157600080fd5b50604051620014eb380380620014eb8339818101604052810190620000379190620001f0565b336000806101000a81548173ffffffffffffffffffffffffffffffffffffffff021916908373ffffffffffffffffffffffffffffffffffffffff16021790555081600160006101000a81548173ffffffffffffffffffffffffffffffffffffffff021916908373ffffffffffffffffffffffffffffffffffffffff16021790555083600260006101000a81548173ffffffffffffffffffffffffffffffffffffffff021916908373ffffffffffffffffffffffffffffffffffffffff16021790555082600360006101000a81548173ffffffffffffffffffffffffffffffffffffffff021916908373ffffffffffffffffffffffffffffffffffffffff160217905550806004819055505050505062000262565b600080fd5b600073ffffffffffffffffffffffffffffffffffffffff82169050919050565b60006200017d8262000150565b9050919050565b6200018f8162000170565b81146200019b57600080fd5b50565b600081519050620001af8162000184565b92915050565b6000819050919050565b620001ca81620001b5565b8114620001d657600080fd5b50565b600081519050620001ea81620001bf565b92915050565b600080600080608085870312156200020d576200020c6200014b565b5b60006200021d878288016200019e565b945050602062000230878288016200019e565b935050604062000243878288016200019e565b92505060606200025687828801620001d9565b91505092959194509250565b61127980620002726000396000f3fe608060405234801561001057600080fd5b50600436106100b45760003560e01c8063a6b0363311610071578063a6b036331461017d578063ba4ea4ae1461019b578063bff78481146101cb578063d3914306146101fb578063d5b8d84a14610217578063dce0b4e414610247576100b4565b8063025b22bc146100b9578063141961bc146100d55780633e413bee146101055780635c60da1b1461012357806361d027b3146101415780638da5cb5b1461015f575b600080fd5b6100d360048036038101906100ce9190610ba1565b610265565b005b6100ef60048036038101906100ea9190610c04565b610337565b6040516100fc9190610c40565b60405180910390f35b61010d610376565b60405161011a9190610cba565b60405180910390f35b61012b61039c565b6040516101389190610c40565b60405180910390f35b6101496103c2565b6040516101569190610c40565b60405180910390f35b6101676103e8565b6040516101749190610c40565b60405180910390f35b61018561040c565b6040516101929190610d93565b60405180910390f35b6101b560048036038101906101b09190610e1a565b61049a565b6040516101c29190610c40565b60405180910390f35b6101e560048036038101906101e09190610ed6565b61076e565b6040516101f29190610c40565b60405180910390f35b61021560048036038101906102109190610ba1565b6107bc565b005b610231600480360381019061022c9190610ba1565b61095a565b60405161023e9190610d93565b60405180910390f35b61024f610a27565b60405161025c9190610f25565b60405180910390f35b60008054906101000a900473ffffffffffffffffffffffffffffffffffffffff1673ffffffffffffffffffffffffffffffffffffffff163373ffffffffffffffffffffffffffffffffffffffff16146102f3576040517f08c379a00000000000000000000000000000000000000000000000000000000081526004016102ea90610f9d565b60405180910390fd5b80600260006101000a81548173ffffffffffffffffffffffffffffffffffffffff021916908373ffffffffffffffffffffffffffffffffffffffff16021790555050565b6005818154811061034757600080fd5b906000526020600020016000915054906101000a900473ffffffffffffffffffffffffffffffffffffffff1681565b600360009054906101000a900473ffffffffffffffffffffffffffffffffffffffff1681565b600260009054906101000a900473ffffffffffffffffffffffffffffffffffffffff1681565b600160009054906101000a900473ffffffffffffffffffffffffffffffffffffffff1681565b60008054906101000a900473ffffffffffffffffffffffffffffffffffffffff1681565b6060600580548060200260200160405190810160405280929190818152602001828054801561049057602002820191906000526020600020905b8160009054906101000a900473ffffffffffffffffffffffffffffffffffffffff1673ffffffffffffffffffffffffffffffffffffffff1681526020019060010190808311610446575b5050505050905090565b6000600160009054906101000a900473ffffffffffffffffffffffffffffffffffffffff1673ffffffffffffffffffffffffffffffffffffffff163373ffffffffffffffffffffffffffffffffffffffff161461052c576040517f08c379a000000000000000000000000000000000000000000000000000000000815260040161052390611009565b60405180910390fd5b600061056f600260009054906101000a900473ffffffffffffffffffffffffffffffffffffffff1673ffffffffffffffffffffffffffffffffffffffff16610a2d565b90508073ffffffffffffffffffffffffffffffffffffffff1663e001ff528a600360009054906101000a900473ffffffffffffffffffffffffffffffffffffffff168b8b8b8b8b8b6040518963ffffffff1660e01b81526004016105da989796959493929190611076565b600060405180830381600087803b1580156105f457600080fd5b505af1158015610608573d6000803e3d6000fd5b505050506005819080600181540180825580915050600190039060005260206000200160009091909190916101000a81548173ffffffffffffffffffffffffffffffffffffffff021916908373ffffffffffffffffffffffffffffffffffffffff160217905550600660008a73ffffffffffffffffffffffffffffffffffffffff1673ffffffffffffffffffffffffffffffffffffffff168152602001908152602001600020819080600181540180825580915050600190039060005260206000200160009091909190916101000a81548173ffffffffffffffffffffffffffffffffffffffff021916908373ffffffffffffffffffffffffffffffffffffffff1602179055508873ffffffffffffffffffffffffffffffffffffffff167fc5099b671a0e7e75b6a5d731232dc609f91567fd0a1fb5921f49ee14d60a13b982426040516107579291906110e9565b60405180910390a280915050979650505050505050565b6006602052816000526040600020818154811061078a57600080fd5b906000526020600020016000915091509054906101000a900473ffffffffffffffffffffffffffffffffffffffff1681565b600160009054906101000a900473ffffffffffffffffffffffffffffffffffffffff1673ffffffffffffffffffffffffffffffffffffffff163373ffffffffffffffffffffffffffffffffffffffff161461084c576040517f08c379a000000000000000000000000000000000000000000000000000000000815260040161084390611009565b60405180910390fd5b6000600360009054906101000a900473ffffffffffffffffffffffffffffffffffffffff1673ffffffffffffffffffffffffffffffffffffffff166323b872dd83600160009054906101000a900473ffffffffffffffffffffffffffffffffffffffff166004546040518463ffffffff1660e01b81526004016108d193929190611112565b6020604051808303816000875af11580156108f0573d6000803e3d6000fd5b505050506040513d601f19601f820116820180604052508101906109149190611181565b905080610956576040517f08c379a000000000000000000000000000000000000000000000000000000000815260040161094d906111fa565b60405180910390fd5b5050565b6060600660008373ffffffffffffffffffffffffffffffffffffffff1673ffffffffffffffffffffffffffffffffffffffff168152602001908152602001600020805480602002602001604051908101604052809291908181526020018280548015610a1b57602002820191906000526020600020905b8160009054906101000a900473ffffffffffffffffffffffffffffffffffffffff1673ffffffffffffffffffffffffffffffffffffffff16815260200190600101908083116109d1575b50505050509050919050565b60045481565b6000610a3a826000610a41565b9050919050565b600081471015610a8a5747826040517fcf479181000000000000000000000000000000000000000000000000000000008152600401610a8192919061121a565b60405180910390fd5b763d602d80600a3d3981f3363d3d373d3d3d363d730000008360601b60e81c176000526e5af43d82803e903d91602b57fd5bf38360781b176020526037600983f09050600073ffffffffffffffffffffffffffffffffffffffff168173ffffffffffffffffffffffffffffffffffffffff1603610b33576040517fb06ebf3d00000000000000000000000000000000000000000000000000000000815260040160405180910390fd5b92915050565b600080fd5b600080fd5b600073ffffffffffffffffffffffffffffffffffffffff82169050919050565b6000610b6e82610b43565b9050919050565b610b7e81610b63565b8114610b8957600080fd5b50565b600081359050610b9b81610b75565b92915050565b600060208284031215610bb757610bb6610b39565b5b6000610bc584828501610b8c565b91505092915050565b6000819050919050565b610be181610bce565b8114610bec57600080fd5b50565b600081359050610bfe81610bd8565b92915050565b600060208284031215610c1a57610c19610b39565b5b6000610c2884828501610bef565b91505092915050565b610c3a81610b63565b82525050565b6000602082019050610c556000830184610c31565b92915050565b6000819050919050565b6000610c80610c7b610c7684610b43565b610c5b565b610b43565b9050919050565b6000610c9282610c65565b9050919050565b6000610ca482610c87565b9050919050565b610cb481610c99565b82525050565b6000602082019050610ccf6000830184610cab565b92915050565b600081519050919050565b600082825260208201905092915050565b6000819050602082019050919050565b610d0a81610b63565b82525050565b6000610d1c8383610d01565b60208301905092915050565b6000602082019050919050565b6000610d4082610cd5565b610d4a8185610ce0565b9350610d5583610cf1565b8060005b83811015610d86578151610d6d8882610d10565b9750610d7883610d28565b925050600181019050610d59565b5085935050505092915050565b60006020820190508181036000830152610dad8184610d35565b905092915050565b600080fd5b600080fd5b600080fd5b60008083601f840112610dda57610dd9610db5565b5b8235905067ffffffffffffffff811115610df757610df6610dba565b5b602083019150836001820283011115610e1357610e12610dbf565b5b9250929050565b600080600080600080600060a0888a031215610e3957610e38610b39565b5b6000610e478a828b01610b8c565b9750506020610e588a828b01610bef565b9650506040610e698a828b01610bef565b955050606088013567ffffffffffffffff811115610e8a57610e89610b3e565b5b610e968a828b01610dc4565b9450945050608088013567ffffffffffffffff811115610eb957610eb8610b3e565b5b610ec58a828b01610dc4565b925092505092959891949750929550565b60008060408385031215610eed57610eec610b39565b5b6000610efb85828601610b8c565b9250506020610f0c85828601610bef565b9150509250929050565b610f1f81610bce565b82525050565b6000602082019050610f3a6000830184610f16565b92915050565b600082825260208201905092915050565b7f4f776e6572206f6e6c7900000000000000000000000000000000000000000000600082015250565b6000610f87600a83610f40565b9150610f9282610f51565b602082019050919050565b60006020820190508181036000830152610fb681610f7a565b9050919050565b7f5472656173757279206f6e6c7900000000000000000000000000000000000000600082015250565b6000610ff3600d83610f40565b9150610ffe82610fbd565b602082019050919050565b6000602082019050818103600083015261102281610fe6565b9050919050565b82818337600083830152505050565b6000601f19601f8301169050919050565b60006110558385610f40565b9350611062838584611029565b61106b83611038565b840190509392505050565b600060c08201905061108b600083018b610c31565b611098602083018a610c31565b6110a56040830189610f16565b6110b26060830188610f16565b81810360808301526110c5818688611049565b905081810360a08301526110da818486611049565b90509998505050505050505050565b60006040820190506110fe6000830185610c31565b61110b6020830184610f16565b9392505050565b60006060820190506111276000830186610c31565b6111346020830185610c31565b6111416040830184610f16565b949350505050565b60008115159050919050565b61115e81611149565b811461116957600080fd5b50565b60008151905061117b81611155565b92915050565b60006020828403121561119757611196610b39565b5b60006111a58482850161116c565b91505092915050565b7f466565206661696c656400000000000000000000000000000000000000000000600082015250565b60006111e4600a83610f40565b91506111ef826111ae565b602082019050919050565b60006020820190508181036000830152611213816111d7565b9050919050565b600060408201905061122f6000830185610f16565b61123c6020830184610f16565b939250505056fea2646970667358221220cc2b7bcd9ac82ea81897ad1ba21ba9272e91fc542f470c3e1779f898a618857264736f6c63430008180033",
  "linkReferences": {},
  "deployedLinkReferences": {}
}