{
  "_format": "hh-sol-artifact-1",
  "contractName": "CrowdfundingFactory",
  "sourceName": "contracts/CrowdfundingFactory.sol",
  "abi": [
    {
      "inputs": [
        {
          "internalType": "address",
          "name": "_implementation",
          "type": "address"
        },
        {
          "internalType": "address",
          "name": "_usdc",
          "type": "address"
        },
        {
          "internalType": "address",
          "name": "_treasury",
          "type": "address"
        },
        {
          "internalType": "uint256",
          "name": "_creationFee",
          "type": "uint256"
        }
      ],
      "stateMutability": "nonpayable",
      "type": "constructor"
    },
    {
      "inputs": [],
      "name": "FailedDeployment",
      "type": "error"
    },
    {
      "inputs": [
        {
          "internalType": "uint256",
          "name": "balance",
          "type": "uint256"
        },
        {
          "internalType": "uint256",
          "name": "needed",
          "type": "uint256"
        }
      ],
      "name": "InsufficientBalance",
      "type": "error"
    },
    {
      "anonymous": false,
      "inputs": [
        {
          "indexed": true,
          "internalType": "address",
          "name": "creator",
          "type": "address"
        },
        {
          "indexed": false,
          "internalType": "address",
          "name": "campaign",
          "type": "address"
        },
        {
          "indexed": false,
          "internalType": "uint256",
          "name": "createdAt",
          "type": "uint256"
        }
      ],
      "name": "CampaignCreated",
      "type": "event"
    },
    {
      "inputs": [
        {
          "internalType": "uint256",
          "name": "",
          "type": "uint256"
        }
      ],
      "name": "campaigns",
      "outputs": [
        {
          "internalType": "address",
          "name": "",
          "type": "address"
        }
      ],
      "stateMutability": "view",
      "type": "function"
    },
    {
      "inputs": [
        {
          "internalType": "address",
          "name": "",
          "type": "address"
        },
        {
          "internalType": "uint256",
          "name": "",
          "type": "uint256"
        }
      ],
      "name": "campaignsByCreator",
      "outputs": [
        {
          "internalType": "address",
          "name": "",
          "type": "address"
        }
      ],
      "stateMutability": "view",
      "type": "function"
    },
    {
      "inputs": [
        {
          "internalType": "address",
          "name": "payer",
          "type": "address"
        }
      ],
      "name": "collectCreationFee",
      "outputs": [],
      "stateMutability": "nonpayable",
      "type": "function"
    },
    {
      "inputs": [
        {
          "internalType": "address",
          "name": "creator",
          "type": "address"
        },
        {
          "internalType": "uint256",
          "name": "targetAmount",
          "type": "uint256"
        },
        {
          "internalType": "uint256",
          "name": "deadline",
          "type": "uint256"
        },
        {
          "internalType": "string",
          "name": "title",
          "type": "string"
        },
        {
          "internalType": "string",
          "name": "description",
          "type": "string"
        }
      ],
      "name": "createCampaignFor",
      "outputs": [
        {
          "internalType": "address",
          "name": "",
          "type": "address"
        }
      ],
      "stateMutability": "nonpayable",
      "type": "function"
    },
    {
      "inputs": [],
      "name": "creationFee",
      "outputs": [
        {
          "internalType": "uint256",
          "name": "",
          "type": "uint256"
        }
      ],
      "stateMutability": "view",
      "type": "function"
    },
    {
      "inputs": [],
      "name": "getCampaigns",
      "outputs": [
        {
          "internalType": "address[]",
          "name": "",
          "type": "address[]"
        }
      ],
      "stateMutability": "view",
      "type": "function"
    },
    {
      "inputs": [
        {
          "internalType": "address",
          "name": "creator",
          "type": "address"
        }
      ],
      "name": "getCampaignsByCreator",
      "outputs": [
        {
          "internalType": "address[]",
          "name": "",
          "type": "address[]"
        }
      ],
      "stateMutability": "view",
      "type": "function"
    },
    {
      "inputs": [],
      "name": "implementation",
      "outputs": [
        {
          "internalType": "address",
          "name": "",
          "type": "address"
        }
      ],
      "stateMutability": "view",
      "type": "function"
    },
    {
      "inputs": [],
      "name": "owner",
      "outputs": [
        {
          "internalType": "address",
          "name": "",
          "type": "address"
        }
      ],
      "stateMutability": "view",
      "type": "function"
    },
    {
      "inputs": [],
      "name": "treasury",
      "outputs": [
        {
          "internalType": "address",
          "name": "",
          "type": "address"
        }
      ],
      "stateMutability": "view",
      "type": "function"
    },
    {
      "inputs": [
        {
          "internalType": "address",
          "name": "newImplementation",
          "type": "address"
        }
      ],
      "name": "updateImplementation",
      "outputs": [],
      "stateMutability": "nonpayable",
      "type": "function"
    },
    {
      "inputs": [],
      "name": "usdc",
      "outputs": [
        {
          "internalType": "contract IERC20",
          "name": "",
          "type": "address"
        }
      ],
      "stateMutability": "view",
      "type": "function"
    }
  ],
  "bytecode": "0x60806040523480156200001157600080fd5b506040516200151d3803806200151d8339818101604052810190620000379190620001f0565b336000806101000a81548173ffffffffffffffffffffffffffffffffffffffff021916908373ffffffffffffffffffffffffffffffffffffffff16021790555081600160006101000a81548173ffffffffffffffffffffffffffffffffffffffff021916908373ffffffffffffffffffffffffffffffffffffffff16021790555083600260006101000a81548173ffffffffffffffffffffffffffffffffffffffff021916908373ffffffffffffffffffffffffffffffffffffffff16021790555082600360006101000a81548173ffffffffffffffffffffffffffffffffffffffff021916908373ffffffffffffffffffffffffffffffffffffffff160217905550806004819055505050505062000262565b600080fd5b600073ffffffffffffffffffffffffffffffffffffffff82169050919050565b60006200017d8262000150565b9050919050565b6200018f8162000170565b81146200019b57600080fd5b50565b600081519050620001af8162000184565b92915050565b6000819050919050565b620001ca81620001b5565b8114620001d657600080fd5b50565b600081519050620001ea81620001bf565b92915050565b600080600080608085870312156200020d576200020c6200014b565b5b60006200021d878288016200019e565b945050602062000230878288016200019e565b935050604062000243878288016200019e565b92505060606200025687828801620001d9565b91505092959194509250565b6112ab80620002726000396000f3fe608060405234801561001057600080fd5b50600436106100b45760003560e01c8063a6b0363311610071578063a6b036331461017d578063ba4ea4ae1461019b578063bff78481146101cb578063d3914306146101fb578063d5b8d84a14610217578063dce0b4e414610247576100b4565b8063025b22bc146100b9578063141961bc146100d55780633e413bee146101055780635c60da1b1461012357806361d027b3146101415780638da5cb5b1461015f575b600080fd5b6100d360048036038101906100ce9190610bc5565b610265565b005b6100ef60048036038101906100ea9190610c28565b610337565b6040516100fc9190610c64565b60405180910390f35b61010d610376565b60405161011a9190610cde565b60405180910390f35b61012b61039c565b6040516101389190610c64565b60405180910390f35b6101496103c2565b6040516101569190610c64565b60405180910390f35b6101676103e8565b6040516101749190610c64565b60405180910390f35b61018561040c565b6040516101929190610db7565b60405180910390f35b6101b560048036038101906101b09190610e3e565b61049a565b6040516101c29190610c64565b60405180910390f35b6101e560048036038101906101e09190610efa565b610792565b6040516101f29190610c64565b60405180910390f35b61021560048036038101906102109190610bc5565b6107e0565b005b610231600480360381019061022c9190610bc5565b61097e565b60405161023e9190610db7565b60405180910390f35b61024f610a4b565b60405161025c9190610f49565b60405180910390f35b60008054906101000a900473ffffffffffffffffffffffffffffffffffffffff1673ffffffffffffffffffffffffffffffffffffffff163373ffffffffffffffffffffffffffffffffffffffff16146102f3576040517f08c379a00000000000000000000000000000000000000000000000000000000081526004016102ea90610fc1565b60405180910390fd5b80600260006101000a81548173ffffffffffffffffffffffffffffffffffffffff021916908373ffffffffffffffffffffffffffffffffffffffff16021790555050565b6005818154811061034757600080fd5b906000526020600020016000915054906101000a900473ffffffffffffffffffffffffffffffffffffffff1681565b600360009054906101000a900473ffffffffffffffffffffffffffffffffffffffff1681565b600260009054906101000a900473ffffffffffffffffffffffffffffffffffffffff1681565b600160009054906101000a900473ffffffffffffffffffffffffffffffffffffffff1681565b60008054906101000a900473ffffffffffffffffffffffffffffffffffffffff1681565b6060600580548060200260200160405190810160405280929190818152602001828054801561049057602002820191906000526020600020905b8160009054906101000a900473ffffffffffffffffffffffffffffffffffffffff1673ffffffffffffffffffffffffffffffffffffffff1681526020019060010190808311610446575b5050505050905090565b6000600160009054906101000a900473ffffffffffffffffffffffffffffffffffffffff1673ffffffffffffffffffffffffffffffffffffffff163373ffffffffffffffffffffffffffffffffffffffff161461052c576040517f08c379a00000000000000000000000000000000000000000000000000000000081526004016105239061102d565b60405180910390fd5b600061056f600260009054906101000a900473ffffffffffffffffffffffffffffffffffffffff1673ffffffffffffffffffffffffffffffffffffffff16610a51565b90508073ffffffffffffffffffffffffffffffffffffffff1663cb7063098a600160009054906101000a900473ffffffffffffffffffffffffffffffffffffffff16600360009054906101000a900473ffffffffffffffffffffffffffffffffffffffff168c8c8c8c8c8c6040518a63ffffffff1660e01b81526004016105fe9998979695949392919061109a565b600060405180830381600087803b15801561061857600080fd5b505af115801561062c573d6000803e3d6000fd5b505050506005819080600181540180825580915050600190039060005260206000200160009091909190916101000a81548173ffffffffffffffffffffffffffffffffffffffff021916908373ffffffffffffffffffffffffffffffffffffffff160217905550600660008a73ffffffffffffffffffffffffffffffffffffffff1673ffffffffffffffffffffffffffffffffffffffff168152602001908152602001600020819080600181540180825580915050600190039060005260206000200160009091909190916101000a81548173ffffffffffffffffffffffffffffffffffffffff021916908373ffffffffffffffffffffffffffffffffffffffff1602179055508873ffffffffffffffffffffffffffffffffffffffff167fc5099b671a0e7e75b6a5d731232dc609f91567fd0a1fb5921f49ee14d60a13b9824260405161077b92919061111b565b60405180910390a280915050979650505050505050565b600660205281600052604060002081815481106107ae57600080fd5b906000526020600020016000915091509054906101000a900473ffffffffffffffffffffffffffffffffffffffff1681565b600160009054906101000a900473ffffffffffffffffffffffffffffffffffffffff1673ffffffffffffffffffffffffffffffffffffffff163373ffffffffffffffffffffffffffffffffffffffff1614610870576040517f08c379a00000000000000000000000000000000000000000000000000000000081526004016108679061102d565b60405180910390fd5b6000600360009054906101000a900473ffffffffffffffffffffffffffffffffffffffff1673ffffffffffffffffffffffffffffffffffffffff166323b872dd83600160009054906101000a900473ffffffffffffffffffffffffffffffffffffffff166004546040518463ffffffff1660e01b81526004016108f593929190611144565b6020604051808303816000875af1158015610914573d6000803e3d6000fd5b505050506040513d601f19601f8201168201806040525081019061093891906111b3565b90508061097a576040517f08c379a00000000000000000000000000000000000000000000000000000000081526004016109719061122c565b60405180910390fd5b5050565b6060600660008373ffffffffffffffffffffffffffffffffffffffff1673ffffffffffffffffffffffffffffffffffffffff168152602001908152602001600020805480602002602001604051908101604052809291908181526020018280548015610a3f57602002820191906000526020600020905b8160009054906101000a900473ffffffffffffffffffffffffffffffffffffffff1673ffffffffffffffffffffffffffffffffffffffff16815260200190600101908083116109f5575b50505050509050919050565b60045481565b6000610a5e826000610a65565b9050919050565b600081471015610aae5747826040517fcf479181000000000000000000000000000000000000000000000000000000008152600401610aa592919061124c565b60405180910390fd5b763d602d80600a3d3981f3363d3d373d3d3d363d730000008360601b60e81c176000526e5af43d82803e903d91602b57fd5bf38360781b176020526037600983f09050600073ffffffffffffffffffffffffffffffffffffffff168173ffffffffffffffffffffffffffffffffffffffff1603610b57576040517fb06ebf3d00000000000000000000000000000000000000000000000000000000815260040160405180910390fd5b92915050565b600080fd5b600080fd5b600073ffffffffffffffffffffffffffffffffffffffff82169050919050565b6000610b9282610b67565b9050919050565b610ba281610b87565b8114610bad57600080fd5b50565b600081359050610bbf81610b99565b92915050565b600060208284031215610bdb57610bda610b5d565b5b6000610be984828501610bb0565b91505092915050565b6000819050919050565b610c0581610bf2565b8114610c1057600080fd5b50565b600081359050610c2281610bfc565b92915050565b600060208284031215610c3e57610c3d610b5d565b5b6000610c4c84828501610c13565b91505092915050565b610c5e81610b87565b82525050565b6000602082019050610c796000830184610c55565b92915050565b6000819050919050565b6000610ca4610c9f610c9a84610b67565b610c7f565b610b67565b9050919050565b6000610cb682610c89565b9050919050565b6000610cc882610cab565b9050919050565b610cd881610cbd565b82525050565b6000602082019050610cf36000830184610ccf565b92915050565b600081519050919050565b600082825260208201905092915050565b6000819050602082019050919050565b610d2e81610b87565b82525050565b6000610d408383610d25565b60208301905092915050565b6000602082019050919050565b6000610d6482610cf9565b610d6e8185610d04565b9350610d7983610d15565b8060005b83811015610daa578151610d918882610d34565b9750610d9c83610d4c565b925050600181019050610d7d565b5085935050505092915050565b60006020820190508181036000830152610dd18184610d59565b905092915050565b600080fd5b600080fd5b600080fd5b60008083601f840112610dfe57610dfd610dd9565b5b8235905067ffffffffffffffff811115610e1b57610e1a610dde565b5b602083019150836001820283011115610e3757610e36610de3565b5b9250929050565b600080600080600080600060a0888a031215610e5d57610e5c610b5d565b5b6000610e6b8a828b01610bb0565b9750506020610e7c8a828b01610c13565b9650506040610e8d8a828b01610c13565b955050606088013567ffffffffffffffff811115610eae57610ead610b62565b5b610eba8a828b01610de8565b9450945050608088013567ffffffffffffffff811115610edd57610edc610b62565b5b610ee98a828b01610de8565b925092505092959891949750929550565b60008060408385031215610f1157610f10610b5d565b5b6000610f1f85828601610bb0565b9250506020610f3085828601610c13565b9150509250929050565b610f4381610bf2565b82525050565b6000602082019050610f5e6000830184610f3a565b92915050565b600082825260208201905092915050565b7f4f776e6572206f6e6c7900000000000000000000000000000000000000000000600082015250565b6000610fab600a83610f64565b9150610fb682610f75565b602082019050919050565b60006020820190508181036000830152610fda81610f9e565b9050919050565b7f5472656173757279206f6e6c7900000000000000000000000000000000000000600082015250565b6000611017600d83610f64565b915061102282610fe1565b602082019050919050565b600060208201905081810360008301526110468161100a565b9050919050565b82818337600083830152505050565b6000601f19601f8301169050919050565b60006110798385610f64565b935061108683858461104d565b61108f8361105c565b840190509392505050565b600060e0820190506110af600083018c610c55565b6110bc602083018b610c55565b6110c9604083018a610c55565b6110d66060830189610f3a565b6110e36080830188610f3a565b81810360a08301526110f681868861106d565b905081810360c083015261110b81848661106d565b90509a9950505050505050505050565b60006040820190506111306000830185610c55565b61113d6020830184610f3a565b9392505050565b60006060820190506111596000830186610c55565b6111666020830185610c55565b6111736040830184610f3a565b949350505050565b60008115159050919050565b6111908161117b565b811461119b57600080fd5b50565b6000815190506111ad81611187565b92915050565b6000602082840312156111c9576111c8610b5d565b5b60006111d78482850161119e565b91505092915050565b7f466565206661696c656400000000000000000000000000000000000000000000600082015250565b6000611216600a83610f64565b9150611221826111e0565b602082019050919050565b6000602082019050818103600083015261124581611209565b9050919050565b60006040820190506112616000830185610f3a565b61126e6020830184610f3a565b939250505056fea26469706673582212207f5aa63d312054bb5308021378b32756d57a09a54a7216b0d5f62cf071d4829564736f6c63430008180033",
  "linkReferences": {},
  "deployedLinkReferences": {}
}