{
  "_format": "hh-sol-artifact-1",
  "contractName": "Campaign",
  "sourceName": "contracts/Campaign.sol",
  "abi": [
    {
      "anonymous": false,
      "inputs": [
        {
          "indexed": true,
          "internalType": "address",
          "name": "contributor",
          "type": "address"
        },
        {
          "indexed": false,
          "internalType": "uint256",
          "name": "amount",
          "type": "uint256"
        }
      ],
      "name": "Deposited",
      "type": "event"
    },
    {
      "anonymous": false,
      "inputs": [
        {
          "indexed": true,
          "internalType": "address",
          "name": "creator",
          "type": "address"
        },
        {
          "indexed": false,
          "internalType": "uint256",
          "name": "amount",
          "type": "uint256"
        }
      ],
      "name": "Withdrawn",
      "type": "event"
    },
    {
      "inputs": [],
      "name": "canWithdraw",
      "outputs": [
        {
          "internalType": "bool",
          "name": "",
          "type": "bool"
        }
      ],
      "stateMutability": "view",
      "type": "function"
    },
    {
      "inputs": [
        {
          "internalType": "address",
          "name": "",
          "type": "address"
        }
      ],
      "name": "contributions",
      "outputs": [
        {
          "internalType": "uint256",
          "name": "",
          "type": "uint256"
        }
      ],
      "stateMutability": "view",
      "type": "function"
    },
    {
      "inputs": [
        {
          "internalType": "uint256",
          "name": "",
          "type": "uint256"
        }
      ],
      "name": "contributors",
      "outputs": [
        {
          "internalType": "address",
          "name": "",
          "type": "address"
        }
      ],
      "stateMutability": "view",
      "type": "function"
    },
    {
      "inputs": [],
      "name": "createdAt",
      "outputs": [
        {
          "internalType": "uint256",
          "name": "",
          "type": "uint256"
        }
      ],
      "stateMutability": "view",
      "type": "function"
    },
    {
      "inputs": [],
      "name": "creator",
      "outputs": [
        {
          "internalType": "address",
          "name": "",
          "type": "address"
        }
      ],
      "stateMutability": "view",
      "type": "function"
    },
    {
      "inputs": [],
      "name": "currentAmount",
      "outputs": [
        {
          "internalType": "uint256",
          "name": "",
          "type": "uint256"
        }
      ],
      "stateMutability": "view",
      "type": "function"
    },
    {
      "inputs": [],
      "name": "deadline",
      "outputs": [
        {
          "internalType": "uint256",
          "name": "",
          "type": "uint256"
        }
      ],
      "stateMutability": "view",
      "type": "function"
    },
    {
      "inputs": [
        {
          "internalType": "uint256",
          "name": "amount",
          "type": "uint256"
        }
      ],
      "name": "deposit",
      "outputs": [],
      "stateMutability": "nonpayable",
      "type": "function"
    },
    {
      "inputs": [
        {
          "internalType": "address",
          "name": "contributor",
          "type": "address"
        },
        {
          "internalType": "uint256",
          "name": "amount",
          "type": "uint256"
        }
      ],
      "name": "depositFor",
      "outputs": [],
      "stateMutability": "nonpayable",
      "type": "function"
    },
    {
      "inputs": [],
      "name": "description",
      "outputs": [
        {
          "internalType": "string",
          "name": "",
          "type": "string"
        }
      ],
      "stateMutability": "view",
      "type": "function"
    },
    {
      "inputs": [],
      "name": "factory",
      "outputs": [
        {
          "internalType": "address",
          "name": "",
          "type": "address"
        }
      ],
      "stateMutability": "view",
      "type": "function"
    },
    {
      "inputs": [],
      "name": "getDetails",
      "outputs": [
        {
          "internalType": "address",
          "name": "",
          "type": "address"
        },
        {
          "internalType": "uint256",
          "name": "",
          "type": "uint256"
        },
        {
          "internalType": "uint256",
          "name": "",
          "type": "uint256"
        },
        {
          "internalType": "uint256",
          "name": "",
          "type": "uint256"
        },
        {
          "internalType": "uint256",
          "name": "",
          "type": "uint256"
        },
        {
          "internalType": "string",
          "name": "",
          "type": "string"
        },
        {
          "internalType": "string",
          "name": "",
          "type": "string"
        },
        {
          "internalType": "bool",
          "name": "",
          "type": "bool"
        },
        {
          "internalType": "uint256",
          "name": "",
          "type": "uint256"
        }
      ],
      "stateMutability": "view",
      "type": "function"
    },
    {
      "inputs": [
        {
          "internalType": "address",
          "name": "_creator",
          "type": "address"
        },
        {
          "internalType": "address",
          "name": "_usdc",
          "type": "address"
        },
        {
          "internalType": "uint256",
          "name": "_targetAmount",
          "type": "uint256"
        },
        {
          "internalType": "uint256",
          "name": "_deadline",
          "type": "uint256"
        },
        {
          "internalType": "string",
          "name": "_title",
          "type": "string"
        },
        {
          "internalType": "string",
          "name": "_description",
          "type": "string"
        }
      ],
      "name": "initialize",
      "outputs": [],
      "stateMutability": "nonpayable",
      "type": "function"
    },
    {
      "inputs": [],
      "name": "targetAmount",
      "outputs": [
        {
          "internalType": "uint256",
          "name": "",
          "type": "uint256"
        }
      ],
      "stateMutability": "view",
      "type": "function"
    },
    {
      "inputs": [],
      "name": "title",
      "outputs": [
        {
          "internalType": "string",
          "name": "",
          "type": "string"
        }
      ],
      "stateMutability": "view",
      "type": "function"
    },
    {
      "inputs": [],
      "name": "usdc",
      "outputs": [
        {
          "internalType": "contract IERC20",
          "name": "",
          "type": "address"
        }
      ],
      "stateMutability": "view",
      "type": "function"
    },
    {
      "inputs": [],
      "name": "withdraw",
      "outputs": [],
      "stateMutability": "nonpayable",
      "type": "function"
    },
    {
      "inputs": [],
      "name": "withdrawn",
      "outputs": [
        {
          "internalType": "bool",
          "name": "",
          "type": "bool"
        }
      ],
      "stateMutability": "view",
      "type": "function"
    }
  ],
  "bytecode": "0x608060405234801561001057600080fd5b50611ffd806100206000396000f3fe608060405234801561001057600080fd5b50600436106101165760003560e01c8063953b8fb8116100a2578063c80ec52211610071578063c80ec522146102ad578063cf09e0d0146102cb578063e001ff52146102e9578063f441b1c814610305578063fbbf93a01461032357610116565b8063953b8fb814610237578063b51459fe14610255578063b6b55f2514610273578063c45a01551461028f57610116565b80633ccfd60b116100e95780633ccfd60b146101a35780633e413bee146101ad57806342e94c90146101cb5780634a79d50c146101fb5780637284e4161461021957610116565b806302d05d3f1461011b57806329dcb0cf146101395780632f4f21e2146101575780633cb5d10014610173575b600080fd5b610123610349565b6040516101309190611253565b60405180910390f35b61014161036f565b60405161014e9190611287565b60405180910390f35b610171600480360381019061016c919061130e565b610375565b005b61018d6004803603810190610188919061134e565b6106fd565b60405161019a9190611253565b60405180910390f35b6101ab61073c565b005b6101b56109ff565b6040516101c291906113da565b60405180910390f35b6101e560048036038101906101e091906113f5565b610a25565b6040516101f29190611287565b60405180910390f35b610203610a3d565b60405161021091906114b2565b60405180910390f35b610221610acb565b60405161022e91906114b2565b60405180910390f35b61023f610b59565b60405161024c9190611287565b60405180910390f35b61025d610b5f565b60405161026a91906114ef565b60405180910390f35b61028d6004803603810190610288919061134e565b610b7b565b005b610297610e54565b6040516102a49190611253565b60405180910390f35b6102b5610e78565b6040516102c291906114ef565b60405180910390f35b6102d3610e8b565b6040516102e09190611287565b60405180910390f35b61030360048036038101906102fe919061163f565b610e91565b005b61030d611080565b60405161031a9190611287565b60405180910390f35b61032b611086565b60405161034099989796959493929190611704565b60405180910390f35b600160009054906101000a900473ffffffffffffffffffffffffffffffffffffffff1681565b60055481565b60008054906101000a900473ffffffffffffffffffffffffffffffffffffffff1673ffffffffffffffffffffffffffffffffffffffff163373ffffffffffffffffffffffffffffffffffffffff1614610403576040517f08c379a00000000000000000000000000000000000000000000000000000000081526004016103fa906117eb565b60405180910390fd5b6005544210610447576040517f08c379a000000000000000000000000000000000000000000000000000000000815260040161043e90611857565b60405180910390fd5b6000811161048a576040517f08c379a0000000000000000000000000000000000000000000000000000000008152600401610481906118c3565b60405180910390fd5b6000600260009054906101000a900473ffffffffffffffffffffffffffffffffffffffff1673ffffffffffffffffffffffffffffffffffffffff166323b872dd60008054906101000a900473ffffffffffffffffffffffffffffffffffffffff1630856040518463ffffffff1660e01b815260040161050b939291906118e3565b6020604051808303816000875af115801561052a573d6000803e3d6000fd5b505050506040513d601f19601f8201168201806040525081019061054e9190611946565b905080610590576040517f08c379a0000000000000000000000000000000000000000000000000000000008152600401610587906119bf565b60405180910390fd5b6000600a60008573ffffffffffffffffffffffffffffffffffffffff1673ffffffffffffffffffffffffffffffffffffffff168152602001908152602001600020540361063b57600b839080600181540180825580915050600190039060005260206000200160009091909190916101000a81548173ffffffffffffffffffffffffffffffffffffffff021916908373ffffffffffffffffffffffffffffffffffffffff1602179055505b81600a60008573ffffffffffffffffffffffffffffffffffffffff1673ffffffffffffffffffffffffffffffffffffffff168152602001908152602001600020600082825461068a9190611a0e565b9250508190555081600460008282546106a39190611a0e565b925050819055508273ffffffffffffffffffffffffffffffffffffffff167f2da466a7b24304f47e87fa2e1e5a81b9831ce54fec19055ce277ca2f39ba42c4836040516106f09190611287565b60405180910390a2505050565b600b818154811061070d57600080fd5b906000526020600020016000915054906101000a900473ffffffffffffffffffffffffffffffffffffffff1681565b600160009054906101000a900473ffffffffffffffffffffffffffffffffffffffff1673ffffffffffffffffffffffffffffffffffffffff163373ffffffffffffffffffffffffffffffffffffffff16146107cc576040517f08c379a00000000000000000000000000000000000000000000000000000000081526004016107c390611a8e565b60405180910390fd5b6107d4610b5f565b610813576040517f08c379a000000000000000000000000000000000000000000000000000000000815260040161080a90611afa565b60405180910390fd5b600960009054906101000a900460ff1615610863576040517f08c379a000000000000000000000000000000000000000000000000000000000815260040161085a90611b66565b60405180910390fd5b6001600960006101000a81548160ff021916908315150217905550600060045490506000600260009054906101000a900473ffffffffffffffffffffffffffffffffffffffff1673ffffffffffffffffffffffffffffffffffffffff1663a9059cbb600160009054906101000a900473ffffffffffffffffffffffffffffffffffffffff16846040518363ffffffff1660e01b8152600401610906929190611b86565b6020604051808303816000875af1158015610925573d6000803e3d6000fd5b505050506040513d601f19601f820116820180604052508101906109499190611946565b90508061098b576040517f08c379a0000000000000000000000000000000000000000000000000000000008152600401610982906119bf565b60405180910390fd5b600160009054906101000a900473ffffffffffffffffffffffffffffffffffffffff1673ffffffffffffffffffffffffffffffffffffffff167f7084f5476618d8e60b11ef0d7d3f06914655adb8793e28ff7f018d4c76d505d5836040516109f39190611287565b60405180910390a25050565b600260009054906101000a900473ffffffffffffffffffffffffffffffffffffffff1681565b600a6020528060005260406000206000915090505481565b60078054610a4a90611bde565b80601f0160208091040260200160405190810160405280929190818152602001828054610a7690611bde565b8015610ac35780601f10610a9857610100808354040283529160200191610ac3565b820191906000526020600020905b815481529060010190602001808311610aa657829003601f168201915b505050505081565b60088054610ad890611bde565b80601f0160208091040260200160405190810160405280929190818152602001828054610b0490611bde565b8015610b515780601f10610b2657610100808354040283529160200191610b51565b820191906000526020600020905b815481529060010190602001808311610b3457829003601f168201915b505050505081565b60035481565b6000600354600454101580610b7657506005544210155b905090565b6005544210610bbf576040517f08c379a0000000000000000000000000000000000000000000000000000000008152600401610bb690611857565b60405180910390fd5b60008111610c02576040517f08c379a0000000000000000000000000000000000000000000000000000000008152600401610bf9906118c3565b60405180910390fd5b6000600260009054906101000a900473ffffffffffffffffffffffffffffffffffffffff1673ffffffffffffffffffffffffffffffffffffffff166323b872dd3330856040518463ffffffff1660e01b8152600401610c63939291906118e3565b6020604051808303816000875af1158015610c82573d6000803e3d6000fd5b505050506040513d601f19601f82011682018060405250810190610ca69190611946565b905080610ce8576040517f08c379a0000000000000000000000000000000000000000000000000000000008152600401610cdf906119bf565b60405180910390fd5b6000600a60003373ffffffffffffffffffffffffffffffffffffffff1673ffffffffffffffffffffffffffffffffffffffff1681526020019081526020016000205403610d9357600b339080600181540180825580915050600190039060005260206000200160009091909190916101000a81548173ffffffffffffffffffffffffffffffffffffffff021916908373ffffffffffffffffffffffffffffffffffffffff1602179055505b81600a60003373ffffffffffffffffffffffffffffffffffffffff1673ffffffffffffffffffffffffffffffffffffffff1681526020019081526020016000206000828254610de29190611a0e565b925050819055508160046000828254610dfb9190611a0e565b925050819055503373ffffffffffffffffffffffffffffffffffffffff167f2da466a7b24304f47e87fa2e1e5a81b9831ce54fec19055ce277ca2f39ba42c483604051610e489190611287565b60405180910390a25050565b60008054906101000a900473ffffffffffffffffffffffffffffffffffffffff1681565b600960009054906101000a900460ff1681565b60065481565b600960019054906101000a900460ff1615610ee1576040517f08c379a0000000000000000000000000000000000000000000000000000000008152600401610ed890611c5b565b60405180910390fd5b428311610f23576040517f08c379a0000000000000000000000000000000000000000000000000000000008152600401610f1a90611cc7565b60405180910390fd5b60008411610f66576040517f08c379a0000000000000000000000000000000000000000000000000000000008152600401610f5d90611d33565b60405180910390fd5b6001600960016101000a81548160ff021916908315150217905550336000806101000a81548173ffffffffffffffffffffffffffffffffffffffff021916908373ffffffffffffffffffffffffffffffffffffffff16021790555085600160006101000a81548173ffffffffffffffffffffffffffffffffffffffff021916908373ffffffffffffffffffffffffffffffffffffffff16021790555084600260006101000a81548173ffffffffffffffffffffffffffffffffffffffff021916908373ffffffffffffffffffffffffffffffffffffffff160217905550836003819055508260058190555081600790816110609190611ef5565b5080600890816110709190611ef5565b5042600681905550505050505050565b60045481565b6000806000806000606080600080600160009054906101000a900473ffffffffffffffffffffffffffffffffffffffff1660035460045460055460065460076008600960009054906101000a900460ff16600b805490508380546110e990611bde565b80601f016020809104026020016040519081016040528092919081815260200182805461111590611bde565b80156111625780601f1061113757610100808354040283529160200191611162565b820191906000526020600020905b81548152906001019060200180831161114557829003601f168201915b5050505050935082805461117590611bde565b80601f01602080910402602001604051908101604052809291908181526020018280546111a190611bde565b80156111ee5780601f106111c3576101008083540402835291602001916111ee565b820191906000526020600020905b8154815290600101906020018083116111d157829003601f168201915b50505050509250985098509850985098509850985098509850909192939495969798565b600073ffffffffffffffffffffffffffffffffffffffff82169050919050565b600061123d82611212565b9050919050565b61124d81611232565b82525050565b60006020820190506112686000830184611244565b92915050565b6000819050919050565b6112818161126e565b82525050565b600060208201905061129c6000830184611278565b92915050565b6000604051905090565b600080fd5b600080fd5b6112bf81611232565b81146112ca57600080fd5b50565b6000813590506112dc816112b6565b92915050565b6112eb8161126e565b81146112f657600080fd5b50565b600081359050611308816112e2565b92915050565b60008060408385031215611325576113246112ac565b5b6000611333858286016112cd565b9250506020611344858286016112f9565b9150509250929050565b600060208284031215611364576113636112ac565b5b6000611372848285016112f9565b91505092915050565b6000819050919050565b60006113a061139b61139684611212565b61137b565b611212565b9050919050565b60006113b282611385565b9050919050565b60006113c4826113a7565b9050919050565b6113d4816113b9565b82525050565b60006020820190506113ef60008301846113cb565b92915050565b60006020828403121561140b5761140a6112ac565b5b6000611419848285016112cd565b91505092915050565b600081519050919050565b600082825260208201905092915050565b60005b8381101561145c578082015181840152602081019050611441565b60008484015250505050565b6000601f19601f8301169050919050565b600061148482611422565b61148e818561142d565b935061149e81856020860161143e565b6114a781611468565b840191505092915050565b600060208201905081810360008301526114cc8184611479565b905092915050565b60008115159050919050565b6114e9816114d4565b82525050565b600060208201905061150460008301846114e0565b92915050565b600080fd5b600080fd5b7f4e487b7100000000000000000000000000000000000000000000000000000000600052604160045260246000fd5b61154c82611468565b810181811067ffffffffffffffff8211171561156b5761156a611514565b5b80604052505050565b600061157e6112a2565b905061158a8282611543565b919050565b600067ffffffffffffffff8211156115aa576115a9611514565b5b6115b382611468565b9050602081019050919050565b82818337600083830152505050565b60006115e26115dd8461158f565b611574565b9050828152602081018484840111156115fe576115fd61150f565b5b6116098482856115c0565b509392505050565b600082601f8301126116265761162561150a565b5b81356116368482602086016115cf565b91505092915050565b60008060008060008060c0878903121561165c5761165b6112ac565b5b600061166a89828a016112cd565b965050602061167b89828a016112cd565b955050604061168c89828a016112f9565b945050606061169d89828a016112f9565b935050608087013567ffffffffffffffff8111156116be576116bd6112b1565b5b6116ca89828a01611611565b92505060a087013567ffffffffffffffff8111156116eb576116ea6112b1565b5b6116f789828a01611611565b9150509295509295509295565b60006101208201905061171a600083018c611244565b611727602083018b611278565b611734604083018a611278565b6117416060830189611278565b61174e6080830188611278565b81810360a08301526117608187611479565b905081810360c08301526117748186611479565b905061178360e08301856114e0565b611791610100830184611278565b9a9950505050505050505050565b7f466163746f7279206f6e6c790000000000000000000000000000000000000000600082015250565b60006117d5600c8361142d565b91506117e08261179f565b602082019050919050565b60006020820190508181036000830152611804816117c8565b9050919050565b7f43616d706169676e20656e646564000000000000000000000000000000000000600082015250565b6000611841600e8361142d565b915061184c8261180b565b602082019050919050565b6000602082019050818103600083015261187081611834565b9050919050565b7f496e76616c696420616d6f756e74000000000000000000000000000000000000600082015250565b60006118ad600e8361142d565b91506118b882611877565b602082019050919050565b600060208201905081810360008301526118dc816118a0565b9050919050565b60006060820190506118f86000830186611244565b6119056020830185611244565b6119126040830184611278565b949350505050565b611923816114d4565b811461192e57600080fd5b50565b6000815190506119408161191a565b92915050565b60006020828403121561195c5761195b6112ac565b5b600061196a84828501611931565b91505092915050565b7f5472616e73666572206661696c65640000000000000000000000000000000000600082015250565b60006119a9600f8361142d565b91506119b482611973565b602082019050919050565b600060208201905081810360008301526119d88161199c565b9050919050565b7f4e487b7100000000000000000000000000000000000000000000000000000000600052601160045260246000fd5b6000611a198261126e565b9150611a248361126e565b9250828201905080821115611a3c57611a3b6119df565b5b92915050565b7f4e6f742063726561746f72000000000000000000000000000000000000000000600082015250565b6000611a78600b8361142d565b9150611a8382611a42565b602082019050919050565b60006020820190508181036000830152611aa781611a6b565b9050919050565b7f43616e6e6f742077697468647261770000000000000000000000000000000000600082015250565b6000611ae4600f8361142d565b9150611aef82611aae565b602082019050919050565b60006020820190508181036000830152611b1381611ad7565b9050919050565b7f416c72656164792077697468647261776e000000000000000000000000000000600082015250565b6000611b5060118361142d565b9150611b5b82611b1a565b602082019050919050565b60006020820190508181036000830152611b7f81611b43565b9050919050565b6000604082019050611b9b6000830185611244565b611ba86020830184611278565b9392505050565b7f4e487b7100000000000000000000000000000000000000000000000000000000600052602260045260246000fd5b60006002820490506001821680611bf657607f821691505b602082108103611c0957611c08611baf565b5b50919050565b7f416c726561647920696e697469616c697a656400000000000000000000000000600082015250565b6000611c4560138361142d565b9150611c5082611c0f565b602082019050919050565b60006020820190508181036000830152611c7481611c38565b9050919050565b7f496e76616c696420646561646c696e6500000000000000000000000000000000600082015250565b6000611cb160108361142d565b9150611cbc82611c7b565b602082019050919050565b60006020820190508181036000830152611ce081611ca4565b9050919050565b7f496e76616c696420746172676574000000000000000000000000000000000000600082015250565b6000611d1d600e8361142d565b9150611d2882611ce7565b602082019050919050565b60006020820190508181036000830152611d4c81611d10565b9050919050565b60008190508160005260206000209050919050565b60006020601f8301049050919050565b600082821b905092915050565b600060088302611db57fffffffffffffffffffffffffffffffffffffffffffffffffffffffffffffffff82611d78565b611dbf8683611d78565b95508019841693508086168417925050509392505050565b6000611df2611ded611de88461126e565b61137b565b61126e565b9050919050565b6000819050919050565b611e0c83611dd7565b611e20611e1882611df9565b848454611d85565b825550505050565b600090565b611e35611e28565b611e40818484611e03565b505050565b5b81811015611e6457611e59600082611e2d565b600181019050611e46565b5050565b601f821115611ea957611e7a81611d53565b611e8384611d68565b81016020851015611e92578190505b611ea6611e9e85611d68565b830182611e45565b50505b505050565b600082821c905092915050565b6000611ecc60001984600802611eae565b1980831691505092915050565b6000611ee58383611ebb565b9150826002028217905092915050565b611efe82611422565b67ffffffffffffffff811115611f1757611f16611514565b5b611f218254611bde565b611f2c828285611e68565b600060209050601f831160018114611f5f5760008415611f4d578287015190505b611f578582611ed9565b865550611fbf565b601f198416611f6d86611d53565b60005b82811015611f9557848901518255600182019150602085019450602081019050611f70565b86831015611fb25784890151611fae601f891682611ebb565b8355505b6001600288020188555050505b50505050505056fea26469706673582212201b598e1fd72c1b27938aa1f04c223c5b4a2793ba3942abb96d67e4e4a76a7d7664736f6c63430008180033",
  "linkReferences": {},
  "deployedLinkReferences": {}
}