{
  "_format": "hh-sol-artifact-1",
  "contractName": "Campaign",
  "sourceName": "contracts/Campaign.sol",
  "abi": [
    {
      "anonymous": false,
      "inputs": [
        {
          "indexed": true,
          "internalType": "address",
          "name": "contributor",
          "type": "address"
        },
        {
          "indexed": false,
          "internalType": "uint256",
          "name": "amount",
          "type": "uint256"
        }
      ],
      "name": "Deposited",
      "type": "event"
    },
    {
      "anonymous": false,
      "inputs": [
        {
          "indexed": true,
          "internalType": "address",
          "name": "creator",
          "type": "address"
        },
        {
          "indexed": false,
          "internalType": "uint256",
          "name": "amount",
          "type": "uint256"
        }
      ],
      "name": "Withdrawn",
      "type": "event"
    },
    {
      "inputs": [],
      "name": "canWithdraw",
      "outputs": [
        {
          "internalType": "bool",
          "name": "",
          "type": "bool"
        }
      ],
      "stateMutability": "view",
      "type": "function"
    },
    {
      "inputs": [
        {
          "internalType": "address",
          "name": "",
          "type": "address"
        }
      ],
      "name": "contributions",
      "outputs": [
        {
          "internalType": "uint256",
          "name": "",
          "type": "uint256"
        }
      ],
      "stateMutability": "view",
      "type": "function"
    },
    {
      "inputs": [
        {
          "internalType": "uint256",
          "name": "",
          "type": "uint256"
        }
      ],
      "name": "contributors",
      "outputs": [
        {
          "internalType": "address",
          "name": "",
          "type": "address"
        }
      ],
      "stateMutability": "view",
      "type": "function"
    },
    {
      "inputs": [],
      "name": "createdAt",
      "outputs": [
        {
          "internalType": "uint256",
          "name": "",
          "type": "uint256"
        }
      ],
      "stateMutability": "view",
      "type": "function"
    },
    {
      "inputs": [],
      "name": "creator",
      "outputs": [
        {
          "internalType": "address",
          "name": "",
          "type": "address"
        }
      ],
      "stateMutability": "view",
      "type": "function"
    },
    {
      "inputs": [
        {
          "internalType": "address",
          "name": "contributor",
          "type": "address"
        },
        {
          "internalType": "uint256",
          "name": "amount",
          "type": "uint256"
        }
      ],
      "name": "creditDeposit",
      "outputs": [],
      "stateMutability": "nonpayable",
      "type": "function"
    },
    {
      "inputs": [],
      "name": "currentAmount",
      "outputs": [
        {
          "internalType": "uint256",
          "name": "",
          "type": "uint256"
        }
      ],
      "stateMutability": "view",
      "type": "function"
    },
    {
      "inputs": [],
      "name": "deadline",
      "outputs": [
        {
          "internalType": "uint256",
          "name": "",
          "type": "uint256"
        }
      ],
      "stateMutability": "view",
      "type": "function"
    },
    {
      "inputs": [
        {
          "internalType": "uint256",
          "name": "amount",
          "type": "uint256"
        }
      ],
      "name": "deposit",
      "outputs": [],
      "stateMutability": "nonpayable",
      "type": "function"
    },
    {
      "inputs": [
        {
          "internalType": "address",
          "name": "contributor",
          "type": "address"
        },
        {
          "internalType": "uint256",
          "name": "amount",
          "type": "uint256"
        }
      ],
      "name": "depositFor",
      "outputs": [],
      "stateMutability": "nonpayable",
      "type": "function"
    },
    {
      "inputs": [],
      "name": "description",
      "outputs": [
        {
          "internalType": "string",
          "name": "",
          "type": "string"
        }
      ],
      "stateMutability": "view",
      "type": "function"
    },
    {
      "inputs": [],
      "name": "factory",
      "outputs": [
        {
          "internalType": "address",
          "name": "",
          "type": "address"
        }
      ],
      "stateMutability": "view",
      "type": "function"
    },
    {
      "inputs": [],
      "name": "getDetails",
      "outputs": [
        {
          "internalType": "address",
          "name": "",
          "type": "address"
        },
        {
          "internalType": "uint256",
          "name": "",
          "type": "uint256"
        },
        {
          "internalType": "uint256",
          "name": "",
          "type": "uint256"
        },
        {
          "internalType": "uint256",
          "name": "",
          "type": "uint256"
        },
        {
          "internalType": "uint256",
          "name": "",
          "type": "uint256"
        },
        {
          "internalType": "string",
          "name": "",
          "type": "string"
        },
        {
          "internalType": "string",
          "name": "",
          "type": "string"
        },
        {
          "internalType": "bool",
          "name": "",
          "type": "bool"
        },
        {
          "internalType": "uint256",
          "name": "",
          "type": "uint256"
        }
      ],
      "stateMutability": "view",
      "type": "function"
    },
    {
      "inputs": [
        {
          "internalType": "address",
          "name": "_creator",
          "type": "address"
        },
        {
          "internalType": "address",
          "name": "_treasury",
          "type": "address"
        },
        {
          "internalType": "address",
          "name": "_usdc",
          "type": "address"
        },
        {
          "internalType": "uint256",
          "name": "_targetAmount",
          "type": "uint256"
        },
        {
          "internalType": "uint256",
          "name": "_deadline",
          "type": "uint256"
        },
        {
          "internalType": "string",
          "name": "_title",
          "type": "string"
        },
        {
          "internalType": "string",
          "name": "_description",
          "type": "string"
        }
      ],
      "name": "initialize",
      "outputs": [],
      "stateMutability": "nonpayable",
      "type": "function"
    },
    {
      "inputs": [],
      "name": "targetAmount",
      "outputs": [
        {
          "internalType": "uint256",
          "name": "",
          "type": "uint256"
        }
      ],
      "stateMutability": "view",
      "type": "function"
    },
    {
      "inputs": [],
      "name": "title",
      "outputs": [
        {
          "internalType": "string",
          "name": "",
          "type": "string"
        }
      ],
      "stateMutability": "view",
      "type": "function"
    },
    {
      "inputs": [],
      "name": "treasury",
      "outputs": [
        {
          "internalType": "address",
          "name": "",
          "type": "address"
        }
      ],
      "stateMutability": "view",
      "type": "function"
    },
    {
      "inputs": [],
      "name": "usdc",
      "outputs": [
        {
          "internalType": "contract IERC20",
          "name": "",
          "type": "address"
        }
      ],
      "stateMutability": "view",
      "type": "function"
    },
    {
      "inputs": [],
      "name": "withdraw",
      "outputs": [],
      "stateMutability": "nonpayable",
      "type": "function"
    },
    {
      "inputs": [
        {
          "internalType": "address",
          "name": "recipient",
          "type": "address"
        }
      ],
      "name": "withdrawTo",
      "outputs": [],
      "stateMutability": "nonpayable",
      "type": "function"
    },
    {
      "inputs": [],
      "name": "withdrawn",
      "outputs": [
        {
          "internalType": "bool",
          "name": "",
          "type": "bool"
        }
      ],
      "stateMutability": "view",
      "type": "function"
    }
  ],
  "bytecode": "0x608060405234801561001057600080fd5b506124df806100206000396000f3fe608060405234801561001057600080fd5b50600436106101375760003560e01c806372b0d90c116100b8578063c80ec5221161007c578063c80ec52214610308578063cb70630914610326578063cf09e0d014610342578063e251f10614610360578063f441b1c81461037c578063fbbf93a01461039a57610137565b806372b0d90c14610276578063953b8fb814610292578063b51459fe146102b0578063b6b55f25146102ce578063c45a0155146102ea57610137565b80633e413bee116100ff5780633e413bee146101ce57806342e94c90146101ec5780634a79d50c1461021c57806361d027b31461023a5780637284e4161461025857610137565b806302d05d3f1461013c57806329dcb0cf1461015a5780632f4f21e2146101785780633cb5d100146101945780633ccfd60b146101c4575b600080fd5b6101446103c0565b6040516101519190611720565b60405180910390f35b6101626103e6565b60405161016f9190611754565b60405180910390f35b610192600480360381019061018d91906117db565b6103ec565b005b6101ae60048036038101906101a9919061181b565b610778565b6040516101bb9190611720565b60405180910390f35b6101cc6107b7565b005b6101d6610a7a565b6040516101e391906118a7565b60405180910390f35b610206600480360381019061020191906118c2565b610aa0565b6040516102139190611754565b60405180910390f35b610224610ab8565b604051610231919061197f565b60405180910390f35b610242610b46565b60405161024f9190611720565b60405180910390f35b610260610b6c565b60405161026d919061197f565b60405180910390f35b610290600480360381019061028b91906118c2565b610bfa565b005b61029a610de8565b6040516102a79190611754565b60405180910390f35b6102b8610dee565b6040516102c591906119bc565b60405180910390f35b6102e860048036038101906102e3919061181b565b610e0a565b005b6102f26110e3565b6040516102ff9190611720565b60405180910390f35b610310611107565b60405161031d91906119bc565b60405180910390f35b610340600480360381019061033b9190611b0c565b61111a565b005b61034a61134b565b6040516103579190611754565b60405180910390f35b61037a600480360381019061037591906117db565b611351565b005b61038461154d565b6040516103919190611754565b60405180910390f35b6103a2611553565b6040516103b799989796959493929190611be6565b60405180910390f35b600260009054906101000a900473ffffffffffffffffffffffffffffffffffffffff1681565b60065481565b600160009054906101000a900473ffffffffffffffffffffffffffffffffffffffff1673ffffffffffffffffffffffffffffffffffffffff163373ffffffffffffffffffffffffffffffffffffffff161461047c576040517f08c379a000000000000000000000000000000000000000000000000000000000815260040161047390611ccd565b60405180910390fd5b60065442106104c0576040517f08c379a00000000000000000000000000000000000000000000000000000000081526004016104b790611d39565b60405180910390fd5b60008111610503576040517f08c379a00000000000000000000000000000000000000000000000000000000081526004016104fa90611da5565b60405180910390fd5b6000600360009054906101000a900473ffffffffffffffffffffffffffffffffffffffff1673ffffffffffffffffffffffffffffffffffffffff166323b872dd600160009054906101000a900473ffffffffffffffffffffffffffffffffffffffff1630856040518463ffffffff1660e01b815260040161058693929190611dc5565b6020604051808303816000875af11580156105a5573d6000803e3d6000fd5b505050506040513d601f19601f820116820180604052508101906105c99190611e28565b90508061060b576040517f08c379a000000000000000000000000000000000000000000000000000000000815260040161060290611ea1565b60405180910390fd5b6000600b60008573ffffffffffffffffffffffffffffffffffffffff1673ffffffffffffffffffffffffffffffffffffffff16815260200190815260200160002054036106b657600c839080600181540180825580915050600190039060005260206000200160009091909190916101000a81548173ffffffffffffffffffffffffffffffffffffffff021916908373ffffffffffffffffffffffffffffffffffffffff1602179055505b81600b60008573ffffffffffffffffffffffffffffffffffffffff1673ffffffffffffffffffffffffffffffffffffffff16815260200190815260200160002060008282546107059190611ef0565b92505081905550816005600082825461071e9190611ef0565b925050819055508273ffffffffffffffffffffffffffffffffffffffff167f2da466a7b24304f47e87fa2e1e5a81b9831ce54fec19055ce277ca2f39ba42c48360405161076b9190611754565b60405180910390a2505050565b600c818154811061078857600080fd5b906000526020600020016000915054906101000a900473ffffffffffffffffffffffffffffffffffffffff1681565b600260009054906101000a900473ffffffffffffffffffffffffffffffffffffffff1673ffffffffffffffffffffffffffffffffffffffff163373ffffffffffffffffffffffffffffffffffffffff1614610847576040517f08c379a000000000000000000000000000000000000000000000000000000000815260040161083e90611f70565b60405180910390fd5b61084f610dee565b61088e576040517f08c379a000000000000000000000000000000000000000000000000000000000815260040161088590611fdc565b60405180910390fd5b600a60009054906101000a900460ff16156108de576040517f08c379a00000000000000000000000000000000000000000000000000000000081526004016108d590612048565b60405180910390fd5b6001600a60006101000a81548160ff021916908315150217905550600060055490506000600360009054906101000a900473ffffffffffffffffffffffffffffffffffffffff1673ffffffffffffffffffffffffffffffffffffffff1663a9059cbb600260009054906101000a900473ffffffffffffffffffffffffffffffffffffffff16846040518363ffffffff1660e01b8152600401610981929190612068565b6020604051808303816000875af11580156109a0573d6000803e3d6000fd5b505050506040513d601f19601f820116820180604052508101906109c49190611e28565b905080610a06576040517f08c379a00000000000000000000000000000000000000000000000000000000081526004016109fd90611ea1565b60405180910390fd5b600260009054906101000a900473ffffffffffffffffffffffffffffffffffffffff1673ffffffffffffffffffffffffffffffffffffffff167f7084f5476618d8e60b11ef0d7d3f06914655adb8793e28ff7f018d4c76d505d583604051610a6e9190611754565b60405180910390a25050565b600360009054906101000a900473ffffffffffffffffffffffffffffffffffffffff1681565b600b6020528060005260406000206000915090505481565b60088054610ac5906120c0565b80601f0160208091040260200160405190810160405280929190818152602001828054610af1906120c0565b8015610b3e5780601f10610b1357610100808354040283529160200191610b3e565b820191906000526020600020905b815481529060010190602001808311610b2157829003601f168201915b505050505081565b600160009054906101000a900473ffffffffffffffffffffffffffffffffffffffff1681565b60098054610b79906120c0565b80601f0160208091040260200160405190810160405280929190818152602001828054610ba5906120c0565b8015610bf25780601f10610bc757610100808354040283529160200191610bf2565b820191906000526020600020905b815481529060010190602001808311610bd557829003601f168201915b505050505081565b600260009054906101000a900473ffffffffffffffffffffffffffffffffffffffff1673ffffffffffffffffffffffffffffffffffffffff163373ffffffffffffffffffffffffffffffffffffffff1614610c8a576040517f08c379a0000000000000000000000000000000000000000000000000000000008152600401610c8190611f70565b60405180910390fd5b610c92610dee565b610cd1576040517f08c379a0000000000000000000000000000000000000000000000000000000008152600401610cc890611fdc565b60405180910390fd5b600a60009054906101000a900460ff1615610d21576040517f08c379a0000000000000000000000000000000000000000000000000000000008152600401610d1890612048565b60405180910390fd5b6001600a60006101000a81548160ff02191690831515021790555060006005549050600360009054906101000a900473ffffffffffffffffffffffffffffffffffffffff1673ffffffffffffffffffffffffffffffffffffffff1663a9059cbb83836040518363ffffffff1660e01b8152600401610da0929190612068565b6020604051808303816000875af1158015610dbf573d6000803e3d6000fd5b505050506040513d601f19601f82011682018060405250810190610de39190611e28565b505050565b60045481565b6000600454600554101580610e0557506006544210155b905090565b6006544210610e4e576040517f08c379a0000000000000000000000000000000000000000000000000000000008152600401610e4590611d39565b60405180910390fd5b60008111610e91576040517f08c379a0000000000000000000000000000000000000000000000000000000008152600401610e8890611da5565b60405180910390fd5b6000600360009054906101000a900473ffffffffffffffffffffffffffffffffffffffff1673ffffffffffffffffffffffffffffffffffffffff166323b872dd3330856040518463ffffffff1660e01b8152600401610ef293929190611dc5565b6020604051808303816000875af1158015610f11573d6000803e3d6000fd5b505050506040513d601f19601f82011682018060405250810190610f359190611e28565b905080610f77576040517f08c379a0000000000000000000000000000000000000000000000000000000008152600401610f6e90611ea1565b60405180910390fd5b6000600b60003373ffffffffffffffffffffffffffffffffffffffff1673ffffffffffffffffffffffffffffffffffffffff168152602001908152602001600020540361102257600c339080600181540180825580915050600190039060005260206000200160009091909190916101000a81548173ffffffffffffffffffffffffffffffffffffffff021916908373ffffffffffffffffffffffffffffffffffffffff1602179055505b81600b60003373ffffffffffffffffffffffffffffffffffffffff1673ffffffffffffffffffffffffffffffffffffffff16815260200190815260200160002060008282546110719190611ef0565b92505081905550816005600082825461108a9190611ef0565b925050819055503373ffffffffffffffffffffffffffffffffffffffff167f2da466a7b24304f47e87fa2e1e5a81b9831ce54fec19055ce277ca2f39ba42c4836040516110d79190611754565b60405180910390a25050565b60008054906101000a900473ffffffffffffffffffffffffffffffffffffffff1681565b600a60009054906101000a900460ff1681565b600a60019054906101000a900460ff161561116a576040517f08c379a00000000000000000000000000000000000000000000000000000000081526004016111619061213d565b60405180910390fd5b4283116111ac576040517f08c379a00000000000000000000000000000000000000000000000000000000081526004016111a3906121a9565b60405180910390fd5b600084116111ef576040517f08c379a00000000000000000000000000000000000000000000000000000000081526004016111e690612215565b60405180910390fd5b6001600a60016101000a81548160ff021916908315150217905550336000806101000a81548173ffffffffffffffffffffffffffffffffffffffff021916908373ffffffffffffffffffffffffffffffffffffffff16021790555086600260006101000a81548173ffffffffffffffffffffffffffffffffffffffff021916908373ffffffffffffffffffffffffffffffffffffffff16021790555085600160006101000a81548173ffffffffffffffffffffffffffffffffffffffff021916908373ffffffffffffffffffffffffffffffffffffffff16021790555084600360006101000a81548173ffffffffffffffffffffffffffffffffffffffff021916908373ffffffffffffffffffffffffffffffffffffffff1602179055508360048190555082600681905550816008908161132a91906123d7565b50806009908161133a91906123d7565b504260078190555050505050505050565b60075481565b600160009054906101000a900473ffffffffffffffffffffffffffffffffffffffff1673ffffffffffffffffffffffffffffffffffffffff163373ffffffffffffffffffffffffffffffffffffffff16146113e1576040517f08c379a00000000000000000000000000000000000000000000000000000000081526004016113d890611ccd565b60405180910390fd5b6000600b60008473ffffffffffffffffffffffffffffffffffffffff1673ffffffffffffffffffffffffffffffffffffffff168152602001908152602001600020540361148c57600c829080600181540180825580915050600190039060005260206000200160009091909190916101000a81548173ffffffffffffffffffffffffffffffffffffffff021916908373ffffffffffffffffffffffffffffffffffffffff1602179055505b80600b60008473ffffffffffffffffffffffffffffffffffffffff1673ffffffffffffffffffffffffffffffffffffffff16815260200190815260200160002060008282546114db9190611ef0565b9250508190555080600560008282546114f49190611ef0565b925050819055508173ffffffffffffffffffffffffffffffffffffffff167f2da466a7b24304f47e87fa2e1e5a81b9831ce54fec19055ce277ca2f39ba42c4826040516115419190611754565b60405180910390a25050565b60055481565b6000806000806000606080600080600260009054906101000a900473ffffffffffffffffffffffffffffffffffffffff1660045460055460065460075460086009600a60009054906101000a900460ff16600c805490508380546115b6906120c0565b80601f01602080910402602001604051908101604052809291908181526020018280546115e2906120c0565b801561162f5780601f106116045761010080835404028352916020019161162f565b820191906000526020600020905b81548152906001019060200180831161161257829003601f168201915b50505050509350828054611642906120c0565b80601f016020809104026020016040519081016040528092919081815260200182805461166e906120c0565b80156116bb5780601f10611690576101008083540402835291602001916116bb565b820191906000526020600020905b81548152906001019060200180831161169e57829003601f168201915b50505050509250985098509850985098509850985098509850909192939495969798565b600073ffffffffffffffffffffffffffffffffffffffff82169050919050565b600061170a826116df565b9050919050565b61171a816116ff565b82525050565b60006020820190506117356000830184611711565b92915050565b6000819050919050565b61174e8161173b565b82525050565b60006020820190506117696000830184611745565b92915050565b6000604051905090565b600080fd5b600080fd5b61178c816116ff565b811461179757600080fd5b50565b6000813590506117a981611783565b92915050565b6117b88161173b565b81146117c357600080fd5b50565b6000813590506117d5816117af565b92915050565b600080604083850312156117f2576117f1611779565b5b60006118008582860161179a565b9250506020611811858286016117c6565b9150509250929050565b60006020828403121561183157611830611779565b5b600061183f848285016117c6565b91505092915050565b6000819050919050565b600061186d611868611863846116df565b611848565b6116df565b9050919050565b600061187f82611852565b9050919050565b600061189182611874565b9050919050565b6118a181611886565b82525050565b60006020820190506118bc6000830184611898565b92915050565b6000602082840312156118d8576118d7611779565b5b60006118e68482850161179a565b91505092915050565b600081519050919050565b600082825260208201905092915050565b60005b8381101561192957808201518184015260208101905061190e565b60008484015250505050565b6000601f19601f8301169050919050565b6000611951826118ef565b61195b81856118fa565b935061196b81856020860161190b565b61197481611935565b840191505092915050565b600060208201905081810360008301526119998184611946565b905092915050565b60008115159050919050565b6119b6816119a1565b82525050565b60006020820190506119d160008301846119ad565b92915050565b600080fd5b600080fd5b7f4e487b7100000000000000000000000000000000000000000000000000000000600052604160045260246000fd5b611a1982611935565b810181811067ffffffffffffffff82111715611a3857611a376119e1565b5b80604052505050565b6000611a4b61176f565b9050611a578282611a10565b919050565b600067ffffffffffffffff821115611a7757611a766119e1565b5b611a8082611935565b9050602081019050919050565b82818337600083830152505050565b6000611aaf611aaa84611a5c565b611a41565b905082815260208101848484011115611acb57611aca6119dc565b5b611ad6848285611a8d565b509392505050565b600082601f830112611af357611af26119d7565b5b8135611b03848260208601611a9c565b91505092915050565b600080600080600080600060e0888a031215611b2b57611b2a611779565b5b6000611b398a828b0161179a565b9750506020611b4a8a828b0161179a565b9650506040611b5b8a828b0161179a565b9550506060611b6c8a828b016117c6565b9450506080611b7d8a828b016117c6565b93505060a088013567ffffffffffffffff811115611b9e57611b9d61177e565b5b611baa8a828b01611ade565b92505060c088013567ffffffffffffffff811115611bcb57611bca61177e565b5b611bd78a828b01611ade565b91505092959891949750929550565b600061012082019050611bfc600083018c611711565b611c09602083018b611745565b611c16604083018a611745565b611c236060830189611745565b611c306080830188611745565b81810360a0830152611c428187611946565b905081810360c0830152611c568186611946565b9050611c6560e08301856119ad565b611c73610100830184611745565b9a9950505050505050505050565b7f5472656173757279206f6e6c7900000000000000000000000000000000000000600082015250565b6000611cb7600d836118fa565b9150611cc282611c81565b602082019050919050565b60006020820190508181036000830152611ce681611caa565b9050919050565b7f43616d706169676e20656e646564000000000000000000000000000000000000600082015250565b6000611d23600e836118fa565b9150611d2e82611ced565b602082019050919050565b60006020820190508181036000830152611d5281611d16565b9050919050565b7f496e76616c696420616d6f756e74000000000000000000000000000000000000600082015250565b6000611d8f600e836118fa565b9150611d9a82611d59565b602082019050919050565b60006020820190508181036000830152611dbe81611d82565b9050919050565b6000606082019050611dda6000830186611711565b611de76020830185611711565b611df46040830184611745565b949350505050565b611e05816119a1565b8114611e1057600080fd5b50565b600081519050611e2281611dfc565b92915050565b600060208284031215611e3e57611e3d611779565b5b6000611e4c84828501611e13565b91505092915050565b7f5472616e73666572206661696c65640000000000000000000000000000000000600082015250565b6000611e8b600f836118fa565b9150611e9682611e55565b602082019050919050565b60006020820190508181036000830152611eba81611e7e565b9050919050565b7f4e487b7100000000000000000000000000000000000000000000000000000000600052601160045260246000fd5b6000611efb8261173b565b9150611f068361173b565b9250828201905080821115611f1e57611f1d611ec1565b5b92915050565b7f4e6f742063726561746f72000000000000000000000000000000000000000000600082015250565b6000611f5a600b836118fa565b9150611f6582611f24565b602082019050919050565b60006020820190508181036000830152611f8981611f4d565b9050919050565b7f43616e6e6f742077697468647261770000000000000000000000000000000000600082015250565b6000611fc6600f836118fa565b9150611fd182611f90565b602082019050919050565b60006020820190508181036000830152611ff581611fb9565b9050919050565b7f416c72656164792077697468647261776e000000000000000000000000000000600082015250565b60006120326011836118fa565b915061203d82611ffc565b602082019050919050565b6000602082019050818103600083015261206181612025565b9050919050565b600060408201905061207d6000830185611711565b61208a6020830184611745565b9392505050565b7f4e487b7100000000000000000000000000000000000000000000000000000000600052602260045260246000fd5b600060028204905060018216806120d857607f821691505b6020821081036120eb576120ea612091565b5b50919050565b7f416c726561647920696e697469616c697a656400000000000000000000000000600082015250565b60006121276013836118fa565b9150612132826120f1565b602082019050919050565b600060208201905081810360008301526121568161211a565b9050919050565b7f496e76616c696420646561646c696e6500000000000000000000000000000000600082015250565b60006121936010836118fa565b915061219e8261215d565b602082019050919050565b600060208201905081810360008301526121c281612186565b9050919050565b7f496e76616c696420746172676574000000000000000000000000000000000000600082015250565b60006121ff600e836118fa565b915061220a826121c9565b602082019050919050565b6000602082019050818103600083015261222e816121f2565b9050919050565b60008190508160005260206000209050919050565b60006020601f8301049050919050565b600082821b905092915050565b6000600883026122977fffffffffffffffffffffffffffffffffffffffffffffffffffffffffffffffff8261225a565b6122a1868361225a565b95508019841693508086168417925050509392505050565b60006122d46122cf6122ca8461173b565b611848565b61173b565b9050919050565b6000819050919050565b6122ee836122b9565b6123026122fa826122db565b848454612267565b825550505050565b600090565b61231761230a565b6123228184846122e5565b505050565b5b818110156123465761233b60008261230f565b600181019050612328565b5050565b601f82111561238b5761235c81612235565b6123658461224a565b81016020851015612374578190505b6123886123808561224a565b830182612327565b50505b505050565b600082821c905092915050565b60006123ae60001984600802612390565b1980831691505092915050565b60006123c7838361239d565b9150826002028217905092915050565b6123e0826118ef565b67ffffffffffffffff8111156123f9576123f86119e1565b5b61240382546120c0565b61240e82828561234a565b600060209050601f831160018114612441576000841561242f578287015190505b61243985826123bb565b8655506124a1565b601f19841661244f86612235565b60005b8281101561247757848901518255600182019150602085019450602081019050612452565b868310156124945784890151612490601f89168261239d565b8355505b6001600288020188555050505b50505050505056fea2646970667358221220ede31cdb684f6f1e1c99ee75d4a540ab5299dd8bd8d3c25de60b0554718204d264736f6c63430008180033",
  "linkReferences": {},
  "deployedLinkReferences": {}
}