{
  "_format": "hh-sol-artifact-1",
  "contractName": "Campaign",
  "sourceName": "contracts/Campaign.sol",
  "abi": [
    {
      "anonymous": false,
      "inputs": [
        {
          "indexed": true,
          "internalType": "address",
          "name": "contributor",
          "type": "address"
        },
        {
          "indexed": false,
          "internalType": "uint256",
          "name": "amount",
          "type": "uint256"
        }
      ],
      "name": "Deposited",
      "type": "event"
    },
    {
      "anonymous": false,
      "inputs": [
        {
          "indexed": true,
          "internalType": "address",
          "name": "creator",
          "type": "address"
        },
        {
          "indexed": false,
          "internalType": "uint256",
          "name": "amount",
          "type": "uint256"
        }
      ],
      "name": "Withdrawn",
      "type": "event"
    },
    {
      "inputs": [],
      "name": "canWithdraw",
      "outputs": [
        {
          "internalType": "bool",
          "name": "",
          "type": "bool"
        }
      ],
      "stateMutability": "view",
      "type": "function"
    },
    {
      "inputs": [
        {
          "internalType": "address",
          "name": "",
          "type": "address"
        }
      ],
      "name": "contributions",
      "outputs": [
        {
          "internalType": "uint256",
          "name": "",
          "type": "uint256"
        }
      ],
      "stateMutability": "view",
      "type": "function"
    },
    {
      "inputs": [
        {
          "internalType": "uint256",
          "name": "",
          "type": "uint256"
        }
      ],
      "name": "contributors",
      "outputs": [
        {
          "internalType": "address",
          "name": "",
          "type": "address"
        }
      ],
      "stateMutability": "view",
      "type": "function"
    },
    {
      "inputs": [],
      "name": "createdAt",
      "outputs": [
        {
          "internalType": "uint256",
          "name": "",
          "type": "uint256"
        }
      ],
      "stateMutability": "view",
      "type": "function"
    },
    {
      "inputs": [],
      "name": "creator",
      "outputs": [
        {
          "internalType": "address",
          "name": "",
          "type": "address"
        }
      ],
      "stateMutability": "view",
      "type": "function"
    },
    {
      "inputs": [],
      "name": "currentAmount",
      "outputs": [
        {
          "internalType": "uint256",
          "name": "",
          "type": "uint256"
        }
      ],
      "stateMutability": "view",
      "type": "function"
    },
    {
      "inputs": [],
      "name": "deadline",
      "outputs": [
        {
          "internalType": "uint256",
          "name": "",
          "type": "uint256"
        }
      ],
      "stateMutability": "view",
      "type": "function"
    },
    {
      "inputs": [
        {
          "internalType": "uint256",
          "name": "amount",
          "type": "uint256"
        }
      ],
      "name": "deposit",
      "outputs": [],
      "stateMutability": "nonpayable",
      "type": "function"
    },
    {
      "inputs": [],
      "name": "description",
      "outputs": [
        {
          "internalType": "string",
          "name": "",
          "type": "string"
        }
      ],
      "stateMutability": "view",
      "type": "function"
    },
    {
      "inputs": [],
      "name": "factory",
      "outputs": [
        {
          "internalType": "address",
          "name": "",
          "type": "address"
        }
      ],
      "stateMutability": "view",
      "type": "function"
    },
    {
      "inputs": [],
      "name": "getDetails",
      "outputs": [
        {
          "internalType": "address",
          "name": "",
          "type": "address"
        },
        {
          "internalType": "uint256",
          "name": "",
          "type": "uint256"
        },
        {
          "internalType": "uint256",
          "name": "",
          "type": "uint256"
        },
        {
          "internalType": "uint256",
          "name": "",
          "type": "uint256"
        },
        {
          "internalType": "uint256",
          "name": "",
          "type": "uint256"
        },
        {
          "internalType": "string",
          "name": "",
          "type": "string"
        },
        {
          "internalType": "string",
          "name": "",
          "type": "string"
        },
        {
          "internalType": "bool",
          "name": "",
          "type": "bool"
        },
        {
          "internalType": "uint256",
          "name": "",
          "type": "uint256"
        }
      ],
      "stateMutability": "view",
      "type": "function"
    },
    {
      "inputs": [
        {
          "internalType": "address",
          "name": "_creator",
          "type": "address"
        },
        {
          "internalType": "address",
          "name": "_usdc",
          "type": "address"
        },
        {
          "internalType": "uint256",
          "name": "_targetAmount",
          "type": "uint256"
        },
        {
          "internalType": "uint256",
          "name": "_deadline",
          "type": "uint256"
        },
        {
          "internalType": "string",
          "name": "_title",
          "type": "string"
        },
        {
          "internalType": "string",
          "name": "_description",
          "type": "string"
        }
      ],
      "name": "initialize",
      "outputs": [],
      "stateMutability": "nonpayable",
      "type": "function"
    },
    {
      "inputs": [],
      "name": "targetAmount",
      "outputs": [
        {
          "internalType": "uint256",
          "name": "",
          "type": "uint256"
        }
      ],
      "stateMutability": "view",
      "type": "function"
    },
    {
      "inputs": [],
      "name": "title",
      "outputs": [
        {
          "internalType": "string",
          "name": "",
          "type": "string"
        }
      ],
      "stateMutability": "view",
      "type": "function"
    },
    {
      "inputs": [],
      "name": "usdc",
      "outputs": [
        {
          "internalType": "contract IERC20",
          "name": "",
          "type": "address"
        }
      ],
      "stateMutability": "view",
      "type": "function"
    },
    {
      "inputs": [],
      "name": "withdraw",
      "outputs": [],
      "stateMutability": "nonpayable",
      "type": "function"
    },
    {
      "inputs": [],
      "name": "withdrawn",
      "outputs": [
        {
          "internalType": "bool",
          "name": "",
          "type": "bool"
        }
      ],
      "stateMutability": "view",
      "type": "function"
    }
  ],
  "bytecode": "0x608060405234801561001057600080fd5b50611ba2806100206000396000f3fe608060405234801561001057600080fd5b506004361061010b5760003560e01c8063953b8fb8116100a2578063c80ec52211610071578063c80ec52214610286578063cf09e0d0146102a4578063e001ff52146102c2578063f441b1c8146102de578063fbbf93a0146102fc5761010b565b8063953b8fb814610210578063b51459fe1461022e578063b6b55f251461024c578063c45a0155146102685761010b565b80633e413bee116100de5780633e413bee1461018657806342e94c90146101a45780634a79d50c146101d45780637284e416146101f25761010b565b806302d05d3f1461011057806329dcb0cf1461012e5780633cb5d1001461014c5780633ccfd60b1461017c575b600080fd5b610118610322565b6040516101259190610ea4565b60405180910390f35b610136610348565b6040516101439190610ed8565b60405180910390f35b61016660048036038101906101619190610f33565b61034e565b6040516101739190610ea4565b60405180910390f35b61018461038d565b005b61018e610650565b60405161019b9190610fbf565b60405180910390f35b6101be60048036038101906101b99190611006565b610676565b6040516101cb9190610ed8565b60405180910390f35b6101dc61068e565b6040516101e991906110c3565b60405180910390f35b6101fa61071c565b60405161020791906110c3565b60405180910390f35b6102186107aa565b6040516102259190610ed8565b60405180910390f35b6102366107b0565b6040516102439190611100565b60405180910390f35b61026660048036038101906102619190610f33565b6107cc565b005b610270610aa5565b60405161027d9190610ea4565b60405180910390f35b61028e610ac9565b60405161029b9190611100565b60405180910390f35b6102ac610adc565b6040516102b99190610ed8565b60405180910390f35b6102dc60048036038101906102d79190611250565b610ae2565b005b6102e6610cd1565b6040516102f39190610ed8565b60405180910390f35b610304610cd7565b60405161031999989796959493929190611315565b60405180910390f35b600160009054906101000a900473ffffffffffffffffffffffffffffffffffffffff1681565b60055481565b600b818154811061035e57600080fd5b906000526020600020016000915054906101000a900473ffffffffffffffffffffffffffffffffffffffff1681565b600160009054906101000a900473ffffffffffffffffffffffffffffffffffffffff1673ffffffffffffffffffffffffffffffffffffffff163373ffffffffffffffffffffffffffffffffffffffff161461041d576040517f08c379a0000000000000000000000000000000000000000000000000000000008152600401610414906113fc565b60405180910390fd5b6104256107b0565b610464576040517f08c379a000000000000000000000000000000000000000000000000000000000815260040161045b90611468565b60405180910390fd5b600960009054906101000a900460ff16156104b4576040517f08c379a00000000000000000000000000000000000000000000000000000000081526004016104ab906114d4565b60405180910390fd5b6001600960006101000a81548160ff021916908315150217905550600060045490506000600260009054906101000a900473ffffffffffffffffffffffffffffffffffffffff1673ffffffffffffffffffffffffffffffffffffffff1663a9059cbb600160009054906101000a900473ffffffffffffffffffffffffffffffffffffffff16846040518363ffffffff1660e01b81526004016105579291906114f4565b6020604051808303816000875af1158015610576573d6000803e3d6000fd5b505050506040513d601f19601f8201168201806040525081019061059a9190611549565b9050806105dc576040517f08c379a00000000000000000000000000000000000000000000000000000000081526004016105d3906115c2565b60405180910390fd5b600160009054906101000a900473ffffffffffffffffffffffffffffffffffffffff1673ffffffffffffffffffffffffffffffffffffffff167f7084f5476618d8e60b11ef0d7d3f06914655adb8793e28ff7f018d4c76d505d5836040516106449190610ed8565b60405180910390a25050565b600260009054906101000a900473ffffffffffffffffffffffffffffffffffffffff1681565b600a6020528060005260406000206000915090505481565b6007805461069b90611611565b80601f01602080910402602001604051908101604052809291908181526020018280546106c790611611565b80156107145780601f106106e957610100808354040283529160200191610714565b820191906000526020600020905b8154815290600101906020018083116106f757829003601f168201915b505050505081565b6008805461072990611611565b80601f016020809104026020016040519081016040528092919081815260200182805461075590611611565b80156107a25780601f10610777576101008083540402835291602001916107a2565b820191906000526020600020905b81548152906001019060200180831161078557829003601f168201915b505050505081565b60035481565b60006003546004541015806107c757506005544210155b905090565b6005544210610810576040517f08c379a00000000000000000000000000000000000000000000000000000000081526004016108079061168e565b60405180910390fd5b60008111610853576040517f08c379a000000000000000000000000000000000000000000000000000000000815260040161084a906116fa565b60405180910390fd5b6000600260009054906101000a900473ffffffffffffffffffffffffffffffffffffffff1673ffffffffffffffffffffffffffffffffffffffff166323b872dd3330856040518463ffffffff1660e01b81526004016108b49392919061171a565b6020604051808303816000875af11580156108d3573d6000803e3d6000fd5b505050506040513d601f19601f820116820180604052508101906108f79190611549565b905080610939576040517f08c379a0000000000000000000000000000000000000000000000000000000008152600401610930906115c2565b60405180910390fd5b6000600a60003373ffffffffffffffffffffffffffffffffffffffff1673ffffffffffffffffffffffffffffffffffffffff16815260200190815260200160002054036109e457600b339080600181540180825580915050600190039060005260206000200160009091909190916101000a81548173ffffffffffffffffffffffffffffffffffffffff021916908373ffffffffffffffffffffffffffffffffffffffff1602179055505b81600a60003373ffffffffffffffffffffffffffffffffffffffff1673ffffffffffffffffffffffffffffffffffffffff1681526020019081526020016000206000828254610a339190611780565b925050819055508160046000828254610a4c9190611780565b925050819055503373ffffffffffffffffffffffffffffffffffffffff167f2da466a7b24304f47e87fa2e1e5a81b9831ce54fec19055ce277ca2f39ba42c483604051610a999190610ed8565b60405180910390a25050565b60008054906101000a900473ffffffffffffffffffffffffffffffffffffffff1681565b600960009054906101000a900460ff1681565b60065481565b600960019054906101000a900460ff1615610b32576040517f08c379a0000000000000000000000000000000000000000000000000000000008152600401610b2990611800565b60405180910390fd5b428311610b74576040517f08c379a0000000000000000000000000000000000000000000000000000000008152600401610b6b9061186c565b60405180910390fd5b60008411610bb7576040517f08c379a0000000000000000000000000000000000000000000000000000000008152600401610bae906118d8565b60405180910390fd5b6001600960016101000a81548160ff021916908315150217905550336000806101000a81548173ffffffffffffffffffffffffffffffffffffffff021916908373ffffffffffffffffffffffffffffffffffffffff16021790555085600160006101000a81548173ffffffffffffffffffffffffffffffffffffffff021916908373ffffffffffffffffffffffffffffffffffffffff16021790555084600260006101000a81548173ffffffffffffffffffffffffffffffffffffffff021916908373ffffffffffffffffffffffffffffffffffffffff16021790555083600381905550826005819055508160079081610cb19190611a9a565b508060089081610cc19190611a9a565b5042600681905550505050505050565b60045481565b6000806000806000606080600080600160009054906101000a900473ffffffffffffffffffffffffffffffffffffffff1660035460045460055460065460076008600960009054906101000a900460ff16600b80549050838054610d3a90611611565b80601f0160208091040260200160405190810160405280929190818152602001828054610d6690611611565b8015610db35780601f10610d8857610100808354040283529160200191610db3565b820191906000526020600020905b815481529060010190602001808311610d9657829003601f168201915b50505050509350828054610dc690611611565b80601f0160208091040260200160405190810160405280929190818152602001828054610df290611611565b8015610e3f5780601f10610e1457610100808354040283529160200191610e3f565b820191906000526020600020905b815481529060010190602001808311610e2257829003601f168201915b50505050509250985098509850985098509850985098509850909192939495969798565b600073ffffffffffffffffffffffffffffffffffffffff82169050919050565b6000610e8e82610e63565b9050919050565b610e9e81610e83565b82525050565b6000602082019050610eb96000830184610e95565b92915050565b6000819050919050565b610ed281610ebf565b82525050565b6000602082019050610eed6000830184610ec9565b92915050565b6000604051905090565b600080fd5b600080fd5b610f1081610ebf565b8114610f1b57600080fd5b50565b600081359050610f2d81610f07565b92915050565b600060208284031215610f4957610f48610efd565b5b6000610f5784828501610f1e565b91505092915050565b6000819050919050565b6000610f85610f80610f7b84610e63565b610f60565b610e63565b9050919050565b6000610f9782610f6a565b9050919050565b6000610fa982610f8c565b9050919050565b610fb981610f9e565b82525050565b6000602082019050610fd46000830184610fb0565b92915050565b610fe381610e83565b8114610fee57600080fd5b50565b60008135905061100081610fda565b92915050565b60006020828403121561101c5761101b610efd565b5b600061102a84828501610ff1565b91505092915050565b600081519050919050565b600082825260208201905092915050565b60005b8381101561106d578082015181840152602081019050611052565b60008484015250505050565b6000601f19601f8301169050919050565b600061109582611033565b61109f818561103e565b93506110af81856020860161104f565b6110b881611079565b840191505092915050565b600060208201905081810360008301526110dd818461108a565b905092915050565b60008115159050919050565b6110fa816110e5565b82525050565b600060208201905061111560008301846110f1565b92915050565b600080fd5b600080fd5b7f4e487b7100000000000000000000000000000000000000000000000000000000600052604160045260246000fd5b61115d82611079565b810181811067ffffffffffffffff8211171561117c5761117b611125565b5b80604052505050565b600061118f610ef3565b905061119b8282611154565b919050565b600067ffffffffffffffff8211156111bb576111ba611125565b5b6111c482611079565b9050602081019050919050565b82818337600083830152505050565b60006111f36111ee846111a0565b611185565b90508281526020810184848401111561120f5761120e611120565b5b61121a8482856111d1565b509392505050565b600082601f8301126112375761123661111b565b5b81356112478482602086016111e0565b91505092915050565b60008060008060008060c0878903121561126d5761126c610efd565b5b600061127b89828a01610ff1565b965050602061128c89828a01610ff1565b955050604061129d89828a01610f1e565b94505060606112ae89828a01610f1e565b935050608087013567ffffffffffffffff8111156112cf576112ce610f02565b5b6112db89828a01611222565b92505060a087013567ffffffffffffffff8111156112fc576112fb610f02565b5b61130889828a01611222565b9150509295509295509295565b60006101208201905061132b600083018c610e95565b611338602083018b610ec9565b611345604083018a610ec9565b6113526060830189610ec9565b61135f6080830188610ec9565b81810360a0830152611371818761108a565b905081810360c0830152611385818661108a565b905061139460e08301856110f1565b6113a2610100830184610ec9565b9a9950505050505050505050565b7f4e6f742063726561746f72000000000000000000000000000000000000000000600082015250565b60006113e6600b8361103e565b91506113f1826113b0565b602082019050919050565b60006020820190508181036000830152611415816113d9565b9050919050565b7f43616e6e6f742077697468647261770000000000000000000000000000000000600082015250565b6000611452600f8361103e565b915061145d8261141c565b602082019050919050565b6000602082019050818103600083015261148181611445565b9050919050565b7f416c72656164792077697468647261776e000000000000000000000000000000600082015250565b60006114be60118361103e565b91506114c982611488565b602082019050919050565b600060208201905081810360008301526114ed816114b1565b9050919050565b60006040820190506115096000830185610e95565b6115166020830184610ec9565b9392505050565b611526816110e5565b811461153157600080fd5b50565b6000815190506115438161151d565b92915050565b60006020828403121561155f5761155e610efd565b5b600061156d84828501611534565b91505092915050565b7f5472616e73666572206661696c65640000000000000000000000000000000000600082015250565b60006115ac600f8361103e565b91506115b782611576565b602082019050919050565b600060208201905081810360008301526115db8161159f565b9050919050565b7f4e487b7100000000000000000000000000000000000000000000000000000000600052602260045260246000fd5b6000600282049050600182168061162957607f821691505b60208210810361163c5761163b6115e2565b5b50919050565b7f43616d706169676e20656e646564000000000000000000000000000000000000600082015250565b6000611678600e8361103e565b915061168382611642565b602082019050919050565b600060208201905081810360008301526116a78161166b565b9050919050565b7f496e76616c696420616d6f756e74000000000000000000000000000000000000600082015250565b60006116e4600e8361103e565b91506116ef826116ae565b602082019050919050565b60006020820190508181036000830152611713816116d7565b9050919050565b600060608201905061172f6000830186610e95565b61173c6020830185610e95565b6117496040830184610ec9565b949350505050565b7f4e487b7100000000000000000000000000000000000000000000000000000000600052601160045260246000fd5b600061178b82610ebf565b915061179683610ebf565b92508282019050808211156117ae576117ad611751565b5b92915050565b7f416c726561647920696e697469616c697a656400000000000000000000000000600082015250565b60006117ea60138361103e565b91506117f5826117b4565b602082019050919050565b60006020820190508181036000830152611819816117dd565b9050919050565b7f496e76616c696420646561646c696e6500000000000000000000000000000000600082015250565b600061185660108361103e565b915061186182611820565b602082019050919050565b6000602082019050818103600083015261188581611849565b9050919050565b7f496e76616c696420746172676574000000000000000000000000000000000000600082015250565b60006118c2600e8361103e565b91506118cd8261188c565b602082019050919050565b600060208201905081810360008301526118f1816118b5565b9050919050565b60008190508160005260206000209050919050565b60006020601f8301049050919050565b600082821b905092915050565b60006008830261195a7fffffffffffffffffffffffffffffffffffffffffffffffffffffffffffffffff8261191d565b611964868361191d565b95508019841693508086168417925050509392505050565b600061199761199261198d84610ebf565b610f60565b610ebf565b9050919050565b6000819050919050565b6119b18361197c565b6119c56119bd8261199e565b84845461192a565b825550505050565b600090565b6119da6119cd565b6119e58184846119a8565b505050565b5b81811015611a09576119fe6000826119d2565b6001810190506119eb565b5050565b601f821115611a4e57611a1f816118f8565b611a288461190d565b81016020851015611a37578190505b611a4b611a438561190d565b8301826119ea565b50505b505050565b600082821c905092915050565b6000611a7160001984600802611a53565b1980831691505092915050565b6000611a8a8383611a60565b9150826002028217905092915050565b611aa382611033565b67ffffffffffffffff811115611abc57611abb611125565b5b611ac68254611611565b611ad1828285611a0d565b600060209050601f831160018114611b045760008415611af2578287015190505b611afc8582611a7e565b865550611b64565b601f198416611b12866118f8565b60005b82811015611b3a57848901518255600182019150602085019450602081019050611b15565b86831015611b575784890151611b53601f891682611a60565b8355505b6001600288020188555050505b50505050505056fea26469706673582212204e85a17f14fe5db7d710c608f9ee5cd317ac6627fc28fb236efd943b9260bea664736f6c63430008180033",
  "linkReferences": {},
  "deployedLinkReferences": {}
}