{
  "_format": "hh-sol-artifact-1",
  "contractName": "Campaign",
  "sourceName": "contracts/Campaign.sol",
  "abi": [
    {
      "anonymous": false,
      "inputs": [
        {
          "indexed": true,
          "internalType": "address",
          "name": "contributor",
          "type": "address"
        },
        {
          "indexed": false,
          "internalType": "uint256",
          "name": "amount",
          "type": "uint256"
        }
      ],
      "name": "Deposited",
      "type": "event"
    },
    {
      "anonymous": false,
      "inputs": [
        {
          "indexed": true,
          "internalType": "address",
          "name": "creator",
          "type": "address"
        },
        {
          "indexed": false,
          "internalType": "uint256",
          "name": "amount",
          "type": "uint256"
        }
      ],
      "name": "Withdrawn",
      "type": "event"
    },
    {
      "inputs": [],
      "name": "canWithdraw",
      "outputs": [
        {
          "internalType": "bool",
          "name": "",
          "type": "bool"
        }
      ],
      "stateMutability": "view",
      "type": "function"
    },
    {
      "inputs": [
        {
          "internalType": "address",
          "name": "",
          "type": "address"
        }
      ],
      "name": "contributions",
      "outputs": [
        {
          "internalType": "uint256",
          "name": "",
          "type": "uint256"
        }
      ],
      "stateMutability": "view",
      "type": "function"
    },
    {
      "inputs": [
        {
          "internalType": "uint256",
          "name": "",
          "type": "uint256"
        }
      ],
      "name": "contributors",
      "outputs": [
        {
          "internalType": "address",
          "name": "",
          "type": "address"
        }
      ],
      "stateMutability": "view",
      "type": "function"
    },
    {
      "inputs": [],
      "name": "createdAt",
      "outputs": [
        {
          "internalType": "uint256",
          "name": "",
          "type": "uint256"
        }
      ],
      "stateMutability": "view",
      "type": "function"
    },
    {
      "inputs": [],
      "name": "creator",
      "outputs": [
        {
          "internalType": "address",
          "name": "",
          "type": "address"
        }
      ],
      "stateMutability": "view",
      "type": "function"
    },
    {
      "inputs": [],
      "name": "currentAmount",
      "outputs": [
        {
          "internalType": "uint256",
          "name": "",
          "type": "uint256"
        }
      ],
      "stateMutability": "view",
      "type": "function"
    },
    {
      "inputs": [],
      "name": "deadline",
      "outputs": [
        {
          "internalType": "uint256",
          "name": "",
          "type": "uint256"
        }
      ],
      "stateMutability": "view",
      "type": "function"
    },
    {
      "inputs": [
        {
          "internalType": "uint256",
          "name": "amount",
          "type": "uint256"
        }
      ],
      "name": "deposit",
      "outputs": [],
      "stateMutability": "nonpayable",
      "type": "function"
    },
    {
      "inputs": [
        {
          "internalType": "address",
          "name": "contributor",
          "type": "address"
        },
        {
          "internalType": "uint256",
          "name": "amount",
          "type": "uint256"
        }
      ],
      "name": "depositFor",
      "outputs": [],
      "stateMutability": "nonpayable",
      "type": "function"
    },
    {
      "inputs": [],
      "name": "description",
      "outputs": [
        {
          "internalType": "string",
          "name": "",
          "type": "string"
        }
      ],
      "stateMutability": "view",
      "type": "function"
    },
    {
      "inputs": [],
      "name": "factory",
      "outputs": [
        {
          "internalType": "address",
          "name": "",
          "type": "address"
        }
      ],
      "stateMutability": "view",
      "type": "function"
    },
    {
      "inputs": [],
      "name": "getDetails",
      "outputs": [
        {
          "internalType": "address",
          "name": "",
          "type": "address"
        },
        {
          "internalType": "uint256",
          "name": "",
          "type": "uint256"
        },
        {
          "internalType": "uint256",
          "name": "",
          "type": "uint256"
        },
        {
          "internalType": "uint256",
          "name": "",
          "type": "uint256"
        },
        {
          "internalType": "uint256",
          "name": "",
          "type": "uint256"
        },
        {
          "internalType": "string",
          "name": "",
          "type": "string"
        },
        {
          "internalType": "string",
          "name": "",
          "type": "string"
        },
        {
          "internalType": "bool",
          "name": "",
          "type": "bool"
        },
        {
          "internalType": "uint256",
          "name": "",
          "type": "uint256"
        }
      ],
      "stateMutability": "view",
      "type": "function"
    },
    {
      "inputs": [
        {
          "internalType": "address",
          "name": "_creator",
          "type": "address"
        },
        {
          "internalType": "address",
          "name": "_treasury",
          "type": "address"
        },
        {
          "internalType": "address",
          "name": "_usdc",
          "type": "address"
        },
        {
          "internalType": "uint256",
          "name": "_targetAmount",
          "type": "uint256"
        },
        {
          "internalType": "uint256",
          "name": "_deadline",
          "type": "uint256"
        },
        {
          "internalType": "string",
          "name": "_title",
          "type": "string"
        },
        {
          "internalType": "string",
          "name": "_description",
          "type": "string"
        }
      ],
      "name": "initialize",
      "outputs": [],
      "stateMutability": "nonpayable",
      "type": "function"
    },
    {
      "inputs": [],
      "name": "targetAmount",
      "outputs": [
        {
          "internalType": "uint256",
          "name": "",
          "type": "uint256"
        }
      ],
      "stateMutability": "view",
      "type": "function"
    },
    {
      "inputs": [],
      "name": "title",
      "outputs": [
        {
          "internalType": "string",
          "name": "",
          "type": "string"
        }
      ],
      "stateMutability": "view",
      "type": "function"
    },
    {
      "inputs": [],
      "name": "treasury",
      "outputs": [
        {
          "internalType": "address",
          "name": "",
          "type": "address"
        }
      ],
      "stateMutability": "view",
      "type": "function"
    },
    {
      "inputs": [],
      "name": "usdc",
      "outputs": [
        {
          "internalType": "contract IERC20",
          "name": "",
          "type": "address"
        }
      ],
      "stateMutability": "view",
      "type": "function"
    },
    {
      "inputs": [],
      "name": "withdraw",
      "outputs": [],
      "stateMutability": "nonpayable",
      "type": "function"
    },
    {
      "inputs": [],
      "name": "withdrawn",
      "outputs": [
        {
          "internalType": "bool",
          "name": "",
          "type": "bool"
        }
      ],
      "stateMutability": "view",
      "type": "function"
    }
  ],
  "bytecode": "0x608060405234801561001057600080fd5b506120a7806100206000396000f3fe608060405234801561001057600080fd5b50600436106101215760003560e01c80637284e416116100ad578063c80ec52211610071578063c80ec522146102d6578063cb706309146102f4578063cf09e0d014610310578063f441b1c81461032e578063fbbf93a01461034c57610121565b80637284e41614610242578063953b8fb814610260578063b51459fe1461027e578063b6b55f251461029c578063c45a0155146102b857610121565b80633ccfd60b116100f45780633ccfd60b146101ae5780633e413bee146101b857806342e94c90146101d65780634a79d50c1461020657806361d027b31461022457610121565b806302d05d3f1461012657806329dcb0cf146101445780632f4f21e2146101625780633cb5d1001461017e575b600080fd5b61012e610372565b60405161013b91906112e8565b60405180910390f35b61014c610398565b604051610159919061131c565b60405180910390f35b61017c600480360381019061017791906113a3565b61039e565b005b610198600480360381019061019391906113e3565b61072a565b6040516101a591906112e8565b60405180910390f35b6101b6610769565b005b6101c0610a2c565b6040516101cd919061146f565b60405180910390f35b6101f060048036038101906101eb919061148a565b610a52565b6040516101fd919061131c565b60405180910390f35b61020e610a6a565b60405161021b9190611547565b60405180910390f35b61022c610af8565b60405161023991906112e8565b60405180910390f35b61024a610b1e565b6040516102579190611547565b60405180910390f35b610268610bac565b604051610275919061131c565b60405180910390f35b610286610bb2565b6040516102939190611584565b60405180910390f35b6102b660048036038101906102b191906113e3565b610bce565b005b6102c0610ea7565b6040516102cd91906112e8565b60405180910390f35b6102de610ecb565b6040516102eb9190611584565b60405180910390f35b61030e600480360381019061030991906116d4565b610ede565b005b61031861110f565b604051610325919061131c565b60405180910390f35b610336611115565b604051610343919061131c565b60405180910390f35b61035461111b565b604051610369999897969594939291906117ae565b60405180910390f35b600260009054906101000a900473ffffffffffffffffffffffffffffffffffffffff1681565b60065481565b600160009054906101000a900473ffffffffffffffffffffffffffffffffffffffff1673ffffffffffffffffffffffffffffffffffffffff163373ffffffffffffffffffffffffffffffffffffffff161461042e576040517f08c379a000000000000000000000000000000000000000000000000000000000815260040161042590611895565b60405180910390fd5b6006544210610472576040517f08c379a000000000000000000000000000000000000000000000000000000000815260040161046990611901565b60405180910390fd5b600081116104b5576040517f08c379a00000000000000000000000000000000000000000000000000000000081526004016104ac9061196d565b60405180910390fd5b6000600360009054906101000a900473ffffffffffffffffffffffffffffffffffffffff1673ffffffffffffffffffffffffffffffffffffffff166323b872dd600160009054906101000a900473ffffffffffffffffffffffffffffffffffffffff1630856040518463ffffffff1660e01b81526004016105389392919061198d565b6020604051808303816000875af1158015610557573d6000803e3d6000fd5b505050506040513d601f19601f8201168201806040525081019061057b91906119f0565b9050806105bd576040517f08c379a00000000000000000000000000000000000000000000000000000000081526004016105b490611a69565b60405180910390fd5b6000600b60008573ffffffffffffffffffffffffffffffffffffffff1673ffffffffffffffffffffffffffffffffffffffff168152602001908152602001600020540361066857600c839080600181540180825580915050600190039060005260206000200160009091909190916101000a81548173ffffffffffffffffffffffffffffffffffffffff021916908373ffffffffffffffffffffffffffffffffffffffff1602179055505b81600b60008573ffffffffffffffffffffffffffffffffffffffff1673ffffffffffffffffffffffffffffffffffffffff16815260200190815260200160002060008282546106b79190611ab8565b9250508190555081600560008282546106d09190611ab8565b925050819055508273ffffffffffffffffffffffffffffffffffffffff167f2da466a7b24304f47e87fa2e1e5a81b9831ce54fec19055ce277ca2f39ba42c48360405161071d919061131c565b60405180910390a2505050565b600c818154811061073a57600080fd5b906000526020600020016000915054906101000a900473ffffffffffffffffffffffffffffffffffffffff1681565b600260009054906101000a900473ffffffffffffffffffffffffffffffffffffffff1673ffffffffffffffffffffffffffffffffffffffff163373ffffffffffffffffffffffffffffffffffffffff16146107f9576040517f08c379a00000000000000000000000000000000000000000000000000000000081526004016107f090611b38565b60405180910390fd5b610801610bb2565b610840576040517f08c379a000000000000000000000000000000000000000000000000000000000815260040161083790611ba4565b60405180910390fd5b600a60009054906101000a900460ff1615610890576040517f08c379a000000000000000000000000000000000000000000000000000000000815260040161088790611c10565b60405180910390fd5b6001600a60006101000a81548160ff021916908315150217905550600060055490506000600360009054906101000a900473ffffffffffffffffffffffffffffffffffffffff1673ffffffffffffffffffffffffffffffffffffffff1663a9059cbb600260009054906101000a900473ffffffffffffffffffffffffffffffffffffffff16846040518363ffffffff1660e01b8152600401610933929190611c30565b6020604051808303816000875af1158015610952573d6000803e3d6000fd5b505050506040513d601f19601f8201168201806040525081019061097691906119f0565b9050806109b8576040517f08c379a00000000000000000000000000000000000000000000000000000000081526004016109af90611a69565b60405180910390fd5b600260009054906101000a900473ffffffffffffffffffffffffffffffffffffffff1673ffffffffffffffffffffffffffffffffffffffff167f7084f5476618d8e60b11ef0d7d3f06914655adb8793e28ff7f018d4c76d505d583604051610a20919061131c565b60405180910390a25050565b600360009054906101000a900473ffffffffffffffffffffffffffffffffffffffff1681565b600b6020528060005260406000206000915090505481565b60088054610a7790611c88565b80601f0160208091040260200160405190810160405280929190818152602001828054610aa390611c88565b8015610af05780601f10610ac557610100808354040283529160200191610af0565b820191906000526020600020905b815481529060010190602001808311610ad357829003601f168201915b505050505081565b600160009054906101000a900473ffffffffffffffffffffffffffffffffffffffff1681565b60098054610b2b90611c88565b80601f0160208091040260200160405190810160405280929190818152602001828054610b5790611c88565b8015610ba45780601f10610b7957610100808354040283529160200191610ba4565b820191906000526020600020905b815481529060010190602001808311610b8757829003601f168201915b505050505081565b60045481565b6000600454600554101580610bc957506006544210155b905090565b6006544210610c12576040517f08c379a0000000000000000000000000000000000000000000000000000000008152600401610c0990611901565b60405180910390fd5b60008111610c55576040517f08c379a0000000000000000000000000000000000000000000000000000000008152600401610c4c9061196d565b60405180910390fd5b6000600360009054906101000a900473ffffffffffffffffffffffffffffffffffffffff1673ffffffffffffffffffffffffffffffffffffffff166323b872dd3330856040518463ffffffff1660e01b8152600401610cb69392919061198d565b6020604051808303816000875af1158015610cd5573d6000803e3d6000fd5b505050506040513d601f19601f82011682018060405250810190610cf991906119f0565b905080610d3b576040517f08c379a0000000000000000000000000000000000000000000000000000000008152600401610d3290611a69565b60405180910390fd5b6000600b60003373ffffffffffffffffffffffffffffffffffffffff1673ffffffffffffffffffffffffffffffffffffffff1681526020019081526020016000205403610de657600c339080600181540180825580915050600190039060005260206000200160009091909190916101000a81548173ffffffffffffffffffffffffffffffffffffffff021916908373ffffffffffffffffffffffffffffffffffffffff1602179055505b81600b60003373ffffffffffffffffffffffffffffffffffffffff1673ffffffffffffffffffffffffffffffffffffffff1681526020019081526020016000206000828254610e359190611ab8565b925050819055508160056000828254610e4e9190611ab8565b925050819055503373ffffffffffffffffffffffffffffffffffffffff167f2da466a7b24304f47e87fa2e1e5a81b9831ce54fec19055ce277ca2f39ba42c483604051610e9b919061131c565b60405180910390a25050565b60008054906101000a900473ffffffffffffffffffffffffffffffffffffffff1681565b600a60009054906101000a900460ff1681565b600a60019054906101000a900460ff1615610f2e576040517f08c379a0000000000000000000000000000000000000000000000000000000008152600401610f2590611d05565b60405180910390fd5b428311610f70576040517f08c379a0000000000000000000000000000000000000000000000000000000008152600401610f6790611d71565b60405180910390fd5b60008411610fb3576040517f08c379a0000000000000000000000000000000000000000000000000000000008152600401610faa90611ddd565b60405180910390fd5b6001600a60016101000a81548160ff021916908315150217905550336000806101000a81548173ffffffffffffffffffffffffffffffffffffffff021916908373ffffffffffffffffffffffffffffffffffffffff16021790555086600260006101000a81548173ffffffffffffffffffffffffffffffffffffffff021916908373ffffffffffffffffffffffffffffffffffffffff16021790555085600160006101000a81548173ffffffffffffffffffffffffffffffffffffffff021916908373ffffffffffffffffffffffffffffffffffffffff16021790555084600360006101000a81548173ffffffffffffffffffffffffffffffffffffffff021916908373ffffffffffffffffffffffffffffffffffffffff160217905550836004819055508260068190555081600890816110ee9190611f9f565b5080600990816110fe9190611f9f565b504260078190555050505050505050565b60075481565b60055481565b6000806000806000606080600080600260009054906101000a900473ffffffffffffffffffffffffffffffffffffffff1660045460055460065460075460086009600a60009054906101000a900460ff16600c8054905083805461117e90611c88565b80601f01602080910402602001604051908101604052809291908181526020018280546111aa90611c88565b80156111f75780601f106111cc576101008083540402835291602001916111f7565b820191906000526020600020905b8154815290600101906020018083116111da57829003601f168201915b5050505050935082805461120a90611c88565b80601f016020809104026020016040519081016040528092919081815260200182805461123690611c88565b80156112835780601f1061125857610100808354040283529160200191611283565b820191906000526020600020905b81548152906001019060200180831161126657829003601f168201915b50505050509250985098509850985098509850985098509850909192939495969798565b600073ffffffffffffffffffffffffffffffffffffffff82169050919050565b60006112d2826112a7565b9050919050565b6112e2816112c7565b82525050565b60006020820190506112fd60008301846112d9565b92915050565b6000819050919050565b61131681611303565b82525050565b6000602082019050611331600083018461130d565b92915050565b6000604051905090565b600080fd5b600080fd5b611354816112c7565b811461135f57600080fd5b50565b6000813590506113718161134b565b92915050565b61138081611303565b811461138b57600080fd5b50565b60008135905061139d81611377565b92915050565b600080604083850312156113ba576113b9611341565b5b60006113c885828601611362565b92505060206113d98582860161138e565b9150509250929050565b6000602082840312156113f9576113f8611341565b5b60006114078482850161138e565b91505092915050565b6000819050919050565b600061143561143061142b846112a7565b611410565b6112a7565b9050919050565b60006114478261141a565b9050919050565b60006114598261143c565b9050919050565b6114698161144e565b82525050565b60006020820190506114846000830184611460565b92915050565b6000602082840312156114a05761149f611341565b5b60006114ae84828501611362565b91505092915050565b600081519050919050565b600082825260208201905092915050565b60005b838110156114f15780820151818401526020810190506114d6565b60008484015250505050565b6000601f19601f8301169050919050565b6000611519826114b7565b61152381856114c2565b93506115338185602086016114d3565b61153c816114fd565b840191505092915050565b60006020820190508181036000830152611561818461150e565b905092915050565b60008115159050919050565b61157e81611569565b82525050565b60006020820190506115996000830184611575565b92915050565b600080fd5b600080fd5b7f4e487b7100000000000000000000000000000000000000000000000000000000600052604160045260246000fd5b6115e1826114fd565b810181811067ffffffffffffffff82111715611600576115ff6115a9565b5b80604052505050565b6000611613611337565b905061161f82826115d8565b919050565b600067ffffffffffffffff82111561163f5761163e6115a9565b5b611648826114fd565b9050602081019050919050565b82818337600083830152505050565b600061167761167284611624565b611609565b905082815260208101848484011115611693576116926115a4565b5b61169e848285611655565b509392505050565b600082601f8301126116bb576116ba61159f565b5b81356116cb848260208601611664565b91505092915050565b600080600080600080600060e0888a0312156116f3576116f2611341565b5b60006117018a828b01611362565b97505060206117128a828b01611362565b96505060406117238a828b01611362565b95505060606117348a828b0161138e565b94505060806117458a828b0161138e565b93505060a088013567ffffffffffffffff81111561176657611765611346565b5b6117728a828b016116a6565b92505060c088013567ffffffffffffffff81111561179357611792611346565b5b61179f8a828b016116a6565b91505092959891949750929550565b6000610120820190506117c4600083018c6112d9565b6117d1602083018b61130d565b6117de604083018a61130d565b6117eb606083018961130d565b6117f8608083018861130d565b81810360a083015261180a818761150e565b905081810360c083015261181e818661150e565b905061182d60e0830185611575565b61183b61010083018461130d565b9a9950505050505050505050565b7f5472656173757279206f6e6c7900000000000000000000000000000000000000600082015250565b600061187f600d836114c2565b915061188a82611849565b602082019050919050565b600060208201905081810360008301526118ae81611872565b9050919050565b7f43616d706169676e20656e646564000000000000000000000000000000000000600082015250565b60006118eb600e836114c2565b91506118f6826118b5565b602082019050919050565b6000602082019050818103600083015261191a816118de565b9050919050565b7f496e76616c696420616d6f756e74000000000000000000000000000000000000600082015250565b6000611957600e836114c2565b915061196282611921565b602082019050919050565b600060208201905081810360008301526119868161194a565b9050919050565b60006060820190506119a260008301866112d9565b6119af60208301856112d9565b6119bc604083018461130d565b949350505050565b6119cd81611569565b81146119d857600080fd5b50565b6000815190506119ea816119c4565b92915050565b600060208284031215611a0657611a05611341565b5b6000611a14848285016119db565b91505092915050565b7f5472616e73666572206661696c65640000000000000000000000000000000000600082015250565b6000611a53600f836114c2565b9150611a5e82611a1d565b602082019050919050565b60006020820190508181036000830152611a8281611a46565b9050919050565b7f4e487b7100000000000000000000000000000000000000000000000000000000600052601160045260246000fd5b6000611ac382611303565b9150611ace83611303565b9250828201905080821115611ae657611ae5611a89565b5b92915050565b7f4e6f742063726561746f72000000000000000000000000000000000000000000600082015250565b6000611b22600b836114c2565b9150611b2d82611aec565b602082019050919050565b60006020820190508181036000830152611b5181611b15565b9050919050565b7f43616e6e6f742077697468647261770000000000000000000000000000000000600082015250565b6000611b8e600f836114c2565b9150611b9982611b58565b602082019050919050565b60006020820190508181036000830152611bbd81611b81565b9050919050565b7f416c72656164792077697468647261776e000000000000000000000000000000600082015250565b6000611bfa6011836114c2565b9150611c0582611bc4565b602082019050919050565b60006020820190508181036000830152611c2981611bed565b9050919050565b6000604082019050611c4560008301856112d9565b611c52602083018461130d565b9392505050565b7f4e487b7100000000000000000000000000000000000000000000000000000000600052602260045260246000fd5b60006002820490506001821680611ca057607f821691505b602082108103611cb357611cb2611c59565b5b50919050565b7f416c726561647920696e697469616c697a656400000000000000000000000000600082015250565b6000611cef6013836114c2565b9150611cfa82611cb9565b602082019050919050565b60006020820190508181036000830152611d1e81611ce2565b9050919050565b7f496e76616c696420646561646c696e6500000000000000000000000000000000600082015250565b6000611d5b6010836114c2565b9150611d6682611d25565b602082019050919050565b60006020820190508181036000830152611d8a81611d4e565b9050919050565b7f496e76616c696420746172676574000000000000000000000000000000000000600082015250565b6000611dc7600e836114c2565b9150611dd282611d91565b602082019050919050565b60006020820190508181036000830152611df681611dba565b9050919050565b60008190508160005260206000209050919050565b60006020601f8301049050919050565b600082821b905092915050565b600060088302611e5f7fffffffffffffffffffffffffffffffffffffffffffffffffffffffffffffffff82611e22565b611e698683611e22565b95508019841693508086168417925050509392505050565b6000611e9c611e97611e9284611303565b611410565b611303565b9050919050565b6000819050919050565b611eb683611e81565b611eca611ec282611ea3565b848454611e2f565b825550505050565b600090565b611edf611ed2565b611eea818484611ead565b505050565b5b81811015611f0e57611f03600082611ed7565b600181019050611ef0565b5050565b601f821115611f5357611f2481611dfd565b611f2d84611e12565b81016020851015611f3c578190505b611f50611f4885611e12565b830182611eef565b50505b505050565b600082821c905092915050565b6000611f7660001984600802611f58565b1980831691505092915050565b6000611f8f8383611f65565b9150826002028217905092915050565b611fa8826114b7565b67ffffffffffffffff811115611fc157611fc06115a9565b5b611fcb8254611c88565b611fd6828285611f12565b600060209050601f8311600181146120095760008415611ff7578287015190505b6120018582611f83565b865550612069565b601f19841661201786611dfd565b60005b8281101561203f5784890151825560018201915060208501945060208101905061201a565b8683101561205c5784890151612058601f891682611f65565b8355505b6001600288020188555050505b50505050505056fea2646970667358221220ef7c3a0c90c9ad008b6cf94408f7280bfd1802541ed9623a9b2fedc59319a36464736f6c63430008180033",
  "linkReferences": {},
  "deployedLinkReferences": {}
}