{
  "_format": "hh-sol-artifact-1",
  "contractName": "Campaign",
  "sourceName": "contracts/Campaign.sol",
  "abi": [
    {
      "anonymous": false,
      "inputs": [
        {
          "indexed": true,
          "internalType": "address",
          "name": "contributor",
          "type": "address"
        },
        {
          "indexed": false,
          "internalType": "uint256",
          "name": "amount",
          "type": "uint256"
        }
      ],
      "name": "Deposited",
      "type": "event"
    },
    {
      "anonymous": false,
      "inputs": [
        {
          "indexed": true,
          "internalType": "address",
          "name": "creator",
          "type": "address"
        },
        {
          "indexed": false,
          "internalType": "uint256",
          "name": "amount",
          "type": "uint256"
        }
      ],
      "name": "Withdrawn",
      "type": "event"
    },
    {
      "inputs": [],
      "name": "canWithdraw",
      "outputs": [
        {
          "internalType": "bool",
          "name": "",
          "type": "bool"
        }
      ],
      "stateMutability": "view",
      "type": "function"
    },
    {
      "inputs": [],
      "name": "category",
      "outputs": [
        {
          "internalType": "string",
          "name": "",
          "type": "string"
        }
      ],
      "stateMutability": "view",
      "type": "function"
    },
    {
      "inputs": [
        {
          "internalType": "address",
          "name": "",
          "type": "address"
        }
      ],
      "name": "contributions",
      "outputs": [
        {
          "internalType": "uint256",
          "name": "",
          "type": "uint256"
        }
      ],
      "stateMutability": "view",
      "type": "function"
    },
    {
      "inputs": [
        {
          "internalType": "uint256",
          "name": "",
          "type": "uint256"
        }
      ],
      "name": "contributors",
      "outputs": [
        {
          "internalType": "address",
          "name": "",
          "type": "address"
        }
      ],
      "stateMutability": "view",
      "type": "function"
    },
    {
      "inputs": [],
      "name": "createdAt",
      "outputs": [
        {
          "internalType": "uint256",
          "name": "",
          "type": "uint256"
        }
      ],
      "stateMutability": "view",
      "type": "function"
    },
    {
      "inputs": [],
      "name": "creator",
      "outputs": [
        {
          "internalType": "address",
          "name": "",
          "type": "address"
        }
      ],
      "stateMutability": "view",
      "type": "function"
    },
    {
      "inputs": [
        {
          "internalType": "address",
          "name": "contributor",
          "type": "address"
        },
        {
          "internalType": "uint256",
          "name": "amount",
          "type": "uint256"
        }
      ],
      "name": "creditDeposit",
      "outputs": [],
      "stateMutability": "nonpayable",
      "type": "function"
    },
    {
      "inputs": [],
      "name": "currentAmount",
      "outputs": [
        {
          "internalType": "uint256",
          "name": "",
          "type": "uint256"
        }
      ],
      "stateMutability": "view",
      "type": "function"
    },
    {
      "inputs": [],
      "name": "deadline",
      "outputs": [
        {
          "internalType": "uint256",
          "name": "",
          "type": "uint256"
        }
      ],
      "stateMutability": "view",
      "type": "function"
    },
    {
      "inputs": [
        {
          "internalType": "uint256",
          "name": "amount",
          "type": "uint256"
        }
      ],
      "name": "deposit",
      "outputs": [],
      "stateMutability": "nonpayable",
      "type": "function"
    },
    {
      "inputs": [
        {
          "internalType": "address",
          "name": "contributor",
          "type": "address"
        },
        {
          "internalType": "uint256",
          "name": "amount",
          "type": "uint256"
        }
      ],
      "name": "depositFor",
      "outputs": [],
      "stateMutability": "nonpayable",
      "type": "function"
    },
    {
      "inputs": [],
      "name": "description",
      "outputs": [
        {
          "internalType": "string",
          "name": "",
          "type": "string"
        }
      ],
      "stateMutability": "view",
      "type": "function"
    },
    {
      "inputs": [],
      "name": "factory",
      "outputs": [
        {
          "internalType": "address",
          "name": "",
          "type": "address"
        }
      ],
      "stateMutability": "view",
      "type": "function"
    },
    {
      "inputs": [],
      "name": "getDetails",
      "outputs": [
        {
          "internalType": "address",
          "name": "",
          "type": "address"
        },
        {
          "internalType": "uint256",
          "name": "",
          "type": "uint256"
        },
        {
          "internalType": "uint256",
          "name": "",
          "type": "uint256"
        },
        {
          "internalType": "uint256",
          "name": "",
          "type": "uint256"
        },
        {
          "internalType": "uint256",
          "name": "",
          "type": "uint256"
        },
        {
          "internalType": "string",
          "name": "",
          "type": "string"
        },
        {
          "internalType": "string",
          "name": "",
          "type": "string"
        },
        {
          "internalType": "bool",
          "name": "",
          "type": "bool"
        },
        {
          "internalType": "uint256",
          "name": "",
          "type": "uint256"
        },
        {
          "internalType": "string",
          "name": "",
          "type": "string"
        }
      ],
      "stateMutability": "view",
      "type": "function"
    },
    {
      "inputs": [
        {
          "internalType": "address",
          "name": "_creator",
          "type": "address"
        },
        {
          "internalType": "address",
          "name": "_treasury",
          "type": "address"
        },
        {
          "internalType": "address",
          "name": "_usdc",
          "type": "address"
        },
        {
          "internalType": "uint256",
          "name": "_targetAmount",
          "type": "uint256"
        },
        {
          "internalType": "uint256",
          "name": "_deadline",
          "type": "uint256"
        },
        {
          "internalType": "string",
          "name": "_title",
          "type": "string"
        },
        {
          "internalType": "string",
          "name": "_description",
          "type": "string"
        },
        {
          "internalType": "string",
          "name": "_category",
          "type": "string"
        }
      ],
      "name": "initialize",
      "outputs": [],
      "stateMutability": "nonpayable",
      "type": "function"
    },
    {
      "inputs": [],
      "name": "targetAmount",
      "outputs": [
        {
          "internalType": "uint256",
          "name": "",
          "type": "uint256"
        }
      ],
      "stateMutability": "view",
      "type": "function"
    },
    {
      "inputs": [],
      "name": "title",
      "outputs": [
        {
          "internalType": "string",
          "name": "",
          "type": "string"
        }
      ],
      "stateMutability": "view",
      "type": "function"
    },
    {
      "inputs": [],
      "name": "treasury",
      "outputs": [
        {
          "internalType": "address",
          "name": "",
          "type": "address"
        }
      ],
      "stateMutability": "view",
      "type": "function"
    },
    {
      "inputs": [],
      "name": "usdc",
      "outputs": [
        {
          "internalType": "contract IERC20",
          "name": "",
          "type": "address"
        }
      ],
      "stateMutability": "view",
      "type": "function"
    },
    {
      "inputs": [],
      "name": "withdraw",
      "outputs": [],
      "stateMutability": "nonpayable",
      "type": "function"
    },
    {
      "inputs": [
        {
          "internalType": "address",
          "name": "recipient",
          "type": "address"
        }
      ],
      "name": "withdrawTo",
      "outputs": [],
      "stateMutability": "nonpayable",
      "type": "function"
    },
    {
      "inputs": [],
      "name": "withdrawToTreasury",
      "outputs": [],
      "stateMutability": "nonpayable",
      "type": "function"
    },
    {
      "inputs": [],
      "name": "withdrawn",
      "outputs": [
        {
          "internalType": "bool",
          "name": "",
          "type": "bool"
        }
      ],
      "stateMutability": "view",
      "type": "function"
    }
  ],
  "bytecode": "0x608060405234801561001057600080fd5b50612959806100206000396000f3fe608060405234801561001057600080fd5b506004361061014d5760003560e01c80637e80c186116100c3578063c80ec5221161007c578063c80ec52214610344578063cf09e0d014610362578063e251f10614610380578063ef430aa61461039c578063f441b1c8146103ba578063fbbf93a0146103d85761014d565b80637e80c186146102a8578063953b8fb8146102b2578063b51459fe146102d0578063b6b55f25146102ee578063bbe142cd1461030a578063c45a0155146103265761014d565b80633e413bee116101155780633e413bee146101e457806342e94c90146102025780634a79d50c1461023257806361d027b3146102505780637284e4161461026e57806372b0d90c1461028c5761014d565b806302d05d3f1461015257806329dcb0cf146101705780632f4f21e21461018e5780633cb5d100146101aa5780633ccfd60b146101da575b600080fd5b61015a6103ff565b6040516101679190611b54565b60405180910390f35b610178610425565b6040516101859190611b88565b60405180910390f35b6101a860048036038101906101a39190611c0f565b61042b565b005b6101c460048036038101906101bf9190611c4f565b6107b7565b6040516101d19190611b54565b60405180910390f35b6101e26107f6565b005b6101ec610ab9565b6040516101f99190611cdb565b60405180910390f35b61021c60048036038101906102179190611cf6565b610adf565b6040516102299190611b88565b60405180910390f35b61023a610af7565b6040516102479190611db3565b60405180910390f35b610258610b85565b6040516102659190611b54565b60405180910390f35b610276610bab565b6040516102839190611db3565b60405180910390f35b6102a660048036038101906102a19190611cf6565b610c39565b005b6102b0610e27565b005b6102ba6110ea565b6040516102c79190611b88565b60405180910390f35b6102d86110f0565b6040516102e59190611df0565b60405180910390f35b61030860048036038101906103039190611c4f565b61110c565b005b610324600480360381019061031f9190611f40565b6113e5565b005b61032e611627565b60405161033b9190611b54565b60405180910390f35b61034c61164b565b6040516103599190611df0565b60405180910390f35b61036a61165e565b6040516103779190611b88565b60405180910390f35b61039a60048036038101906103959190611c0f565b611664565b005b6103a4611860565b6040516103b19190611db3565b60405180910390f35b6103c26118ee565b6040516103cf9190611b88565b60405180910390f35b6103e06118f4565b6040516103f69a9998979695949392919061204a565b60405180910390f35b600260009054906101000a900473ffffffffffffffffffffffffffffffffffffffff1681565b60065481565b600160009054906101000a900473ffffffffffffffffffffffffffffffffffffffff1673ffffffffffffffffffffffffffffffffffffffff163373ffffffffffffffffffffffffffffffffffffffff16146104bb576040517f08c379a00000000000000000000000000000000000000000000000000000000081526004016104b290612147565b60405180910390fd5b60065442106104ff576040517f08c379a00000000000000000000000000000000000000000000000000000000081526004016104f6906121b3565b60405180910390fd5b60008111610542576040517f08c379a00000000000000000000000000000000000000000000000000000000081526004016105399061221f565b60405180910390fd5b6000600360009054906101000a900473ffffffffffffffffffffffffffffffffffffffff1673ffffffffffffffffffffffffffffffffffffffff166323b872dd600160009054906101000a900473ffffffffffffffffffffffffffffffffffffffff1630856040518463ffffffff1660e01b81526004016105c59392919061223f565b6020604051808303816000875af11580156105e4573d6000803e3d6000fd5b505050506040513d601f19601f8201168201806040525081019061060891906122a2565b90508061064a576040517f08c379a00000000000000000000000000000000000000000000000000000000081526004016106419061231b565b60405180910390fd5b6000600c60008573ffffffffffffffffffffffffffffffffffffffff1673ffffffffffffffffffffffffffffffffffffffff16815260200190815260200160002054036106f557600d839080600181540180825580915050600190039060005260206000200160009091909190916101000a81548173ffffffffffffffffffffffffffffffffffffffff021916908373ffffffffffffffffffffffffffffffffffffffff1602179055505b81600c60008573ffffffffffffffffffffffffffffffffffffffff1673ffffffffffffffffffffffffffffffffffffffff1681526020019081526020016000206000828254610744919061236a565b92505081905550816005600082825461075d919061236a565b925050819055508273ffffffffffffffffffffffffffffffffffffffff167f2da466a7b24304f47e87fa2e1e5a81b9831ce54fec19055ce277ca2f39ba42c4836040516107aa9190611b88565b60405180910390a2505050565b600d81815481106107c757600080fd5b906000526020600020016000915054906101000a900473ffffffffffffffffffffffffffffffffffffffff1681565b600260009054906101000a900473ffffffffffffffffffffffffffffffffffffffff1673ffffffffffffffffffffffffffffffffffffffff163373ffffffffffffffffffffffffffffffffffffffff1614610886576040517f08c379a000000000000000000000000000000000000000000000000000000000815260040161087d906123ea565b60405180910390fd5b61088e6110f0565b6108cd576040517f08c379a00000000000000000000000000000000000000000000000000000000081526004016108c490612456565b60405180910390fd5b600b60009054906101000a900460ff161561091d576040517f08c379a0000000000000000000000000000000000000000000000000000000008152600401610914906124c2565b60405180910390fd5b6001600b60006101000a81548160ff021916908315150217905550600060055490506000600360009054906101000a900473ffffffffffffffffffffffffffffffffffffffff1673ffffffffffffffffffffffffffffffffffffffff1663a9059cbb600260009054906101000a900473ffffffffffffffffffffffffffffffffffffffff16846040518363ffffffff1660e01b81526004016109c09291906124e2565b6020604051808303816000875af11580156109df573d6000803e3d6000fd5b505050506040513d601f19601f82011682018060405250810190610a0391906122a2565b905080610a45576040517f08c379a0000000000000000000000000000000000000000000000000000000008152600401610a3c9061231b565b60405180910390fd5b600260009054906101000a900473ffffffffffffffffffffffffffffffffffffffff1673ffffffffffffffffffffffffffffffffffffffff167f7084f5476618d8e60b11ef0d7d3f06914655adb8793e28ff7f018d4c76d505d583604051610aad9190611b88565b60405180910390a25050565b600360009054906101000a900473ffffffffffffffffffffffffffffffffffffffff1681565b600c6020528060005260406000206000915090505481565b60088054610b049061253a565b80601f0160208091040260200160405190810160405280929190818152602001828054610b309061253a565b8015610b7d5780601f10610b5257610100808354040283529160200191610b7d565b820191906000526020600020905b815481529060010190602001808311610b6057829003601f168201915b505050505081565b600160009054906101000a900473ffffffffffffffffffffffffffffffffffffffff1681565b60098054610bb89061253a565b80601f0160208091040260200160405190810160405280929190818152602001828054610be49061253a565b8015610c315780601f10610c0657610100808354040283529160200191610c31565b820191906000526020600020905b815481529060010190602001808311610c1457829003601f168201915b505050505081565b600260009054906101000a900473ffffffffffffffffffffffffffffffffffffffff1673ffffffffffffffffffffffffffffffffffffffff163373ffffffffffffffffffffffffffffffffffffffff1614610cc9576040517f08c379a0000000000000000000000000000000000000000000000000000000008152600401610cc0906123ea565b60405180910390fd5b610cd16110f0565b610d10576040517f08c379a0000000000000000000000000000000000000000000000000000000008152600401610d0790612456565b60405180910390fd5b600b60009054906101000a900460ff1615610d60576040517f08c379a0000000000000000000000000000000000000000000000000000000008152600401610d57906124c2565b60405180910390fd5b6001600b60006101000a81548160ff02191690831515021790555060006005549050600360009054906101000a900473ffffffffffffffffffffffffffffffffffffffff1673ffffffffffffffffffffffffffffffffffffffff1663a9059cbb83836040518363ffffffff1660e01b8152600401610ddf9291906124e2565b6020604051808303816000875af1158015610dfe573d6000803e3d6000fd5b505050506040513d601f19601f82011682018060405250810190610e2291906122a2565b505050565b600260009054906101000a900473ffffffffffffffffffffffffffffffffffffffff1673ffffffffffffffffffffffffffffffffffffffff163373ffffffffffffffffffffffffffffffffffffffff1614610eb7576040517f08c379a0000000000000000000000000000000000000000000000000000000008152600401610eae906123ea565b60405180910390fd5b610ebf6110f0565b610efe576040517f08c379a0000000000000000000000000000000000000000000000000000000008152600401610ef590612456565b60405180910390fd5b600b60009054906101000a900460ff1615610f4e576040517f08c379a0000000000000000000000000000000000000000000000000000000008152600401610f45906124c2565b60405180910390fd5b6001600b60006101000a81548160ff021916908315150217905550600060055490506000600360009054906101000a900473ffffffffffffffffffffffffffffffffffffffff1673ffffffffffffffffffffffffffffffffffffffff1663a9059cbb600160009054906101000a900473ffffffffffffffffffffffffffffffffffffffff16846040518363ffffffff1660e01b8152600401610ff19291906124e2565b6020604051808303816000875af1158015611010573d6000803e3d6000fd5b505050506040513d601f19601f8201168201806040525081019061103491906122a2565b905080611076576040517f08c379a000000000000000000000000000000000000000000000000000000000815260040161106d9061231b565b60405180910390fd5b600260009054906101000a900473ffffffffffffffffffffffffffffffffffffffff1673ffffffffffffffffffffffffffffffffffffffff167f7084f5476618d8e60b11ef0d7d3f06914655adb8793e28ff7f018d4c76d505d5836040516110de9190611b88565b60405180910390a25050565b60045481565b600060045460055410158061110757506006544210155b905090565b6006544210611150576040517f08c379a0000000000000000000000000000000000000000000000000000000008152600401611147906121b3565b60405180910390fd5b60008111611193576040517f08c379a000000000000000000000000000000000000000000000000000000000815260040161118a9061221f565b60405180910390fd5b6000600360009054906101000a900473ffffffffffffffffffffffffffffffffffffffff1673ffffffffffffffffffffffffffffffffffffffff166323b872dd3330856040518463ffffffff1660e01b81526004016111f49392919061223f565b6020604051808303816000875af1158015611213573d6000803e3d6000fd5b505050506040513d601f19601f8201168201806040525081019061123791906122a2565b905080611279576040517f08c379a00000000000000000000000000000000000000000000000000000000081526004016112709061231b565b60405180910390fd5b6000600c60003373ffffffffffffffffffffffffffffffffffffffff1673ffffffffffffffffffffffffffffffffffffffff168152602001908152602001600020540361132457600d339080600181540180825580915050600190039060005260206000200160009091909190916101000a81548173ffffffffffffffffffffffffffffffffffffffff021916908373ffffffffffffffffffffffffffffffffffffffff1602179055505b81600c60003373ffffffffffffffffffffffffffffffffffffffff1673ffffffffffffffffffffffffffffffffffffffff1681526020019081526020016000206000828254611373919061236a565b92505081905550816005600082825461138c919061236a565b925050819055503373ffffffffffffffffffffffffffffffffffffffff167f2da466a7b24304f47e87fa2e1e5a81b9831ce54fec19055ce277ca2f39ba42c4836040516113d99190611b88565b60405180910390a25050565b600b60019054906101000a900460ff1615611435576040517f08c379a000000000000000000000000000000000000000000000000000000000815260040161142c906125b7565b60405180910390fd5b428411611477576040517f08c379a000000000000000000000000000000000000000000000000000000000815260040161146e90612623565b60405180910390fd5b600085116114ba576040517f08c379a00000000000000000000000000000000000000000000000000000000081526004016114b19061268f565b60405180910390fd5b6001600b60016101000a81548160ff021916908315150217905550336000806101000a81548173ffffffffffffffffffffffffffffffffffffffff021916908373ffffffffffffffffffffffffffffffffffffffff16021790555087600260006101000a81548173ffffffffffffffffffffffffffffffffffffffff021916908373ffffffffffffffffffffffffffffffffffffffff16021790555086600160006101000a81548173ffffffffffffffffffffffffffffffffffffffff021916908373ffffffffffffffffffffffffffffffffffffffff16021790555085600360006101000a81548173ffffffffffffffffffffffffffffffffffffffff021916908373ffffffffffffffffffffffffffffffffffffffff160217905550846004819055508360068190555082600890816115f59190612851565b5081600990816116059190612851565b504260078190555080600a908161161c9190612851565b505050505050505050565b60008054906101000a900473ffffffffffffffffffffffffffffffffffffffff1681565b600b60009054906101000a900460ff1681565b60075481565b600160009054906101000a900473ffffffffffffffffffffffffffffffffffffffff1673ffffffffffffffffffffffffffffffffffffffff163373ffffffffffffffffffffffffffffffffffffffff16146116f4576040517f08c379a00000000000000000000000000000000000000000000000000000000081526004016116eb90612147565b60405180910390fd5b6000600c60008473ffffffffffffffffffffffffffffffffffffffff1673ffffffffffffffffffffffffffffffffffffffff168152602001908152602001600020540361179f57600d829080600181540180825580915050600190039060005260206000200160009091909190916101000a81548173ffffffffffffffffffffffffffffffffffffffff021916908373ffffffffffffffffffffffffffffffffffffffff1602179055505b80600c60008473ffffffffffffffffffffffffffffffffffffffff1673ffffffffffffffffffffffffffffffffffffffff16815260200190815260200160002060008282546117ee919061236a565b925050819055508060056000828254611807919061236a565b925050819055508173ffffffffffffffffffffffffffffffffffffffff167f2da466a7b24304f47e87fa2e1e5a81b9831ce54fec19055ce277ca2f39ba42c4826040516118549190611b88565b60405180910390a25050565b600a805461186d9061253a565b80601f01602080910402602001604051908101604052809291908181526020018280546118999061253a565b80156118e65780601f106118bb576101008083540402835291602001916118e6565b820191906000526020600020905b8154815290600101906020018083116118c957829003601f168201915b505050505081565b60055481565b60008060008060006060806000806060600260009054906101000a900473ffffffffffffffffffffffffffffffffffffffff1660045460055460065460075460086009600b60009054906101000a900460ff16600d80549050600a84805461195b9061253a565b80601f01602080910402602001604051908101604052809291908181526020018280546119879061253a565b80156119d45780601f106119a9576101008083540402835291602001916119d4565b820191906000526020600020905b8154815290600101906020018083116119b757829003601f168201915b505050505094508380546119e79061253a565b80601f0160208091040260200160405190810160405280929190818152602001828054611a139061253a565b8015611a605780601f10611a3557610100808354040283529160200191611a60565b820191906000526020600020905b815481529060010190602001808311611a4357829003601f168201915b50505050509350808054611a739061253a565b80601f0160208091040260200160405190810160405280929190818152602001828054611a9f9061253a565b8015611aec5780601f10611ac157610100808354040283529160200191611aec565b820191906000526020600020905b815481529060010190602001808311611acf57829003601f168201915b50505050509050995099509950995099509950995099509950995090919293949596979899565b600073ffffffffffffffffffffffffffffffffffffffff82169050919050565b6000611b3e82611b13565b9050919050565b611b4e81611b33565b82525050565b6000602082019050611b696000830184611b45565b92915050565b6000819050919050565b611b8281611b6f565b82525050565b6000602082019050611b9d6000830184611b79565b92915050565b6000604051905090565b600080fd5b600080fd5b611bc081611b33565b8114611bcb57600080fd5b50565b600081359050611bdd81611bb7565b92915050565b611bec81611b6f565b8114611bf757600080fd5b50565b600081359050611c0981611be3565b92915050565b60008060408385031215611c2657611c25611bad565b5b6000611c3485828601611bce565b9250506020611c4585828601611bfa565b9150509250929050565b600060208284031215611c6557611c64611bad565b5b6000611c7384828501611bfa565b91505092915050565b6000819050919050565b6000611ca1611c9c611c9784611b13565b611c7c565b611b13565b9050919050565b6000611cb382611c86565b9050919050565b6000611cc582611ca8565b9050919050565b611cd581611cba565b82525050565b6000602082019050611cf06000830184611ccc565b92915050565b600060208284031215611d0c57611d0b611bad565b5b6000611d1a84828501611bce565b91505092915050565b600081519050919050565b600082825260208201905092915050565b60005b83811015611d5d578082015181840152602081019050611d42565b60008484015250505050565b6000601f19601f8301169050919050565b6000611d8582611d23565b611d8f8185611d2e565b9350611d9f818560208601611d3f565b611da881611d69565b840191505092915050565b60006020820190508181036000830152611dcd8184611d7a565b905092915050565b60008115159050919050565b611dea81611dd5565b82525050565b6000602082019050611e056000830184611de1565b92915050565b600080fd5b600080fd5b7f4e487b7100000000000000000000000000000000000000000000000000000000600052604160045260246000fd5b611e4d82611d69565b810181811067ffffffffffffffff82111715611e6c57611e6b611e15565b5b80604052505050565b6000611e7f611ba3565b9050611e8b8282611e44565b919050565b600067ffffffffffffffff821115611eab57611eaa611e15565b5b611eb482611d69565b9050602081019050919050565b82818337600083830152505050565b6000611ee3611ede84611e90565b611e75565b905082815260208101848484011115611eff57611efe611e10565b5b611f0a848285611ec1565b509392505050565b600082601f830112611f2757611f26611e0b565b5b8135611f37848260208601611ed0565b91505092915050565b600080600080600080600080610100898b031215611f6157611f60611bad565b5b6000611f6f8b828c01611bce565b9850506020611f808b828c01611bce565b9750506040611f918b828c01611bce565b9650506060611fa28b828c01611bfa565b9550506080611fb38b828c01611bfa565b94505060a089013567ffffffffffffffff811115611fd457611fd3611bb2565b5b611fe08b828c01611f12565b93505060c089013567ffffffffffffffff81111561200157612000611bb2565b5b61200d8b828c01611f12565b92505060e089013567ffffffffffffffff81111561202e5761202d611bb2565b5b61203a8b828c01611f12565b9150509295985092959890939650565b600061014082019050612060600083018d611b45565b61206d602083018c611b79565b61207a604083018b611b79565b612087606083018a611b79565b6120946080830189611b79565b81810360a08301526120a68188611d7a565b905081810360c08301526120ba8187611d7a565b90506120c960e0830186611de1565b6120d7610100830185611b79565b8181036101208301526120ea8184611d7a565b90509b9a5050505050505050505050565b7f5472656173757279206f6e6c7900000000000000000000000000000000000000600082015250565b6000612131600d83611d2e565b915061213c826120fb565b602082019050919050565b6000602082019050818103600083015261216081612124565b9050919050565b7f43616d706169676e20656e646564000000000000000000000000000000000000600082015250565b600061219d600e83611d2e565b91506121a882612167565b602082019050919050565b600060208201905081810360008301526121cc81612190565b9050919050565b7f496e76616c696420616d6f756e74000000000000000000000000000000000000600082015250565b6000612209600e83611d2e565b9150612214826121d3565b602082019050919050565b60006020820190508181036000830152612238816121fc565b9050919050565b60006060820190506122546000830186611b45565b6122616020830185611b45565b61226e6040830184611b79565b949350505050565b61227f81611dd5565b811461228a57600080fd5b50565b60008151905061229c81612276565b92915050565b6000602082840312156122b8576122b7611bad565b5b60006122c68482850161228d565b91505092915050565b7f5472616e73666572206661696c65640000000000000000000000000000000000600082015250565b6000612305600f83611d2e565b9150612310826122cf565b602082019050919050565b60006020820190508181036000830152612334816122f8565b9050919050565b7f4e487b7100000000000000000000000000000000000000000000000000000000600052601160045260246000fd5b600061237582611b6f565b915061238083611b6f565b92508282019050808211156123985761239761233b565b5b92915050565b7f4e6f742063726561746f72000000000000000000000000000000000000000000600082015250565b60006123d4600b83611d2e565b91506123df8261239e565b602082019050919050565b60006020820190508181036000830152612403816123c7565b9050919050565b7f43616e6e6f742077697468647261770000000000000000000000000000000000600082015250565b6000612440600f83611d2e565b915061244b8261240a565b602082019050919050565b6000602082019050818103600083015261246f81612433565b9050919050565b7f416c72656164792077697468647261776e000000000000000000000000000000600082015250565b60006124ac601183611d2e565b91506124b782612476565b602082019050919050565b600060208201905081810360008301526124db8161249f565b9050919050565b60006040820190506124f76000830185611b45565b6125046020830184611b79565b9392505050565b7f4e487b7100000000000000000000000000000000000000000000000000000000600052602260045260246000fd5b6000600282049050600182168061255257607f821691505b6020821081036125655761256461250b565b5b50919050565b7f416c726561647920696e697469616c697a656400000000000000000000000000600082015250565b60006125a1601383611d2e565b91506125ac8261256b565b602082019050919050565b600060208201905081810360008301526125d081612594565b9050919050565b7f496e76616c696420646561646c696e6500000000000000000000000000000000600082015250565b600061260d601083611d2e565b9150612618826125d7565b602082019050919050565b6000602082019050818103600083015261263c81612600565b9050919050565b7f496e76616c696420746172676574000000000000000000000000000000000000600082015250565b6000612679600e83611d2e565b915061268482612643565b602082019050919050565b600060208201905081810360008301526126a88161266c565b9050919050565b60008190508160005260206000209050919050565b60006020601f8301049050919050565b600082821b905092915050565b6000600883026127117fffffffffffffffffffffffffffffffffffffffffffffffffffffffffffffffff826126d4565b61271b86836126d4565b95508019841693508086168417925050509392505050565b600061274e61274961274484611b6f565b611c7c565b611b6f565b9050919050565b6000819050919050565b61276883612733565b61277c61277482612755565b8484546126e1565b825550505050565b600090565b612791612784565b61279c81848461275f565b505050565b5b818110156127c0576127b5600082612789565b6001810190506127a2565b5050565b601f821115612805576127d6816126af565b6127df846126c4565b810160208510156127ee578190505b6128026127fa856126c4565b8301826127a1565b50505b505050565b600082821c905092915050565b60006128286000198460080261280a565b1980831691505092915050565b60006128418383612817565b9150826002028217905092915050565b61285a82611d23565b67ffffffffffffffff81111561287357612872611e15565b5b61287d825461253a565b6128888282856127c4565b600060209050601f8311600181146128bb57600084156128a9578287015190505b6128b38582612835565b86555061291b565b601f1984166128c9866126af565b60005b828110156128f1578489015182556001820191506020850194506020810190506128cc565b8683101561290e578489015161290a601f891682612817565b8355505b6001600288020188555050505b50505050505056fea264697066735822122028e72036e8348fc332f8967d31cfa3b2d5efa1cac59f04170c51945ca12a828564736f6c63430008180033",
  "linkReferences": {},
  "deployedLinkReferences": {}
}