{
  "_format": "hh-sol-artifact-1",
  "contractName": "Campaign",
  "sourceName": "contracts/Campaign.sol",
  "abi": [
    {
      "anonymous": false,
      "inputs": [
        {
          "indexed": true,
          "internalType": "address",
          "name": "contributor",
          "type": "address"
        },
        {
          "indexed": false,
          "internalType": "uint256",
          "name": "amount",
          "type": "uint256"
        }
      ],
      "name": "Deposited",
      "type": "event"
    },
    {
      "anonymous": false,
      "inputs": [
        {
          "indexed": true,
          "internalType": "address",
          "name": "creator",
          "type": "address"
        },
        {
          "indexed": false,
          "internalType": "uint256",
          "name": "amount",
          "type": "uint256"
        }
      ],
      "name": "Withdrawn",
      "type": "event"
    },
    {
      "inputs": [],
      "name": "canWithdraw",
      "outputs": [
        {
          "internalType": "bool",
          "name": "",
          "type": "bool"
        }
      ],
      "stateMutability": "view",
      "type": "function"
    },
    {
      "inputs": [
        {
          "internalType": "address",
          "name": "",
          "type": "address"
        }
      ],
      "name": "contributions",
      "outputs": [
        {
          "internalType": "uint256",
          "name": "",
          "type": "uint256"
        }
      ],
      "stateMutability": "view",
      "type": "function"
    },
    {
      "inputs": [
        {
          "internalType": "uint256",
          "name": "",
          "type": "uint256"
        }
      ],
      "name": "contributors",
      "outputs": [
        {
          "internalType": "address",
          "name": "",
          "type": "address"
        }
      ],
      "stateMutability": "view",
      "type": "function"
    },
    {
      "inputs": [],
      "name": "createdAt",
      "outputs": [
        {
          "internalType": "uint256",
          "name": "",
          "type": "uint256"
        }
      ],
      "stateMutability": "view",
      "type": "function"
    },
    {
      "inputs": [],
      "name": "creator",
      "outputs": [
        {
          "internalType": "address",
          "name": "",
          "type": "address"
        }
      ],
      "stateMutability": "view",
      "type": "function"
    },
    {
      "inputs": [
        {
          "internalType": "address",
          "name": "contributor",
          "type": "address"
        },
        {
          "internalType": "uint256",
          "name": "amount",
          "type": "uint256"
        }
      ],
      "name": "creditDeposit",
      "outputs": [],
      "stateMutability": "nonpayable",
      "type": "function"
    },
    {
      "inputs": [],
      "name": "currentAmount",
      "outputs": [
        {
          "internalType": "uint256",
          "name": "",
          "type": "uint256"
        }
      ],
      "stateMutability": "view",
      "type": "function"
    },
    {
      "inputs": [],
      "name": "deadline",
      "outputs": [
        {
          "internalType": "uint256",
          "name": "",
          "type": "uint256"
        }
      ],
      "stateMutability": "view",
      "type": "function"
    },
    {
      "inputs": [
        {
          "internalType": "uint256",
          "name": "amount",
          "type": "uint256"
        }
      ],
      "name": "deposit",
      "outputs": [],
      "stateMutability": "nonpayable",
      "type": "function"
    },
    {
      "inputs": [
        {
          "internalType": "address",
          "name": "contributor",
          "type": "address"
        },
        {
          "internalType": "uint256",
          "name": "amount",
          "type": "uint256"
        }
      ],
      "name": "depositFor",
      "outputs": [],
      "stateMutability": "nonpayable",
      "type": "function"
    },
    {
      "inputs": [],
      "name": "description",
      "outputs": [
        {
          "internalType": "string",
          "name": "",
          "type": "string"
        }
      ],
      "stateMutability": "view",
      "type": "function"
    },
    {
      "inputs": [],
      "name": "factory",
      "outputs": [
        {
          "internalType": "address",
          "name": "",
          "type": "address"
        }
      ],
      "stateMutability": "view",
      "type": "function"
    },
    {
      "inputs": [],
      "name": "getDetails",
      "outputs": [
        {
          "internalType": "address",
          "name": "",
          "type": "address"
        },
        {
          "internalType": "uint256",
          "name": "",
          "type": "uint256"
        },
        {
          "internalType": "uint256",
          "name": "",
          "type": "uint256"
        },
        {
          "internalType": "uint256",
          "name": "",
          "type": "uint256"
        },
        {
          "internalType": "uint256",
          "name": "",
          "type": "uint256"
        },
        {
          "internalType": "string",
          "name": "",
          "type": "string"
        },
        {
          "internalType": "string",
          "name": "",
          "type": "string"
        },
        {
          "internalType": "bool",
          "name": "",
          "type": "bool"
        },
        {
          "internalType": "uint256",
          "name": "",
          "type": "uint256"
        }
      ],
      "stateMutability": "view",
      "type": "function"
    },
    {
      "inputs": [
        {
          "internalType": "address",
          "name": "_creator",
          "type": "address"
        },
        {
          "internalType": "address",
          "name": "_treasury",
          "type": "address"
        },
        {
          "internalType": "address",
          "name": "_usdc",
          "type": "address"
        },
        {
          "internalType": "uint256",
          "name": "_targetAmount",
          "type": "uint256"
        },
        {
          "internalType": "uint256",
          "name": "_deadline",
          "type": "uint256"
        },
        {
          "internalType": "string",
          "name": "_title",
          "type": "string"
        },
        {
          "internalType": "string",
          "name": "_description",
          "type": "string"
        }
      ],
      "name": "initialize",
      "outputs": [],
      "stateMutability": "nonpayable",
      "type": "function"
    },
    {
      "inputs": [],
      "name": "targetAmount",
      "outputs": [
        {
          "internalType": "uint256",
          "name": "",
          "type": "uint256"
        }
      ],
      "stateMutability": "view",
      "type": "function"
    },
    {
      "inputs": [],
      "name": "title",
      "outputs": [
        {
          "internalType": "string",
          "name": "",
          "type": "string"
        }
      ],
      "stateMutability": "view",
      "type": "function"
    },
    {
      "inputs": [],
      "name": "treasury",
      "outputs": [
        {
          "internalType": "address",
          "name": "",
          "type": "address"
        }
      ],
      "stateMutability": "view",
      "type": "function"
    },
    {
      "inputs": [],
      "name": "usdc",
      "outputs": [
        {
          "internalType": "contract IERC20",
          "name": "",
          "type": "address"
        }
      ],
      "stateMutability": "view",
      "type": "function"
    },
    {
      "inputs": [],
      "name": "withdraw",
      "outputs": [],
      "stateMutability": "nonpayable",
      "type": "function"
    },
    {
      "inputs": [],
      "name": "withdrawn",
      "outputs": [
        {
          "internalType": "bool",
          "name": "",
          "type": "bool"
        }
      ],
      "stateMutability": "view",
      "type": "function"
    }
  ],
  "bytecode": "0x608060405234801561001057600080fd5b506122ca806100206000396000f3fe608060405234801561001057600080fd5b506004361061012c5760003560e01c8063953b8fb8116100ad578063cb70630911610071578063cb706309146102ff578063cf09e0d01461031b578063e251f10614610339578063f441b1c814610355578063fbbf93a0146103735761012c565b8063953b8fb81461026b578063b51459fe14610289578063b6b55f25146102a7578063c45a0155146102c3578063c80ec522146102e15761012c565b80633e413bee116100f45780633e413bee146101c357806342e94c90146101e15780634a79d50c1461021157806361d027b31461022f5780637284e4161461024d5761012c565b806302d05d3f1461013157806329dcb0cf1461014f5780632f4f21e21461016d5780633cb5d100146101895780633ccfd60b146101b9575b600080fd5b610139610399565b604051610146919061150b565b60405180910390f35b6101576103bf565b604051610164919061153f565b60405180910390f35b610187600480360381019061018291906115c6565b6103c5565b005b6101a3600480360381019061019e9190611606565b610751565b6040516101b0919061150b565b60405180910390f35b6101c1610790565b005b6101cb610a53565b6040516101d89190611692565b60405180910390f35b6101fb60048036038101906101f691906116ad565b610a79565b604051610208919061153f565b60405180910390f35b610219610a91565b604051610226919061176a565b60405180910390f35b610237610b1f565b604051610244919061150b565b60405180910390f35b610255610b45565b604051610262919061176a565b60405180910390f35b610273610bd3565b604051610280919061153f565b60405180910390f35b610291610bd9565b60405161029e91906117a7565b60405180910390f35b6102c160048036038101906102bc9190611606565b610bf5565b005b6102cb610ece565b6040516102d8919061150b565b60405180910390f35b6102e9610ef2565b6040516102f691906117a7565b60405180910390f35b610319600480360381019061031491906118f7565b610f05565b005b610323611136565b604051610330919061153f565b60405180910390f35b610353600480360381019061034e91906115c6565b61113c565b005b61035d611338565b60405161036a919061153f565b60405180910390f35b61037b61133e565b604051610390999897969594939291906119d1565b60405180910390f35b600260009054906101000a900473ffffffffffffffffffffffffffffffffffffffff1681565b60065481565b600160009054906101000a900473ffffffffffffffffffffffffffffffffffffffff1673ffffffffffffffffffffffffffffffffffffffff163373ffffffffffffffffffffffffffffffffffffffff1614610455576040517f08c379a000000000000000000000000000000000000000000000000000000000815260040161044c90611ab8565b60405180910390fd5b6006544210610499576040517f08c379a000000000000000000000000000000000000000000000000000000000815260040161049090611b24565b60405180910390fd5b600081116104dc576040517f08c379a00000000000000000000000000000000000000000000000000000000081526004016104d390611b90565b60405180910390fd5b6000600360009054906101000a900473ffffffffffffffffffffffffffffffffffffffff1673ffffffffffffffffffffffffffffffffffffffff166323b872dd600160009054906101000a900473ffffffffffffffffffffffffffffffffffffffff1630856040518463ffffffff1660e01b815260040161055f93929190611bb0565b6020604051808303816000875af115801561057e573d6000803e3d6000fd5b505050506040513d601f19601f820116820180604052508101906105a29190611c13565b9050806105e4576040517f08c379a00000000000000000000000000000000000000000000000000000000081526004016105db90611c8c565b60405180910390fd5b6000600b60008573ffffffffffffffffffffffffffffffffffffffff1673ffffffffffffffffffffffffffffffffffffffff168152602001908152602001600020540361068f57600c839080600181540180825580915050600190039060005260206000200160009091909190916101000a81548173ffffffffffffffffffffffffffffffffffffffff021916908373ffffffffffffffffffffffffffffffffffffffff1602179055505b81600b60008573ffffffffffffffffffffffffffffffffffffffff1673ffffffffffffffffffffffffffffffffffffffff16815260200190815260200160002060008282546106de9190611cdb565b9250508190555081600560008282546106f79190611cdb565b925050819055508273ffffffffffffffffffffffffffffffffffffffff167f2da466a7b24304f47e87fa2e1e5a81b9831ce54fec19055ce277ca2f39ba42c483604051610744919061153f565b60405180910390a2505050565b600c818154811061076157600080fd5b906000526020600020016000915054906101000a900473ffffffffffffffffffffffffffffffffffffffff1681565b600260009054906101000a900473ffffffffffffffffffffffffffffffffffffffff1673ffffffffffffffffffffffffffffffffffffffff163373ffffffffffffffffffffffffffffffffffffffff1614610820576040517f08c379a000000000000000000000000000000000000000000000000000000000815260040161081790611d5b565b60405180910390fd5b610828610bd9565b610867576040517f08c379a000000000000000000000000000000000000000000000000000000000815260040161085e90611dc7565b60405180910390fd5b600a60009054906101000a900460ff16156108b7576040517f08c379a00000000000000000000000000000000000000000000000000000000081526004016108ae90611e33565b60405180910390fd5b6001600a60006101000a81548160ff021916908315150217905550600060055490506000600360009054906101000a900473ffffffffffffffffffffffffffffffffffffffff1673ffffffffffffffffffffffffffffffffffffffff1663a9059cbb600260009054906101000a900473ffffffffffffffffffffffffffffffffffffffff16846040518363ffffffff1660e01b815260040161095a929190611e53565b6020604051808303816000875af1158015610979573d6000803e3d6000fd5b505050506040513d601f19601f8201168201806040525081019061099d9190611c13565b9050806109df576040517f08c379a00000000000000000000000000000000000000000000000000000000081526004016109d690611c8c565b60405180910390fd5b600260009054906101000a900473ffffffffffffffffffffffffffffffffffffffff1673ffffffffffffffffffffffffffffffffffffffff167f7084f5476618d8e60b11ef0d7d3f06914655adb8793e28ff7f018d4c76d505d583604051610a47919061153f565b60405180910390a25050565b600360009054906101000a900473ffffffffffffffffffffffffffffffffffffffff1681565b600b6020528060005260406000206000915090505481565b60088054610a9e90611eab565b80601f0160208091040260200160405190810160405280929190818152602001828054610aca90611eab565b8015610b175780601f10610aec57610100808354040283529160200191610b17565b820191906000526020600020905b815481529060010190602001808311610afa57829003601f168201915b505050505081565b600160009054906101000a900473ffffffffffffffffffffffffffffffffffffffff1681565b60098054610b5290611eab565b80601f0160208091040260200160405190810160405280929190818152602001828054610b7e90611eab565b8015610bcb5780601f10610ba057610100808354040283529160200191610bcb565b820191906000526020600020905b815481529060010190602001808311610bae57829003601f168201915b505050505081565b60045481565b6000600454600554101580610bf057506006544210155b905090565b6006544210610c39576040517f08c379a0000000000000000000000000000000000000000000000000000000008152600401610c3090611b24565b60405180910390fd5b60008111610c7c576040517f08c379a0000000000000000000000000000000000000000000000000000000008152600401610c7390611b90565b60405180910390fd5b6000600360009054906101000a900473ffffffffffffffffffffffffffffffffffffffff1673ffffffffffffffffffffffffffffffffffffffff166323b872dd3330856040518463ffffffff1660e01b8152600401610cdd93929190611bb0565b6020604051808303816000875af1158015610cfc573d6000803e3d6000fd5b505050506040513d601f19601f82011682018060405250810190610d209190611c13565b905080610d62576040517f08c379a0000000000000000000000000000000000000000000000000000000008152600401610d5990611c8c565b60405180910390fd5b6000600b60003373ffffffffffffffffffffffffffffffffffffffff1673ffffffffffffffffffffffffffffffffffffffff1681526020019081526020016000205403610e0d57600c339080600181540180825580915050600190039060005260206000200160009091909190916101000a81548173ffffffffffffffffffffffffffffffffffffffff021916908373ffffffffffffffffffffffffffffffffffffffff1602179055505b81600b60003373ffffffffffffffffffffffffffffffffffffffff1673ffffffffffffffffffffffffffffffffffffffff1681526020019081526020016000206000828254610e5c9190611cdb565b925050819055508160056000828254610e759190611cdb565b925050819055503373ffffffffffffffffffffffffffffffffffffffff167f2da466a7b24304f47e87fa2e1e5a81b9831ce54fec19055ce277ca2f39ba42c483604051610ec2919061153f565b60405180910390a25050565b60008054906101000a900473ffffffffffffffffffffffffffffffffffffffff1681565b600a60009054906101000a900460ff1681565b600a60019054906101000a900460ff1615610f55576040517f08c379a0000000000000000000000000000000000000000000000000000000008152600401610f4c90611f28565b60405180910390fd5b428311610f97576040517f08c379a0000000000000000000000000000000000000000000000000000000008152600401610f8e90611f94565b60405180910390fd5b60008411610fda576040517f08c379a0000000000000000000000000000000000000000000000000000000008152600401610fd190612000565b60405180910390fd5b6001600a60016101000a81548160ff021916908315150217905550336000806101000a81548173ffffffffffffffffffffffffffffffffffffffff021916908373ffffffffffffffffffffffffffffffffffffffff16021790555086600260006101000a81548173ffffffffffffffffffffffffffffffffffffffff021916908373ffffffffffffffffffffffffffffffffffffffff16021790555085600160006101000a81548173ffffffffffffffffffffffffffffffffffffffff021916908373ffffffffffffffffffffffffffffffffffffffff16021790555084600360006101000a81548173ffffffffffffffffffffffffffffffffffffffff021916908373ffffffffffffffffffffffffffffffffffffffff1602179055508360048190555082600681905550816008908161111591906121c2565b50806009908161112591906121c2565b504260078190555050505050505050565b60075481565b600160009054906101000a900473ffffffffffffffffffffffffffffffffffffffff1673ffffffffffffffffffffffffffffffffffffffff163373ffffffffffffffffffffffffffffffffffffffff16146111cc576040517f08c379a00000000000000000000000000000000000000000000000000000000081526004016111c390611ab8565b60405180910390fd5b6000600b60008473ffffffffffffffffffffffffffffffffffffffff1673ffffffffffffffffffffffffffffffffffffffff168152602001908152602001600020540361127757600c829080600181540180825580915050600190039060005260206000200160009091909190916101000a81548173ffffffffffffffffffffffffffffffffffffffff021916908373ffffffffffffffffffffffffffffffffffffffff1602179055505b80600b60008473ffffffffffffffffffffffffffffffffffffffff1673ffffffffffffffffffffffffffffffffffffffff16815260200190815260200160002060008282546112c69190611cdb565b9250508190555080600560008282546112df9190611cdb565b925050819055508173ffffffffffffffffffffffffffffffffffffffff167f2da466a7b24304f47e87fa2e1e5a81b9831ce54fec19055ce277ca2f39ba42c48260405161132c919061153f565b60405180910390a25050565b60055481565b6000806000806000606080600080600260009054906101000a900473ffffffffffffffffffffffffffffffffffffffff1660045460055460065460075460086009600a60009054906101000a900460ff16600c805490508380546113a190611eab565b80601f01602080910402602001604051908101604052809291908181526020018280546113cd90611eab565b801561141a5780601f106113ef5761010080835404028352916020019161141a565b820191906000526020600020905b8154815290600101906020018083116113fd57829003601f168201915b5050505050935082805461142d90611eab565b80601f016020809104026020016040519081016040528092919081815260200182805461145990611eab565b80156114a65780601f1061147b576101008083540402835291602001916114a6565b820191906000526020600020905b81548152906001019060200180831161148957829003601f168201915b50505050509250985098509850985098509850985098509850909192939495969798565b600073ffffffffffffffffffffffffffffffffffffffff82169050919050565b60006114f5826114ca565b9050919050565b611505816114ea565b82525050565b600060208201905061152060008301846114fc565b92915050565b6000819050919050565b61153981611526565b82525050565b60006020820190506115546000830184611530565b92915050565b6000604051905090565b600080fd5b600080fd5b611577816114ea565b811461158257600080fd5b50565b6000813590506115948161156e565b92915050565b6115a381611526565b81146115ae57600080fd5b50565b6000813590506115c08161159a565b92915050565b600080604083850312156115dd576115dc611564565b5b60006115eb85828601611585565b92505060206115fc858286016115b1565b9150509250929050565b60006020828403121561161c5761161b611564565b5b600061162a848285016115b1565b91505092915050565b6000819050919050565b600061165861165361164e846114ca565b611633565b6114ca565b9050919050565b600061166a8261163d565b9050919050565b600061167c8261165f565b9050919050565b61168c81611671565b82525050565b60006020820190506116a76000830184611683565b92915050565b6000602082840312156116c3576116c2611564565b5b60006116d184828501611585565b91505092915050565b600081519050919050565b600082825260208201905092915050565b60005b838110156117145780820151818401526020810190506116f9565b60008484015250505050565b6000601f19601f8301169050919050565b600061173c826116da565b61174681856116e5565b93506117568185602086016116f6565b61175f81611720565b840191505092915050565b600060208201905081810360008301526117848184611731565b905092915050565b60008115159050919050565b6117a18161178c565b82525050565b60006020820190506117bc6000830184611798565b92915050565b600080fd5b600080fd5b7f4e487b7100000000000000000000000000000000000000000000000000000000600052604160045260246000fd5b61180482611720565b810181811067ffffffffffffffff82111715611823576118226117cc565b5b80604052505050565b600061183661155a565b905061184282826117fb565b919050565b600067ffffffffffffffff821115611862576118616117cc565b5b61186b82611720565b9050602081019050919050565b82818337600083830152505050565b600061189a61189584611847565b61182c565b9050828152602081018484840111156118b6576118b56117c7565b5b6118c1848285611878565b509392505050565b600082601f8301126118de576118dd6117c2565b5b81356118ee848260208601611887565b91505092915050565b600080600080600080600060e0888a03121561191657611915611564565b5b60006119248a828b01611585565b97505060206119358a828b01611585565b96505060406119468a828b01611585565b95505060606119578a828b016115b1565b94505060806119688a828b016115b1565b93505060a088013567ffffffffffffffff81111561198957611988611569565b5b6119958a828b016118c9565b92505060c088013567ffffffffffffffff8111156119b6576119b5611569565b5b6119c28a828b016118c9565b91505092959891949750929550565b6000610120820190506119e7600083018c6114fc565b6119f4602083018b611530565b611a01604083018a611530565b611a0e6060830189611530565b611a1b6080830188611530565b81810360a0830152611a2d8187611731565b905081810360c0830152611a418186611731565b9050611a5060e0830185611798565b611a5e610100830184611530565b9a9950505050505050505050565b7f5472656173757279206f6e6c7900000000000000000000000000000000000000600082015250565b6000611aa2600d836116e5565b9150611aad82611a6c565b602082019050919050565b60006020820190508181036000830152611ad181611a95565b9050919050565b7f43616d706169676e20656e646564000000000000000000000000000000000000600082015250565b6000611b0e600e836116e5565b9150611b1982611ad8565b602082019050919050565b60006020820190508181036000830152611b3d81611b01565b9050919050565b7f496e76616c696420616d6f756e74000000000000000000000000000000000000600082015250565b6000611b7a600e836116e5565b9150611b8582611b44565b602082019050919050565b60006020820190508181036000830152611ba981611b6d565b9050919050565b6000606082019050611bc560008301866114fc565b611bd260208301856114fc565b611bdf6040830184611530565b949350505050565b611bf08161178c565b8114611bfb57600080fd5b50565b600081519050611c0d81611be7565b92915050565b600060208284031215611c2957611c28611564565b5b6000611c3784828501611bfe565b91505092915050565b7f5472616e73666572206661696c65640000000000000000000000000000000000600082015250565b6000611c76600f836116e5565b9150611c8182611c40565b602082019050919050565b60006020820190508181036000830152611ca581611c69565b9050919050565b7f4e487b7100000000000000000000000000000000000000000000000000000000600052601160045260246000fd5b6000611ce682611526565b9150611cf183611526565b9250828201905080821115611d0957611d08611cac565b5b92915050565b7f4e6f742063726561746f72000000000000000000000000000000000000000000600082015250565b6000611d45600b836116e5565b9150611d5082611d0f565b602082019050919050565b60006020820190508181036000830152611d7481611d38565b9050919050565b7f43616e6e6f742077697468647261770000000000000000000000000000000000600082015250565b6000611db1600f836116e5565b9150611dbc82611d7b565b602082019050919050565b60006020820190508181036000830152611de081611da4565b9050919050565b7f416c72656164792077697468647261776e000000000000000000000000000000600082015250565b6000611e1d6011836116e5565b9150611e2882611de7565b602082019050919050565b60006020820190508181036000830152611e4c81611e10565b9050919050565b6000604082019050611e6860008301856114fc565b611e756020830184611530565b9392505050565b7f4e487b7100000000000000000000000000000000000000000000000000000000600052602260045260246000fd5b60006002820490506001821680611ec357607f821691505b602082108103611ed657611ed5611e7c565b5b50919050565b7f416c726561647920696e697469616c697a656400000000000000000000000000600082015250565b6000611f126013836116e5565b9150611f1d82611edc565b602082019050919050565b60006020820190508181036000830152611f4181611f05565b9050919050565b7f496e76616c696420646561646c696e6500000000000000000000000000000000600082015250565b6000611f7e6010836116e5565b9150611f8982611f48565b602082019050919050565b60006020820190508181036000830152611fad81611f71565b9050919050565b7f496e76616c696420746172676574000000000000000000000000000000000000600082015250565b6000611fea600e836116e5565b9150611ff582611fb4565b602082019050919050565b6000602082019050818103600083015261201981611fdd565b9050919050565b60008190508160005260206000209050919050565b60006020601f8301049050919050565b600082821b905092915050565b6000600883026120827fffffffffffffffffffffffffffffffffffffffffffffffffffffffffffffffff82612045565b61208c8683612045565b95508019841693508086168417925050509392505050565b60006120bf6120ba6120b584611526565b611633565b611526565b9050919050565b6000819050919050565b6120d9836120a4565b6120ed6120e5826120c6565b848454612052565b825550505050565b600090565b6121026120f5565b61210d8184846120d0565b505050565b5b81811015612131576121266000826120fa565b600181019050612113565b5050565b601f8211156121765761214781612020565b61215084612035565b8101602085101561215f578190505b61217361216b85612035565b830182612112565b50505b505050565b600082821c905092915050565b60006121996000198460080261217b565b1980831691505092915050565b60006121b28383612188565b9150826002028217905092915050565b6121cb826116da565b67ffffffffffffffff8111156121e4576121e36117cc565b5b6121ee8254611eab565b6121f9828285612135565b600060209050601f83116001811461222c576000841561221a578287015190505b61222485826121a6565b86555061228c565b601f19841661223a86612020565b60005b828110156122625784890151825560018201915060208501945060208101905061223d565b8683101561227f578489015161227b601f891682612188565b8355505b6001600288020188555050505b50505050505056fea26469706673582212209da3187cd9e9f1f1cf1e168e246224da1a5f573453c645c3e021fc6705366e0064736f6c63430008180033",
  "linkReferences": {},
  "deployedLinkReferences": {}
}